{
	"contracts/Structs.sol": {
		"StructData": {
			"abi": [
				{
					"inputs": [
						{
							"internalType": "string",
							"name": "_name",
							"type": "string"
						}
					],
					"name": "addTodo",
					"outputs": [],
					"stateMutability": "nonpayable",
					"type": "function"
				},
				{
					"inputs": [
						{
							"internalType": "uint256",
							"name": "_index",
							"type": "uint256"
						}
					],
					"name": "getTodo",
					"outputs": [
						{
							"internalType": "string",
							"name": "_name",
							"type": "string"
						},
						{
							"internalType": "bool",
							"name": "_completed",
							"type": "bool"
						}
					],
					"stateMutability": "view",
					"type": "function"
				},
				{
					"inputs": [
						{
							"internalType": "uint256",
							"name": "",
							"type": "uint256"
						}
					],
					"name": "itemList",
					"outputs": [
						{
							"internalType": "string",
							"name": "name",
							"type": "string"
						},
						{
							"internalType": "bool",
							"name": "completed",
							"type": "bool"
						}
					],
					"stateMutability": "view",
					"type": "function"
				},
				{
					"inputs": [
						{
							"internalType": "string",
							"name": "_name",
							"type": "string"
						},
						{
							"internalType": "uint256",
							"name": "_index",
							"type": "uint256"
						}
					],
					"name": "setAtIndex",
					"outputs": [],
					"stateMutability": "view",
					"type": "function"
				},
				{
					"inputs": [
						{
							"internalType": "uint256",
							"name": "_index",
							"type": "uint256"
						}
					],
					"name": "toogleCompleted",
					"outputs": [],
					"stateMutability": "view",
					"type": "function"
				}
			],
			"devdoc": {
				"kind": "dev",
				"methods": {},
				"version": 1
			},
			"evm": {
				"assembly": "    /* \"contracts/Structs.sol\":128:1308  contract StructData{... */\n  mstore(0x40, 0x80)\n  callvalue\n  dup1\n  iszero\n  tag_1\n  jumpi\n  0x00\n  dup1\n  revert\ntag_1:\n  pop\n  dataSize(sub_0)\n  dup1\n  dataOffset(sub_0)\n  0x00\n  codecopy\n  0x00\n  return\nstop\n\nsub_0: assembly {\n        /* \"contracts/Structs.sol\":128:1308  contract StructData{... */\n      mstore(0x40, 0x80)\n      callvalue\n      dup1\n      iszero\n      tag_1\n      jumpi\n      0x00\n      dup1\n      revert\n    tag_1:\n      pop\n      jumpi(tag_2, lt(calldatasize, 0x04))\n      shr(0xe0, calldataload(0x00))\n      dup1\n      0x21d68ccb\n      eq\n      tag_3\n      jumpi\n      dup1\n      0x3d4d3600\n      eq\n      tag_4\n      jumpi\n      dup1\n      0x72c2a7b0\n      eq\n      tag_5\n      jumpi\n      dup1\n      0x95ffebf5\n      eq\n      tag_6\n      jumpi\n      dup1\n      0xdd68afb6\n      eq\n      tag_7\n      jumpi\n    tag_2:\n      0x00\n      dup1\n      revert\n        /* \"contracts/Structs.sol\":944:1091  function setAtIndex(string memory _name, uint _index) public view{... */\n    tag_3:\n      tag_8\n      0x04\n      dup1\n      calldatasize\n      sub\n      dup2\n      add\n      swap1\n      tag_9\n      swap2\n      swap1\n      tag_10\n      jump\t// in\n    tag_9:\n      tag_11\n      jump\t// in\n    tag_8:\n      stop\n        /* \"contracts/Structs.sol\":162:184  Todo[] public itemList */\n    tag_4:\n      tag_12\n      0x04\n      dup1\n      calldatasize\n      sub\n      dup2\n      add\n      swap1\n      tag_13\n      swap2\n      swap1\n      tag_14\n      jump\t// in\n    tag_13:\n      tag_15\n      jump\t// in\n    tag_12:\n      mload(0x40)\n      tag_16\n      swap3\n      swap2\n      swap1\n      tag_17\n      jump\t// in\n    tag_16:\n      mload(0x40)\n      dup1\n      swap2\n      sub\n      swap1\n      return\n        /* \"contracts/Structs.sol\":1153:1299  function toogleCompleted(uint _index) public view{... */\n    tag_5:\n      tag_18\n      0x04\n      dup1\n      calldatasize\n      sub\n      dup2\n      add\n      swap1\n      tag_19\n      swap2\n      swap1\n      tag_14\n      jump\t// in\n    tag_19:\n      tag_20\n      jump\t// in\n    tag_18:\n      stop\n        /* \"contracts/Structs.sol\":241:654  function addTodo (string memory _name) public {... */\n    tag_6:\n      tag_21\n      0x04\n      dup1\n      calldatasize\n      sub\n      dup2\n      add\n      swap1\n      tag_22\n      swap2\n      swap1\n      tag_23\n      jump\t// in\n    tag_22:\n      tag_24\n      jump\t// in\n    tag_21:\n      stop\n        /* \"contracts/Structs.sol\":702:889  function getTodo(uint _index) public view returns (string memory _name, bool _completed){... */\n    tag_7:\n      tag_25\n      0x04\n      dup1\n      calldatasize\n      sub\n      dup2\n      add\n      swap1\n      tag_26\n      swap2\n      swap1\n      tag_14\n      jump\t// in\n    tag_26:\n      tag_27\n      jump\t// in\n    tag_25:\n      mload(0x40)\n      tag_28\n      swap3\n      swap2\n      swap1\n      tag_17\n      jump\t// in\n    tag_28:\n      mload(0x40)\n      dup1\n      swap2\n      sub\n      swap1\n      return\n        /* \"contracts/Structs.sol\":944:1091  function setAtIndex(string memory _name, uint _index) public view{... */\n    tag_11:\n        /* \"contracts/Structs.sol\":1020:1036  Todo memory temp */\n      0x00\n        /* \"contracts/Structs.sol\":1039:1047  itemList */\n      dup1\n        /* \"contracts/Structs.sol\":1048:1054  _index */\n      dup3\n        /* \"contracts/Structs.sol\":1039:1055  itemList[_index] */\n      dup2\n      sload\n      dup2\n      lt\n      tag_30\n      jumpi\n      tag_31\n      tag_32\n      jump\t// in\n    tag_31:\n    tag_30:\n      swap1\n      0x00\n      mstore\n      keccak256(0x00, 0x20)\n      swap1\n      0x02\n      mul\n      add\n        /* \"contracts/Structs.sol\":1020:1055  Todo memory temp = itemList[_index] */\n      mload(0x40)\n      dup1\n      0x40\n      add\n      0x40\n      mstore\n      swap1\n      dup2\n      0x00\n      dup3\n      add\n      dup1\n      sload\n      tag_34\n      swap1\n      tag_35\n      jump\t// in\n    tag_34:\n      dup1\n      0x1f\n      add\n      0x20\n      dup1\n      swap2\n      div\n      mul\n      0x20\n      add\n      mload(0x40)\n      swap1\n      dup2\n      add\n      0x40\n      mstore\n      dup1\n      swap3\n      swap2\n      swap1\n      dup2\n      dup2\n      mstore\n      0x20\n      add\n      dup3\n      dup1\n      sload\n      tag_36\n      swap1\n      tag_35\n      jump\t// in\n    tag_36:\n      dup1\n      iszero\n      tag_37\n      jumpi\n      dup1\n      0x1f\n      lt\n      tag_38\n      jumpi\n      0x0100\n      dup1\n      dup4\n      sload\n      div\n      mul\n      dup4\n      mstore\n      swap2\n      0x20\n      add\n      swap2\n      jump(tag_37)\n    tag_38:\n      dup3\n      add\n      swap2\n      swap1\n      0x00\n      mstore\n      keccak256(0x00, 0x20)\n      swap1\n    tag_39:\n      dup2\n      sload\n      dup2\n      mstore\n      swap1\n      0x01\n      add\n      swap1\n      0x20\n      add\n      dup1\n      dup4\n      gt\n      tag_39\n      jumpi\n      dup3\n      swap1\n      sub\n      0x1f\n      and\n      dup3\n      add\n      swap2\n    tag_37:\n      pop\n      pop\n      pop\n      pop\n      pop\n      dup2\n      mstore\n      0x20\n      add\n      0x01\n      dup3\n      add\n      0x00\n      swap1\n      sload\n      swap1\n      0x0100\n      exp\n      swap1\n      div\n      0xff\n      and\n      iszero\n      iszero\n      iszero\n      iszero\n      dup2\n      mstore\n      pop\n      pop\n      swap1\n      pop\n        /* \"contracts/Structs.sol\":1078:1083  _name */\n      dup3\n        /* \"contracts/Structs.sol\":1066:1070  temp */\n      dup2\n        /* \"contracts/Structs.sol\":1066:1075  temp.name */\n      0x00\n      add\n        /* \"contracts/Structs.sol\":1066:1083  temp.name = _name */\n      dup2\n      swap1\n      mstore\n      pop\n        /* \"contracts/Structs.sol\":1009:1091  {... */\n      pop\n        /* \"contracts/Structs.sol\":944:1091  function setAtIndex(string memory _name, uint _index) public view{... */\n      pop\n      pop\n      jump\t// out\n        /* \"contracts/Structs.sol\":162:184  Todo[] public itemList */\n    tag_15:\n      0x00\n      dup2\n      dup2\n      sload\n      dup2\n      lt\n      tag_40\n      jumpi\n      0x00\n      dup1\n      revert\n    tag_40:\n      swap1\n      0x00\n      mstore\n      keccak256(0x00, 0x20)\n      swap1\n      0x02\n      mul\n      add\n      0x00\n      swap2\n      pop\n      swap1\n      pop\n      dup1\n      0x00\n      add\n      dup1\n      sload\n      tag_42\n      swap1\n      tag_35\n      jump\t// in\n    tag_42:\n      dup1\n      0x1f\n      add\n      0x20\n      dup1\n      swap2\n      div\n      mul\n      0x20\n      add\n      mload(0x40)\n      swap1\n      dup2\n      add\n      0x40\n      mstore\n      dup1\n      swap3\n      swap2\n      swap1\n      dup2\n      dup2\n      mstore\n      0x20\n      add\n      dup3\n      dup1\n      sload\n      tag_43\n      swap1\n      tag_35\n      jump\t// in\n    tag_43:\n      dup1\n      iszero\n      tag_44\n      jumpi\n      dup1\n      0x1f\n      lt\n      tag_45\n      jumpi\n      0x0100\n      dup1\n      dup4\n      sload\n      div\n      mul\n      dup4\n      mstore\n      swap2\n      0x20\n      add\n      swap2\n      jump(tag_44)\n    tag_45:\n      dup3\n      add\n      swap2\n      swap1\n      0x00\n      mstore\n      keccak256(0x00, 0x20)\n      swap1\n    tag_46:\n      dup2\n      sload\n      dup2\n      mstore\n      swap1\n      0x01\n      add\n      swap1\n      0x20\n      add\n      dup1\n      dup4\n      gt\n      tag_46\n      jumpi\n      dup3\n      swap1\n      sub\n      0x1f\n      and\n      dup3\n      add\n      swap2\n    tag_44:\n      pop\n      pop\n      pop\n      pop\n      pop\n      swap1\n      dup1\n      0x01\n      add\n      0x00\n      swap1\n      sload\n      swap1\n      0x0100\n      exp\n      swap1\n      div\n      0xff\n      and\n      swap1\n      pop\n      dup3\n      jump\t// out\n        /* \"contracts/Structs.sol\":1153:1299  function toogleCompleted(uint _index) public view{... */\n    tag_20:\n        /* \"contracts/Structs.sol\":1213:1229  Todo memory temp */\n      0x00\n        /* \"contracts/Structs.sol\":1232:1240  itemList */\n      dup1\n        /* \"contracts/Structs.sol\":1241:1247  _index */\n      dup3\n        /* \"contracts/Structs.sol\":1232:1248  itemList[_index] */\n      dup2\n      sload\n      dup2\n      lt\n      tag_48\n      jumpi\n      tag_49\n      tag_32\n      jump\t// in\n    tag_49:\n    tag_48:\n      swap1\n      0x00\n      mstore\n      keccak256(0x00, 0x20)\n      swap1\n      0x02\n      mul\n      add\n        /* \"contracts/Structs.sol\":1213:1248  Todo memory temp = itemList[_index] */\n      mload(0x40)\n      dup1\n      0x40\n      add\n      0x40\n      mstore\n      swap1\n      dup2\n      0x00\n      dup3\n      add\n      dup1\n      sload\n      tag_51\n      swap1\n      tag_35\n      jump\t// in\n    tag_51:\n      dup1\n      0x1f\n      add\n      0x20\n      dup1\n      swap2\n      div\n      mul\n      0x20\n      add\n      mload(0x40)\n      swap1\n      dup2\n      add\n      0x40\n      mstore\n      dup1\n      swap3\n      swap2\n      swap1\n      dup2\n      dup2\n      mstore\n      0x20\n      add\n      dup3\n      dup1\n      sload\n      tag_52\n      swap1\n      tag_35\n      jump\t// in\n    tag_52:\n      dup1\n      iszero\n      tag_53\n      jumpi\n      dup1\n      0x1f\n      lt\n      tag_54\n      jumpi\n      0x0100\n      dup1\n      dup4\n      sload\n      div\n      mul\n      dup4\n      mstore\n      swap2\n      0x20\n      add\n      swap2\n      jump(tag_53)\n    tag_54:\n      dup3\n      add\n      swap2\n      swap1\n      0x00\n      mstore\n      keccak256(0x00, 0x20)\n      swap1\n    tag_55:\n      dup2\n      sload\n      dup2\n      mstore\n      swap1\n      0x01\n      add\n      swap1\n      0x20\n      add\n      dup1\n      dup4\n      gt\n      tag_55\n      jumpi\n      dup3\n      swap1\n      sub\n      0x1f\n      and\n      dup3\n      add\n      swap2\n    tag_53:\n      pop\n      pop\n      pop\n      pop\n      pop\n      dup2\n      mstore\n      0x20\n      add\n      0x01\n      dup3\n      add\n      0x00\n      swap1\n      sload\n      swap1\n      0x0100\n      exp\n      swap1\n      div\n      0xff\n      and\n      iszero\n      iszero\n      iszero\n      iszero\n      dup2\n      mstore\n      pop\n      pop\n      swap1\n      pop\n        /* \"contracts/Structs.sol\":1277:1281  temp */\n      dup1\n        /* \"contracts/Structs.sol\":1277:1291  temp.completed */\n      0x20\n      add\n      mload\n        /* \"contracts/Structs.sol\":1259:1291  temp.completed != temp.completed */\n      iszero\n      iszero\n        /* \"contracts/Structs.sol\":1259:1263  temp */\n      dup2\n        /* \"contracts/Structs.sol\":1259:1273  temp.completed */\n      0x20\n      add\n      mload\n        /* \"contracts/Structs.sol\":1259:1291  temp.completed != temp.completed */\n      pop\n      pop\n        /* \"contracts/Structs.sol\":1202:1299  {... */\n      pop\n        /* \"contracts/Structs.sol\":1153:1299  function toogleCompleted(uint _index) public view{... */\n      pop\n      jump\t// out\n        /* \"contracts/Structs.sol\":241:654  function addTodo (string memory _name) public {... */\n    tag_24:\n        /* \"contracts/Structs.sol\":335:343  itemList */\n      0x00\n        /* \"contracts/Structs.sol\":349:367  Todo(_name, false) */\n      mload(0x40)\n      dup1\n      0x40\n      add\n      0x40\n      mstore\n      dup1\n        /* \"contracts/Structs.sol\":354:359  _name */\n      dup4\n        /* \"contracts/Structs.sol\":349:367  Todo(_name, false) */\n      dup2\n      mstore\n      0x20\n      add\n        /* \"contracts/Structs.sol\":361:366  false */\n      0x00\n        /* \"contracts/Structs.sol\":349:367  Todo(_name, false) */\n      iszero\n      iszero\n      dup2\n      mstore\n      pop\n        /* \"contracts/Structs.sol\":335:368  itemList.push(Todo(_name, false)) */\n      swap1\n      dup1\n      0x01\n      dup2\n      sload\n      add\n      dup1\n      dup3\n      sstore\n      dup1\n      swap2\n      pop\n      pop\n      0x01\n      swap1\n      sub\n      swap1\n      0x00\n      mstore\n      keccak256(0x00, 0x20)\n      swap1\n      0x02\n      mul\n      add\n      0x00\n      swap1\n      swap2\n      swap1\n      swap2\n      swap1\n      swap2\n      pop\n      0x00\n      dup3\n      add\n      mload\n      dup2\n      0x00\n      add\n      swap1\n      dup2\n      tag_58\n      swap2\n      swap1\n      tag_59\n      jump\t// in\n    tag_58:\n      pop\n      0x20\n      dup3\n      add\n      mload\n      dup2\n      0x01\n      add\n      exp(0x0100, 0x00)\n      dup2\n      sload\n      dup2\n      0xff\n      mul\n      not\n      and\n      swap1\n      dup4\n      iszero\n      iszero\n      mul\n      or\n      swap1\n      sstore\n      pop\n      pop\n      pop\n        /* \"contracts/Structs.sol\":241:654  function addTodo (string memory _name) public {... */\n      pop\n      jump\t// out\n        /* \"contracts/Structs.sol\":702:889  function getTodo(uint _index) public view returns (string memory _name, bool _completed){... */\n    tag_27:\n        /* \"contracts/Structs.sol\":753:772  string memory _name */\n      0x60\n        /* \"contracts/Structs.sol\":774:789  bool _completed */\n      0x00\n        /* \"contracts/Structs.sol\":801:817  Todo memory temp */\n      dup1\n        /* \"contracts/Structs.sol\":820:828  itemList */\n      0x00\n        /* \"contracts/Structs.sol\":829:835  _index */\n      dup5\n        /* \"contracts/Structs.sol\":820:836  itemList[_index] */\n      dup2\n      sload\n      dup2\n      lt\n      tag_61\n      jumpi\n      tag_62\n      tag_32\n      jump\t// in\n    tag_62:\n    tag_61:\n      swap1\n      0x00\n      mstore\n      keccak256(0x00, 0x20)\n      swap1\n      0x02\n      mul\n      add\n        /* \"contracts/Structs.sol\":801:836  Todo memory temp = itemList[_index] */\n      mload(0x40)\n      dup1\n      0x40\n      add\n      0x40\n      mstore\n      swap1\n      dup2\n      0x00\n      dup3\n      add\n      dup1\n      sload\n      tag_64\n      swap1\n      tag_35\n      jump\t// in\n    tag_64:\n      dup1\n      0x1f\n      add\n      0x20\n      dup1\n      swap2\n      div\n      mul\n      0x20\n      add\n      mload(0x40)\n      swap1\n      dup2\n      add\n      0x40\n      mstore\n      dup1\n      swap3\n      swap2\n      swap1\n      dup2\n      dup2\n      mstore\n      0x20\n      add\n      dup3\n      dup1\n      sload\n      tag_65\n      swap1\n      tag_35\n      jump\t// in\n    tag_65:\n      dup1\n      iszero\n      tag_66\n      jumpi\n      dup1\n      0x1f\n      lt\n      tag_67\n      jumpi\n      0x0100\n      dup1\n      dup4\n      sload\n      div\n      mul\n      dup4\n      mstore\n      swap2\n      0x20\n      add\n      swap2\n      jump(tag_66)\n    tag_67:\n      dup3\n      add\n      swap2\n      swap1\n      0x00\n      mstore\n      keccak256(0x00, 0x20)\n      swap1\n    tag_68:\n      dup2\n      sload\n      dup2\n      mstore\n      swap1\n      0x01\n      add\n      swap1\n      0x20\n      add\n      dup1\n      dup4\n      gt\n      tag_68\n      jumpi\n      dup3\n      swap1\n      sub\n      0x1f\n      and\n      dup3\n      add\n      swap2\n    tag_66:\n      pop\n      pop\n      pop\n      pop\n      pop\n      dup2\n      mstore\n      0x20\n      add\n      0x01\n      dup3\n      add\n      0x00\n      swap1\n      sload\n      swap1\n      0x0100\n      exp\n      swap1\n      div\n      0xff\n      and\n      iszero\n      iszero\n      iszero\n      iszero\n      dup2\n      mstore\n      pop\n      pop\n      swap1\n      pop\n        /* \"contracts/Structs.sol\":855:859  temp */\n      dup1\n        /* \"contracts/Structs.sol\":855:864  temp.name */\n      0x00\n      add\n      mload\n        /* \"contracts/Structs.sol\":866:870  temp */\n      dup2\n        /* \"contracts/Structs.sol\":866:880  temp.completed */\n      0x20\n      add\n      mload\n        /* \"contracts/Structs.sol\":847:881  return (temp.name, temp.completed) */\n      swap3\n      pop\n      swap3\n      pop\n      pop\n        /* \"contracts/Structs.sol\":702:889  function getTodo(uint _index) public view returns (string memory _name, bool _completed){... */\n      swap2\n      pop\n      swap2\n      jump\t// out\n        /* \"#utility.yul\":7:82   */\n    tag_69:\n        /* \"#utility.yul\":40:46   */\n      0x00\n        /* \"#utility.yul\":73:75   */\n      0x40\n        /* \"#utility.yul\":67:76   */\n      mload\n        /* \"#utility.yul\":57:76   */\n      swap1\n      pop\n        /* \"#utility.yul\":7:82   */\n      swap1\n      jump\t// out\n        /* \"#utility.yul\":88:205   */\n    tag_70:\n        /* \"#utility.yul\":197:198   */\n      0x00\n        /* \"#utility.yul\":194:195   */\n      dup1\n        /* \"#utility.yul\":187:199   */\n      revert\n        /* \"#utility.yul\":211:328   */\n    tag_71:\n        /* \"#utility.yul\":320:321   */\n      0x00\n        /* \"#utility.yul\":317:318   */\n      dup1\n        /* \"#utility.yul\":310:322   */\n      revert\n        /* \"#utility.yul\":334:451   */\n    tag_72:\n        /* \"#utility.yul\":443:444   */\n      0x00\n        /* \"#utility.yul\":440:441   */\n      dup1\n        /* \"#utility.yul\":433:445   */\n      revert\n        /* \"#utility.yul\":457:574   */\n    tag_73:\n        /* \"#utility.yul\":566:567   */\n      0x00\n        /* \"#utility.yul\":563:564   */\n      dup1\n        /* \"#utility.yul\":556:568   */\n      revert\n        /* \"#utility.yul\":580:682   */\n    tag_74:\n        /* \"#utility.yul\":621:627   */\n      0x00\n        /* \"#utility.yul\":672:674   */\n      0x1f\n        /* \"#utility.yul\":668:675   */\n      not\n        /* \"#utility.yul\":663:665   */\n      0x1f\n        /* \"#utility.yul\":656:661   */\n      dup4\n        /* \"#utility.yul\":652:666   */\n      add\n        /* \"#utility.yul\":648:676   */\n      and\n        /* \"#utility.yul\":638:676   */\n      swap1\n      pop\n        /* \"#utility.yul\":580:682   */\n      swap2\n      swap1\n      pop\n      jump\t// out\n        /* \"#utility.yul\":688:868   */\n    tag_75:\n        /* \"#utility.yul\":736:813   */\n      0x4e487b7100000000000000000000000000000000000000000000000000000000\n        /* \"#utility.yul\":733:734   */\n      0x00\n        /* \"#utility.yul\":726:814   */\n      mstore\n        /* \"#utility.yul\":833:837   */\n      0x41\n        /* \"#utility.yul\":830:831   */\n      0x04\n        /* \"#utility.yul\":823:838   */\n      mstore\n        /* \"#utility.yul\":857:861   */\n      0x24\n        /* \"#utility.yul\":854:855   */\n      0x00\n        /* \"#utility.yul\":847:862   */\n      revert\n        /* \"#utility.yul\":874:1155   */\n    tag_76:\n        /* \"#utility.yul\":957:984   */\n      tag_116\n        /* \"#utility.yul\":979:983   */\n      dup3\n        /* \"#utility.yul\":957:984   */\n      tag_74\n      jump\t// in\n    tag_116:\n        /* \"#utility.yul\":949:955   */\n      dup2\n        /* \"#utility.yul\":945:985   */\n      add\n        /* \"#utility.yul\":1087:1093   */\n      dup2\n        /* \"#utility.yul\":1075:1085   */\n      dup2\n        /* \"#utility.yul\":1072:1094   */\n      lt\n        /* \"#utility.yul\":1051:1069   */\n      0xffffffffffffffff\n        /* \"#utility.yul\":1039:1049   */\n      dup3\n        /* \"#utility.yul\":1036:1070   */\n      gt\n        /* \"#utility.yul\":1033:1095   */\n      or\n        /* \"#utility.yul\":1030:1118   */\n      iszero\n      tag_117\n      jumpi\n        /* \"#utility.yul\":1098:1116   */\n      tag_118\n      tag_75\n      jump\t// in\n    tag_118:\n        /* \"#utility.yul\":1030:1118   */\n    tag_117:\n        /* \"#utility.yul\":1138:1148   */\n      dup1\n        /* \"#utility.yul\":1134:1136   */\n      0x40\n        /* \"#utility.yul\":1127:1149   */\n      mstore\n        /* \"#utility.yul\":917:1155   */\n      pop\n        /* \"#utility.yul\":874:1155   */\n      pop\n      pop\n      jump\t// out\n        /* \"#utility.yul\":1161:1290   */\n    tag_77:\n        /* \"#utility.yul\":1195:1201   */\n      0x00\n        /* \"#utility.yul\":1222:1242   */\n      tag_120\n      tag_69\n      jump\t// in\n    tag_120:\n        /* \"#utility.yul\":1212:1242   */\n      swap1\n      pop\n        /* \"#utility.yul\":1251:1284   */\n      tag_121\n        /* \"#utility.yul\":1279:1283   */\n      dup3\n        /* \"#utility.yul\":1271:1277   */\n      dup3\n        /* \"#utility.yul\":1251:1284   */\n      tag_76\n      jump\t// in\n    tag_121:\n        /* \"#utility.yul\":1161:1290   */\n      swap2\n      swap1\n      pop\n      jump\t// out\n        /* \"#utility.yul\":1296:1604   */\n    tag_78:\n        /* \"#utility.yul\":1358:1362   */\n      0x00\n        /* \"#utility.yul\":1448:1466   */\n      0xffffffffffffffff\n        /* \"#utility.yul\":1440:1446   */\n      dup3\n        /* \"#utility.yul\":1437:1467   */\n      gt\n        /* \"#utility.yul\":1434:1490   */\n      iszero\n      tag_123\n      jumpi\n        /* \"#utility.yul\":1470:1488   */\n      tag_124\n      tag_75\n      jump\t// in\n    tag_124:\n        /* \"#utility.yul\":1434:1490   */\n    tag_123:\n        /* \"#utility.yul\":1508:1537   */\n      tag_125\n        /* \"#utility.yul\":1530:1536   */\n      dup3\n        /* \"#utility.yul\":1508:1537   */\n      tag_74\n      jump\t// in\n    tag_125:\n        /* \"#utility.yul\":1500:1537   */\n      swap1\n      pop\n        /* \"#utility.yul\":1592:1596   */\n      0x20\n        /* \"#utility.yul\":1586:1590   */\n      dup2\n        /* \"#utility.yul\":1582:1597   */\n      add\n        /* \"#utility.yul\":1574:1597   */\n      swap1\n      pop\n        /* \"#utility.yul\":1296:1604   */\n      swap2\n      swap1\n      pop\n      jump\t// out\n        /* \"#utility.yul\":1610:1758   */\n    tag_79:\n        /* \"#utility.yul\":1708:1714   */\n      dup3\n        /* \"#utility.yul\":1703:1706   */\n      dup2\n        /* \"#utility.yul\":1698:1701   */\n      dup4\n        /* \"#utility.yul\":1685:1715   */\n      calldatacopy\n        /* \"#utility.yul\":1749:1750   */\n      0x00\n        /* \"#utility.yul\":1740:1746   */\n      dup4\n        /* \"#utility.yul\":1735:1738   */\n      dup4\n        /* \"#utility.yul\":1731:1747   */\n      add\n        /* \"#utility.yul\":1724:1751   */\n      mstore\n        /* \"#utility.yul\":1610:1758   */\n      pop\n      pop\n      pop\n      jump\t// out\n        /* \"#utility.yul\":1764:2189   */\n    tag_80:\n        /* \"#utility.yul\":1842:1847   */\n      0x00\n        /* \"#utility.yul\":1867:1933   */\n      tag_128\n        /* \"#utility.yul\":1883:1932   */\n      tag_129\n        /* \"#utility.yul\":1925:1931   */\n      dup5\n        /* \"#utility.yul\":1883:1932   */\n      tag_78\n      jump\t// in\n    tag_129:\n        /* \"#utility.yul\":1867:1933   */\n      tag_77\n      jump\t// in\n    tag_128:\n        /* \"#utility.yul\":1858:1933   */\n      swap1\n      pop\n        /* \"#utility.yul\":1956:1962   */\n      dup3\n        /* \"#utility.yul\":1949:1954   */\n      dup2\n        /* \"#utility.yul\":1942:1963   */\n      mstore\n        /* \"#utility.yul\":1994:1998   */\n      0x20\n        /* \"#utility.yul\":1987:1992   */\n      dup2\n        /* \"#utility.yul\":1983:1999   */\n      add\n        /* \"#utility.yul\":2032:2035   */\n      dup5\n        /* \"#utility.yul\":2023:2029   */\n      dup5\n        /* \"#utility.yul\":2018:2021   */\n      dup5\n        /* \"#utility.yul\":2014:2030   */\n      add\n        /* \"#utility.yul\":2011:2036   */\n      gt\n        /* \"#utility.yul\":2008:2120   */\n      iszero\n      tag_130\n      jumpi\n        /* \"#utility.yul\":2039:2118   */\n      tag_131\n      tag_73\n      jump\t// in\n    tag_131:\n        /* \"#utility.yul\":2008:2120   */\n    tag_130:\n        /* \"#utility.yul\":2129:2183   */\n      tag_132\n        /* \"#utility.yul\":2176:2182   */\n      dup5\n        /* \"#utility.yul\":2171:2174   */\n      dup3\n        /* \"#utility.yul\":2166:2169   */\n      dup6\n        /* \"#utility.yul\":2129:2183   */\n      tag_79\n      jump\t// in\n    tag_132:\n        /* \"#utility.yul\":1848:2189   */\n      pop\n        /* \"#utility.yul\":1764:2189   */\n      swap4\n      swap3\n      pop\n      pop\n      pop\n      jump\t// out\n        /* \"#utility.yul\":2209:2549   */\n    tag_81:\n        /* \"#utility.yul\":2265:2270   */\n      0x00\n        /* \"#utility.yul\":2314:2317   */\n      dup3\n        /* \"#utility.yul\":2307:2311   */\n      0x1f\n        /* \"#utility.yul\":2299:2305   */\n      dup4\n        /* \"#utility.yul\":2295:2312   */\n      add\n        /* \"#utility.yul\":2291:2318   */\n      slt\n        /* \"#utility.yul\":2281:2403   */\n      tag_134\n      jumpi\n        /* \"#utility.yul\":2322:2401   */\n      tag_135\n      tag_72\n      jump\t// in\n    tag_135:\n        /* \"#utility.yul\":2281:2403   */\n    tag_134:\n        /* \"#utility.yul\":2439:2445   */\n      dup2\n        /* \"#utility.yul\":2426:2446   */\n      calldataload\n        /* \"#utility.yul\":2464:2543   */\n      tag_136\n        /* \"#utility.yul\":2539:2542   */\n      dup5\n        /* \"#utility.yul\":2531:2537   */\n      dup3\n        /* \"#utility.yul\":2524:2528   */\n      0x20\n        /* \"#utility.yul\":2516:2522   */\n      dup7\n        /* \"#utility.yul\":2512:2529   */\n      add\n        /* \"#utility.yul\":2464:2543   */\n      tag_80\n      jump\t// in\n    tag_136:\n        /* \"#utility.yul\":2455:2543   */\n      swap2\n      pop\n        /* \"#utility.yul\":2271:2549   */\n      pop\n        /* \"#utility.yul\":2209:2549   */\n      swap3\n      swap2\n      pop\n      pop\n      jump\t// out\n        /* \"#utility.yul\":2555:2632   */\n    tag_82:\n        /* \"#utility.yul\":2592:2599   */\n      0x00\n        /* \"#utility.yul\":2621:2626   */\n      dup2\n        /* \"#utility.yul\":2610:2626   */\n      swap1\n      pop\n        /* \"#utility.yul\":2555:2632   */\n      swap2\n      swap1\n      pop\n      jump\t// out\n        /* \"#utility.yul\":2638:2760   */\n    tag_83:\n        /* \"#utility.yul\":2711:2735   */\n      tag_139\n        /* \"#utility.yul\":2729:2734   */\n      dup2\n        /* \"#utility.yul\":2711:2735   */\n      tag_82\n      jump\t// in\n    tag_139:\n        /* \"#utility.yul\":2704:2709   */\n      dup2\n        /* \"#utility.yul\":2701:2736   */\n      eq\n        /* \"#utility.yul\":2691:2754   */\n      tag_140\n      jumpi\n        /* \"#utility.yul\":2750:2751   */\n      0x00\n        /* \"#utility.yul\":2747:2748   */\n      dup1\n        /* \"#utility.yul\":2740:2752   */\n      revert\n        /* \"#utility.yul\":2691:2754   */\n    tag_140:\n        /* \"#utility.yul\":2638:2760   */\n      pop\n      jump\t// out\n        /* \"#utility.yul\":2766:2905   */\n    tag_84:\n        /* \"#utility.yul\":2812:2817   */\n      0x00\n        /* \"#utility.yul\":2850:2856   */\n      dup2\n        /* \"#utility.yul\":2837:2857   */\n      calldataload\n        /* \"#utility.yul\":2828:2857   */\n      swap1\n      pop\n        /* \"#utility.yul\":2866:2899   */\n      tag_142\n        /* \"#utility.yul\":2893:2898   */\n      dup2\n        /* \"#utility.yul\":2866:2899   */\n      tag_83\n      jump\t// in\n    tag_142:\n        /* \"#utility.yul\":2766:2905   */\n      swap3\n      swap2\n      pop\n      pop\n      jump\t// out\n        /* \"#utility.yul\":2911:3565   */\n    tag_10:\n        /* \"#utility.yul\":2989:2995   */\n      0x00\n        /* \"#utility.yul\":2997:3003   */\n      dup1\n        /* \"#utility.yul\":3046:3048   */\n      0x40\n        /* \"#utility.yul\":3034:3043   */\n      dup4\n        /* \"#utility.yul\":3025:3032   */\n      dup6\n        /* \"#utility.yul\":3021:3044   */\n      sub\n        /* \"#utility.yul\":3017:3049   */\n      slt\n        /* \"#utility.yul\":3014:3133   */\n      iszero\n      tag_144\n      jumpi\n        /* \"#utility.yul\":3052:3131   */\n      tag_145\n      tag_70\n      jump\t// in\n    tag_145:\n        /* \"#utility.yul\":3014:3133   */\n    tag_144:\n        /* \"#utility.yul\":3200:3201   */\n      0x00\n        /* \"#utility.yul\":3189:3198   */\n      dup4\n        /* \"#utility.yul\":3185:3202   */\n      add\n        /* \"#utility.yul\":3172:3203   */\n      calldataload\n        /* \"#utility.yul\":3230:3248   */\n      0xffffffffffffffff\n        /* \"#utility.yul\":3222:3228   */\n      dup2\n        /* \"#utility.yul\":3219:3249   */\n      gt\n        /* \"#utility.yul\":3216:3333   */\n      iszero\n      tag_146\n      jumpi\n        /* \"#utility.yul\":3252:3331   */\n      tag_147\n      tag_71\n      jump\t// in\n    tag_147:\n        /* \"#utility.yul\":3216:3333   */\n    tag_146:\n        /* \"#utility.yul\":3357:3420   */\n      tag_148\n        /* \"#utility.yul\":3412:3419   */\n      dup6\n        /* \"#utility.yul\":3403:3409   */\n      dup3\n        /* \"#utility.yul\":3392:3401   */\n      dup7\n        /* \"#utility.yul\":3388:3410   */\n      add\n        /* \"#utility.yul\":3357:3420   */\n      tag_81\n      jump\t// in\n    tag_148:\n        /* \"#utility.yul\":3347:3420   */\n      swap3\n      pop\n        /* \"#utility.yul\":3143:3430   */\n      pop\n        /* \"#utility.yul\":3469:3471   */\n      0x20\n        /* \"#utility.yul\":3495:3548   */\n      tag_149\n        /* \"#utility.yul\":3540:3547   */\n      dup6\n        /* \"#utility.yul\":3531:3537   */\n      dup3\n        /* \"#utility.yul\":3520:3529   */\n      dup7\n        /* \"#utility.yul\":3516:3538   */\n      add\n        /* \"#utility.yul\":3495:3548   */\n      tag_84\n      jump\t// in\n    tag_149:\n        /* \"#utility.yul\":3485:3548   */\n      swap2\n      pop\n        /* \"#utility.yul\":3440:3558   */\n      pop\n        /* \"#utility.yul\":2911:3565   */\n      swap3\n      pop\n      swap3\n      swap1\n      pop\n      jump\t// out\n        /* \"#utility.yul\":3571:3900   */\n    tag_14:\n        /* \"#utility.yul\":3630:3636   */\n      0x00\n        /* \"#utility.yul\":3679:3681   */\n      0x20\n        /* \"#utility.yul\":3667:3676   */\n      dup3\n        /* \"#utility.yul\":3658:3665   */\n      dup5\n        /* \"#utility.yul\":3654:3677   */\n      sub\n        /* \"#utility.yul\":3650:3682   */\n      slt\n        /* \"#utility.yul\":3647:3766   */\n      iszero\n      tag_151\n      jumpi\n        /* \"#utility.yul\":3685:3764   */\n      tag_152\n      tag_70\n      jump\t// in\n    tag_152:\n        /* \"#utility.yul\":3647:3766   */\n    tag_151:\n        /* \"#utility.yul\":3805:3806   */\n      0x00\n        /* \"#utility.yul\":3830:3883   */\n      tag_153\n        /* \"#utility.yul\":3875:3882   */\n      dup5\n        /* \"#utility.yul\":3866:3872   */\n      dup3\n        /* \"#utility.yul\":3855:3864   */\n      dup6\n        /* \"#utility.yul\":3851:3873   */\n      add\n        /* \"#utility.yul\":3830:3883   */\n      tag_84\n      jump\t// in\n    tag_153:\n        /* \"#utility.yul\":3820:3883   */\n      swap2\n      pop\n        /* \"#utility.yul\":3776:3893   */\n      pop\n        /* \"#utility.yul\":3571:3900   */\n      swap3\n      swap2\n      pop\n      pop\n      jump\t// out\n        /* \"#utility.yul\":3906:4005   */\n    tag_85:\n        /* \"#utility.yul\":3958:3964   */\n      0x00\n        /* \"#utility.yul\":3992:3997   */\n      dup2\n        /* \"#utility.yul\":3986:3998   */\n      mload\n        /* \"#utility.yul\":3976:3998   */\n      swap1\n      pop\n        /* \"#utility.yul\":3906:4005   */\n      swap2\n      swap1\n      pop\n      jump\t// out\n        /* \"#utility.yul\":4011:4180   */\n    tag_86:\n        /* \"#utility.yul\":4095:4106   */\n      0x00\n        /* \"#utility.yul\":4129:4135   */\n      dup3\n        /* \"#utility.yul\":4124:4127   */\n      dup3\n        /* \"#utility.yul\":4117:4136   */\n      mstore\n        /* \"#utility.yul\":4169:4173   */\n      0x20\n        /* \"#utility.yul\":4164:4167   */\n      dup3\n        /* \"#utility.yul\":4160:4174   */\n      add\n        /* \"#utility.yul\":4145:4174   */\n      swap1\n      pop\n        /* \"#utility.yul\":4011:4180   */\n      swap3\n      swap2\n      pop\n      pop\n      jump\t// out\n        /* \"#utility.yul\":4186:4325   */\n    tag_87:\n        /* \"#utility.yul\":4275:4281   */\n      dup3\n        /* \"#utility.yul\":4270:4273   */\n      dup2\n        /* \"#utility.yul\":4265:4268   */\n      dup4\n        /* \"#utility.yul\":4259:4282   */\n      mcopy\n        /* \"#utility.yul\":4316:4317   */\n      0x00\n        /* \"#utility.yul\":4307:4313   */\n      dup4\n        /* \"#utility.yul\":4302:4305   */\n      dup4\n        /* \"#utility.yul\":4298:4314   */\n      add\n        /* \"#utility.yul\":4291:4318   */\n      mstore\n        /* \"#utility.yul\":4186:4325   */\n      pop\n      pop\n      pop\n      jump\t// out\n        /* \"#utility.yul\":4331:4708   */\n    tag_88:\n        /* \"#utility.yul\":4419:4422   */\n      0x00\n        /* \"#utility.yul\":4447:4486   */\n      tag_158\n        /* \"#utility.yul\":4480:4485   */\n      dup3\n        /* \"#utility.yul\":4447:4486   */\n      tag_85\n      jump\t// in\n    tag_158:\n        /* \"#utility.yul\":4502:4573   */\n      tag_159\n        /* \"#utility.yul\":4566:4572   */\n      dup2\n        /* \"#utility.yul\":4561:4564   */\n      dup6\n        /* \"#utility.yul\":4502:4573   */\n      tag_86\n      jump\t// in\n    tag_159:\n        /* \"#utility.yul\":4495:4573   */\n      swap4\n      pop\n        /* \"#utility.yul\":4582:4647   */\n      tag_160\n        /* \"#utility.yul\":4640:4646   */\n      dup2\n        /* \"#utility.yul\":4635:4638   */\n      dup6\n        /* \"#utility.yul\":4628:4632   */\n      0x20\n        /* \"#utility.yul\":4621:4626   */\n      dup7\n        /* \"#utility.yul\":4617:4633   */\n      add\n        /* \"#utility.yul\":4582:4647   */\n      tag_87\n      jump\t// in\n    tag_160:\n        /* \"#utility.yul\":4672:4701   */\n      tag_161\n        /* \"#utility.yul\":4694:4700   */\n      dup2\n        /* \"#utility.yul\":4672:4701   */\n      tag_74\n      jump\t// in\n    tag_161:\n        /* \"#utility.yul\":4667:4670   */\n      dup5\n        /* \"#utility.yul\":4663:4702   */\n      add\n        /* \"#utility.yul\":4656:4702   */\n      swap2\n      pop\n        /* \"#utility.yul\":4423:4708   */\n      pop\n        /* \"#utility.yul\":4331:4708   */\n      swap3\n      swap2\n      pop\n      pop\n      jump\t// out\n        /* \"#utility.yul\":4714:4804   */\n    tag_89:\n        /* \"#utility.yul\":4748:4755   */\n      0x00\n        /* \"#utility.yul\":4791:4796   */\n      dup2\n        /* \"#utility.yul\":4784:4797   */\n      iszero\n        /* \"#utility.yul\":4777:4798   */\n      iszero\n        /* \"#utility.yul\":4766:4798   */\n      swap1\n      pop\n        /* \"#utility.yul\":4714:4804   */\n      swap2\n      swap1\n      pop\n      jump\t// out\n        /* \"#utility.yul\":4810:4919   */\n    tag_90:\n        /* \"#utility.yul\":4891:4912   */\n      tag_164\n        /* \"#utility.yul\":4906:4911   */\n      dup2\n        /* \"#utility.yul\":4891:4912   */\n      tag_89\n      jump\t// in\n    tag_164:\n        /* \"#utility.yul\":4886:4889   */\n      dup3\n        /* \"#utility.yul\":4879:4913   */\n      mstore\n        /* \"#utility.yul\":4810:4919   */\n      pop\n      pop\n      jump\t// out\n        /* \"#utility.yul\":4925:5336   */\n    tag_17:\n        /* \"#utility.yul\":5060:5064   */\n      0x00\n        /* \"#utility.yul\":5098:5100   */\n      0x40\n        /* \"#utility.yul\":5087:5096   */\n      dup3\n        /* \"#utility.yul\":5083:5101   */\n      add\n        /* \"#utility.yul\":5075:5101   */\n      swap1\n      pop\n        /* \"#utility.yul\":5147:5156   */\n      dup2\n        /* \"#utility.yul\":5141:5145   */\n      dup2\n        /* \"#utility.yul\":5137:5157   */\n      sub\n        /* \"#utility.yul\":5133:5134   */\n      0x00\n        /* \"#utility.yul\":5122:5131   */\n      dup4\n        /* \"#utility.yul\":5118:5135   */\n      add\n        /* \"#utility.yul\":5111:5158   */\n      mstore\n        /* \"#utility.yul\":5175:5253   */\n      tag_166\n        /* \"#utility.yul\":5248:5252   */\n      dup2\n        /* \"#utility.yul\":5239:5245   */\n      dup6\n        /* \"#utility.yul\":5175:5253   */\n      tag_88\n      jump\t// in\n    tag_166:\n        /* \"#utility.yul\":5167:5253   */\n      swap1\n      pop\n        /* \"#utility.yul\":5263:5329   */\n      tag_167\n        /* \"#utility.yul\":5325:5327   */\n      0x20\n        /* \"#utility.yul\":5314:5323   */\n      dup4\n        /* \"#utility.yul\":5310:5328   */\n      add\n        /* \"#utility.yul\":5301:5307   */\n      dup5\n        /* \"#utility.yul\":5263:5329   */\n      tag_90\n      jump\t// in\n    tag_167:\n        /* \"#utility.yul\":4925:5336   */\n      swap4\n      swap3\n      pop\n      pop\n      pop\n      jump\t// out\n        /* \"#utility.yul\":5342:5851   */\n    tag_23:\n        /* \"#utility.yul\":5411:5417   */\n      0x00\n        /* \"#utility.yul\":5460:5462   */\n      0x20\n        /* \"#utility.yul\":5448:5457   */\n      dup3\n        /* \"#utility.yul\":5439:5446   */\n      dup5\n        /* \"#utility.yul\":5435:5458   */\n      sub\n        /* \"#utility.yul\":5431:5463   */\n      slt\n        /* \"#utility.yul\":5428:5547   */\n      iszero\n      tag_169\n      jumpi\n        /* \"#utility.yul\":5466:5545   */\n      tag_170\n      tag_70\n      jump\t// in\n    tag_170:\n        /* \"#utility.yul\":5428:5547   */\n    tag_169:\n        /* \"#utility.yul\":5614:5615   */\n      0x00\n        /* \"#utility.yul\":5603:5612   */\n      dup3\n        /* \"#utility.yul\":5599:5616   */\n      add\n        /* \"#utility.yul\":5586:5617   */\n      calldataload\n        /* \"#utility.yul\":5644:5662   */\n      0xffffffffffffffff\n        /* \"#utility.yul\":5636:5642   */\n      dup2\n        /* \"#utility.yul\":5633:5663   */\n      gt\n        /* \"#utility.yul\":5630:5747   */\n      iszero\n      tag_171\n      jumpi\n        /* \"#utility.yul\":5666:5745   */\n      tag_172\n      tag_71\n      jump\t// in\n    tag_172:\n        /* \"#utility.yul\":5630:5747   */\n    tag_171:\n        /* \"#utility.yul\":5771:5834   */\n      tag_173\n        /* \"#utility.yul\":5826:5833   */\n      dup5\n        /* \"#utility.yul\":5817:5823   */\n      dup3\n        /* \"#utility.yul\":5806:5815   */\n      dup6\n        /* \"#utility.yul\":5802:5824   */\n      add\n        /* \"#utility.yul\":5771:5834   */\n      tag_81\n      jump\t// in\n    tag_173:\n        /* \"#utility.yul\":5761:5834   */\n      swap2\n      pop\n        /* \"#utility.yul\":5557:5844   */\n      pop\n        /* \"#utility.yul\":5342:5851   */\n      swap3\n      swap2\n      pop\n      pop\n      jump\t// out\n        /* \"#utility.yul\":5857:6037   */\n    tag_32:\n        /* \"#utility.yul\":5905:5982   */\n      0x4e487b7100000000000000000000000000000000000000000000000000000000\n        /* \"#utility.yul\":5902:5903   */\n      0x00\n        /* \"#utility.yul\":5895:5983   */\n      mstore\n        /* \"#utility.yul\":6002:6006   */\n      0x32\n        /* \"#utility.yul\":5999:6000   */\n      0x04\n        /* \"#utility.yul\":5992:6007   */\n      mstore\n        /* \"#utility.yul\":6026:6030   */\n      0x24\n        /* \"#utility.yul\":6023:6024   */\n      0x00\n        /* \"#utility.yul\":6016:6031   */\n      revert\n        /* \"#utility.yul\":6043:6223   */\n    tag_91:\n        /* \"#utility.yul\":6091:6168   */\n      0x4e487b7100000000000000000000000000000000000000000000000000000000\n        /* \"#utility.yul\":6088:6089   */\n      0x00\n        /* \"#utility.yul\":6081:6169   */\n      mstore\n        /* \"#utility.yul\":6188:6192   */\n      0x22\n        /* \"#utility.yul\":6185:6186   */\n      0x04\n        /* \"#utility.yul\":6178:6193   */\n      mstore\n        /* \"#utility.yul\":6212:6216   */\n      0x24\n        /* \"#utility.yul\":6209:6210   */\n      0x00\n        /* \"#utility.yul\":6202:6217   */\n      revert\n        /* \"#utility.yul\":6229:6549   */\n    tag_35:\n        /* \"#utility.yul\":6273:6279   */\n      0x00\n        /* \"#utility.yul\":6310:6311   */\n      0x02\n        /* \"#utility.yul\":6304:6308   */\n      dup3\n        /* \"#utility.yul\":6300:6312   */\n      div\n        /* \"#utility.yul\":6290:6312   */\n      swap1\n      pop\n        /* \"#utility.yul\":6357:6358   */\n      0x01\n        /* \"#utility.yul\":6351:6355   */\n      dup3\n        /* \"#utility.yul\":6347:6359   */\n      and\n        /* \"#utility.yul\":6378:6396   */\n      dup1\n        /* \"#utility.yul\":6368:6449   */\n      tag_177\n      jumpi\n        /* \"#utility.yul\":6434:6438   */\n      0x7f\n        /* \"#utility.yul\":6426:6432   */\n      dup3\n        /* \"#utility.yul\":6422:6439   */\n      and\n        /* \"#utility.yul\":6412:6439   */\n      swap2\n      pop\n        /* \"#utility.yul\":6368:6449   */\n    tag_177:\n        /* \"#utility.yul\":6496:6498   */\n      0x20\n        /* \"#utility.yul\":6488:6494   */\n      dup3\n        /* \"#utility.yul\":6485:6499   */\n      lt\n        /* \"#utility.yul\":6465:6483   */\n      dup2\n        /* \"#utility.yul\":6462:6500   */\n      sub\n        /* \"#utility.yul\":6459:6543   */\n      tag_178\n      jumpi\n        /* \"#utility.yul\":6515:6533   */\n      tag_179\n      tag_91\n      jump\t// in\n    tag_179:\n        /* \"#utility.yul\":6459:6543   */\n    tag_178:\n        /* \"#utility.yul\":6280:6549   */\n      pop\n        /* \"#utility.yul\":6229:6549   */\n      swap2\n      swap1\n      pop\n      jump\t// out\n        /* \"#utility.yul\":6555:6696   */\n    tag_92:\n        /* \"#utility.yul\":6604:6608   */\n      0x00\n        /* \"#utility.yul\":6627:6630   */\n      dup2\n        /* \"#utility.yul\":6619:6630   */\n      swap1\n      pop\n        /* \"#utility.yul\":6650:6653   */\n      dup2\n        /* \"#utility.yul\":6647:6648   */\n      0x00\n        /* \"#utility.yul\":6640:6654   */\n      mstore\n        /* \"#utility.yul\":6684:6688   */\n      0x20\n        /* \"#utility.yul\":6681:6682   */\n      0x00\n        /* \"#utility.yul\":6671:6689   */\n      keccak256\n        /* \"#utility.yul\":6663:6689   */\n      swap1\n      pop\n        /* \"#utility.yul\":6555:6696   */\n      swap2\n      swap1\n      pop\n      jump\t// out\n        /* \"#utility.yul\":6702:6795   */\n    tag_93:\n        /* \"#utility.yul\":6739:6745   */\n      0x00\n        /* \"#utility.yul\":6786:6788   */\n      0x20\n        /* \"#utility.yul\":6781:6783   */\n      0x1f\n        /* \"#utility.yul\":6774:6779   */\n      dup4\n        /* \"#utility.yul\":6770:6784   */\n      add\n        /* \"#utility.yul\":6766:6789   */\n      div\n        /* \"#utility.yul\":6756:6789   */\n      swap1\n      pop\n        /* \"#utility.yul\":6702:6795   */\n      swap2\n      swap1\n      pop\n      jump\t// out\n        /* \"#utility.yul\":6801:6908   */\n    tag_94:\n        /* \"#utility.yul\":6845:6853   */\n      0x00\n        /* \"#utility.yul\":6895:6900   */\n      dup3\n        /* \"#utility.yul\":6889:6893   */\n      dup3\n        /* \"#utility.yul\":6885:6901   */\n      shl\n        /* \"#utility.yul\":6864:6901   */\n      swap1\n      pop\n        /* \"#utility.yul\":6801:6908   */\n      swap3\n      swap2\n      pop\n      pop\n      jump\t// out\n        /* \"#utility.yul\":6914:7307   */\n    tag_95:\n        /* \"#utility.yul\":6983:6989   */\n      0x00\n        /* \"#utility.yul\":7033:7034   */\n      0x08\n        /* \"#utility.yul\":7021:7031   */\n      dup4\n        /* \"#utility.yul\":7017:7035   */\n      mul\n        /* \"#utility.yul\":7056:7153   */\n      tag_184\n        /* \"#utility.yul\":7086:7152   */\n      0xffffffffffffffffffffffffffffffffffffffffffffffffffffffffffffffff\n        /* \"#utility.yul\":7075:7084   */\n      dup3\n        /* \"#utility.yul\":7056:7153   */\n      tag_94\n      jump\t// in\n    tag_184:\n        /* \"#utility.yul\":7174:7213   */\n      tag_185\n        /* \"#utility.yul\":7204:7212   */\n      dup7\n        /* \"#utility.yul\":7193:7202   */\n      dup4\n        /* \"#utility.yul\":7174:7213   */\n      tag_94\n      jump\t// in\n    tag_185:\n        /* \"#utility.yul\":7162:7213   */\n      swap6\n      pop\n        /* \"#utility.yul\":7246:7250   */\n      dup1\n        /* \"#utility.yul\":7242:7251   */\n      not\n        /* \"#utility.yul\":7235:7240   */\n      dup5\n        /* \"#utility.yul\":7231:7252   */\n      and\n        /* \"#utility.yul\":7222:7252   */\n      swap4\n      pop\n        /* \"#utility.yul\":7295:7299   */\n      dup1\n        /* \"#utility.yul\":7285:7293   */\n      dup7\n        /* \"#utility.yul\":7281:7300   */\n      and\n        /* \"#utility.yul\":7274:7279   */\n      dup5\n        /* \"#utility.yul\":7271:7301   */\n      or\n        /* \"#utility.yul\":7261:7301   */\n      swap3\n      pop\n        /* \"#utility.yul\":6990:7307   */\n      pop\n      pop\n        /* \"#utility.yul\":6914:7307   */\n      swap4\n      swap3\n      pop\n      pop\n      pop\n      jump\t// out\n        /* \"#utility.yul\":7313:7373   */\n    tag_96:\n        /* \"#utility.yul\":7341:7344   */\n      0x00\n        /* \"#utility.yul\":7362:7367   */\n      dup2\n        /* \"#utility.yul\":7355:7367   */\n      swap1\n      pop\n        /* \"#utility.yul\":7313:7373   */\n      swap2\n      swap1\n      pop\n      jump\t// out\n        /* \"#utility.yul\":7379:7521   */\n    tag_97:\n        /* \"#utility.yul\":7429:7438   */\n      0x00\n        /* \"#utility.yul\":7462:7515   */\n      tag_188\n        /* \"#utility.yul\":7480:7514   */\n      tag_189\n        /* \"#utility.yul\":7489:7513   */\n      tag_190\n        /* \"#utility.yul\":7507:7512   */\n      dup5\n        /* \"#utility.yul\":7489:7513   */\n      tag_82\n      jump\t// in\n    tag_190:\n        /* \"#utility.yul\":7480:7514   */\n      tag_96\n      jump\t// in\n    tag_189:\n        /* \"#utility.yul\":7462:7515   */\n      tag_82\n      jump\t// in\n    tag_188:\n        /* \"#utility.yul\":7449:7515   */\n      swap1\n      pop\n        /* \"#utility.yul\":7379:7521   */\n      swap2\n      swap1\n      pop\n      jump\t// out\n        /* \"#utility.yul\":7527:7602   */\n    tag_98:\n        /* \"#utility.yul\":7570:7573   */\n      0x00\n        /* \"#utility.yul\":7591:7596   */\n      dup2\n        /* \"#utility.yul\":7584:7596   */\n      swap1\n      pop\n        /* \"#utility.yul\":7527:7602   */\n      swap2\n      swap1\n      pop\n      jump\t// out\n        /* \"#utility.yul\":7608:7877   */\n    tag_99:\n        /* \"#utility.yul\":7718:7757   */\n      tag_193\n        /* \"#utility.yul\":7749:7756   */\n      dup4\n        /* \"#utility.yul\":7718:7757   */\n      tag_97\n      jump\t// in\n    tag_193:\n        /* \"#utility.yul\":7779:7870   */\n      tag_194\n        /* \"#utility.yul\":7828:7869   */\n      tag_195\n        /* \"#utility.yul\":7852:7868   */\n      dup3\n        /* \"#utility.yul\":7828:7869   */\n      tag_98\n      jump\t// in\n    tag_195:\n        /* \"#utility.yul\":7820:7826   */\n      dup5\n        /* \"#utility.yul\":7813:7817   */\n      dup5\n        /* \"#utility.yul\":7807:7818   */\n      sload\n        /* \"#utility.yul\":7779:7870   */\n      tag_95\n      jump\t// in\n    tag_194:\n        /* \"#utility.yul\":7773:7777   */\n      dup3\n        /* \"#utility.yul\":7766:7871   */\n      sstore\n        /* \"#utility.yul\":7684:7877   */\n      pop\n        /* \"#utility.yul\":7608:7877   */\n      pop\n      pop\n      pop\n      jump\t// out\n        /* \"#utility.yul\":7883:7956   */\n    tag_100:\n        /* \"#utility.yul\":7928:7931   */\n      0x00\n        /* \"#utility.yul\":7883:7956   */\n      swap1\n      jump\t// out\n        /* \"#utility.yul\":7962:8151   */\n    tag_101:\n        /* \"#utility.yul\":8039:8071   */\n      tag_198\n      tag_100\n      jump\t// in\n    tag_198:\n        /* \"#utility.yul\":8080:8145   */\n      tag_199\n        /* \"#utility.yul\":8138:8144   */\n      dup2\n        /* \"#utility.yul\":8130:8136   */\n      dup5\n        /* \"#utility.yul\":8124:8128   */\n      dup5\n        /* \"#utility.yul\":8080:8145   */\n      tag_99\n      jump\t// in\n    tag_199:\n        /* \"#utility.yul\":8015:8151   */\n      pop\n        /* \"#utility.yul\":7962:8151   */\n      pop\n      pop\n      jump\t// out\n        /* \"#utility.yul\":8157:8343   */\n    tag_102:\n        /* \"#utility.yul\":8217:8337   */\n    tag_201:\n        /* \"#utility.yul\":8234:8237   */\n      dup2\n        /* \"#utility.yul\":8227:8232   */\n      dup2\n        /* \"#utility.yul\":8224:8238   */\n      lt\n        /* \"#utility.yul\":8217:8337   */\n      iszero\n      tag_203\n      jumpi\n        /* \"#utility.yul\":8288:8327   */\n      tag_204\n        /* \"#utility.yul\":8325:8326   */\n      0x00\n        /* \"#utility.yul\":8318:8323   */\n      dup3\n        /* \"#utility.yul\":8288:8327   */\n      tag_101\n      jump\t// in\n    tag_204:\n        /* \"#utility.yul\":8261:8262   */\n      0x01\n        /* \"#utility.yul\":8254:8259   */\n      dup2\n        /* \"#utility.yul\":8250:8263   */\n      add\n        /* \"#utility.yul\":8241:8263   */\n      swap1\n      pop\n        /* \"#utility.yul\":8217:8337   */\n      jump(tag_201)\n    tag_203:\n        /* \"#utility.yul\":8157:8343   */\n      pop\n      pop\n      jump\t// out\n        /* \"#utility.yul\":8349:8892   */\n    tag_103:\n        /* \"#utility.yul\":8450:8452   */\n      0x1f\n        /* \"#utility.yul\":8445:8448   */\n      dup3\n        /* \"#utility.yul\":8442:8453   */\n      gt\n        /* \"#utility.yul\":8439:8885   */\n      iszero\n      tag_206\n      jumpi\n        /* \"#utility.yul\":8484:8522   */\n      tag_207\n        /* \"#utility.yul\":8516:8521   */\n      dup2\n        /* \"#utility.yul\":8484:8522   */\n      tag_92\n      jump\t// in\n    tag_207:\n        /* \"#utility.yul\":8568:8597   */\n      tag_208\n        /* \"#utility.yul\":8586:8596   */\n      dup5\n        /* \"#utility.yul\":8568:8597   */\n      tag_93\n      jump\t// in\n    tag_208:\n        /* \"#utility.yul\":8558:8566   */\n      dup2\n        /* \"#utility.yul\":8554:8598   */\n      add\n        /* \"#utility.yul\":8751:8753   */\n      0x20\n        /* \"#utility.yul\":8739:8749   */\n      dup6\n        /* \"#utility.yul\":8736:8754   */\n      lt\n        /* \"#utility.yul\":8733:8782   */\n      iszero\n      tag_209\n      jumpi\n        /* \"#utility.yul\":8772:8780   */\n      dup2\n        /* \"#utility.yul\":8757:8780   */\n      swap1\n      pop\n        /* \"#utility.yul\":8733:8782   */\n    tag_209:\n        /* \"#utility.yul\":8795:8875   */\n      tag_210\n        /* \"#utility.yul\":8851:8873   */\n      tag_211\n        /* \"#utility.yul\":8869:8872   */\n      dup6\n        /* \"#utility.yul\":8851:8873   */\n      tag_93\n      jump\t// in\n    tag_211:\n        /* \"#utility.yul\":8841:8849   */\n      dup4\n        /* \"#utility.yul\":8837:8874   */\n      add\n        /* \"#utility.yul\":8824:8835   */\n      dup3\n        /* \"#utility.yul\":8795:8875   */\n      tag_102\n      jump\t// in\n    tag_210:\n        /* \"#utility.yul\":8454:8885   */\n      pop\n      pop\n        /* \"#utility.yul\":8439:8885   */\n    tag_206:\n        /* \"#utility.yul\":8349:8892   */\n      pop\n      pop\n      pop\n      jump\t// out\n        /* \"#utility.yul\":8898:9015   */\n    tag_104:\n        /* \"#utility.yul\":8952:8960   */\n      0x00\n        /* \"#utility.yul\":9002:9007   */\n      dup3\n        /* \"#utility.yul\":8996:9000   */\n      dup3\n        /* \"#utility.yul\":8992:9008   */\n      shr\n        /* \"#utility.yul\":8971:9008   */\n      swap1\n      pop\n        /* \"#utility.yul\":8898:9015   */\n      swap3\n      swap2\n      pop\n      pop\n      jump\t// out\n        /* \"#utility.yul\":9021:9190   */\n    tag_105:\n        /* \"#utility.yul\":9065:9071   */\n      0x00\n        /* \"#utility.yul\":9098:9149   */\n      tag_214\n        /* \"#utility.yul\":9146:9147   */\n      0x00\n        /* \"#utility.yul\":9142:9148   */\n      not\n        /* \"#utility.yul\":9134:9139   */\n      dup5\n        /* \"#utility.yul\":9131:9132   */\n      0x08\n        /* \"#utility.yul\":9127:9140   */\n      mul\n        /* \"#utility.yul\":9098:9149   */\n      tag_104\n      jump\t// in\n    tag_214:\n        /* \"#utility.yul\":9094:9150   */\n      not\n        /* \"#utility.yul\":9179:9183   */\n      dup1\n        /* \"#utility.yul\":9173:9177   */\n      dup4\n        /* \"#utility.yul\":9169:9184   */\n      and\n        /* \"#utility.yul\":9159:9184   */\n      swap2\n      pop\n        /* \"#utility.yul\":9072:9190   */\n      pop\n        /* \"#utility.yul\":9021:9190   */\n      swap3\n      swap2\n      pop\n      pop\n      jump\t// out\n        /* \"#utility.yul\":9195:9490   */\n    tag_106:\n        /* \"#utility.yul\":9271:9275   */\n      0x00\n        /* \"#utility.yul\":9417:9446   */\n      tag_216\n        /* \"#utility.yul\":9442:9445   */\n      dup4\n        /* \"#utility.yul\":9436:9440   */\n      dup4\n        /* \"#utility.yul\":9417:9446   */\n      tag_105\n      jump\t// in\n    tag_216:\n        /* \"#utility.yul\":9409:9446   */\n      swap2\n      pop\n        /* \"#utility.yul\":9479:9482   */\n      dup3\n        /* \"#utility.yul\":9476:9477   */\n      0x02\n        /* \"#utility.yul\":9472:9483   */\n      mul\n        /* \"#utility.yul\":9466:9470   */\n      dup3\n        /* \"#utility.yul\":9463:9484   */\n      or\n        /* \"#utility.yul\":9455:9484   */\n      swap1\n      pop\n        /* \"#utility.yul\":9195:9490   */\n      swap3\n      swap2\n      pop\n      pop\n      jump\t// out\n        /* \"#utility.yul\":9495:10890   */\n    tag_59:\n        /* \"#utility.yul\":9612:9649   */\n      tag_218\n        /* \"#utility.yul\":9645:9648   */\n      dup3\n        /* \"#utility.yul\":9612:9649   */\n      tag_85\n      jump\t// in\n    tag_218:\n        /* \"#utility.yul\":9714:9732   */\n      0xffffffffffffffff\n        /* \"#utility.yul\":9706:9712   */\n      dup2\n        /* \"#utility.yul\":9703:9733   */\n      gt\n        /* \"#utility.yul\":9700:9756   */\n      iszero\n      tag_219\n      jumpi\n        /* \"#utility.yul\":9736:9754   */\n      tag_220\n      tag_75\n      jump\t// in\n    tag_220:\n        /* \"#utility.yul\":9700:9756   */\n    tag_219:\n        /* \"#utility.yul\":9780:9818   */\n      tag_221\n        /* \"#utility.yul\":9812:9816   */\n      dup3\n        /* \"#utility.yul\":9806:9817   */\n      sload\n        /* \"#utility.yul\":9780:9818   */\n      tag_35\n      jump\t// in\n    tag_221:\n        /* \"#utility.yul\":9865:9932   */\n      tag_222\n        /* \"#utility.yul\":9925:9931   */\n      dup3\n        /* \"#utility.yul\":9917:9923   */\n      dup3\n        /* \"#utility.yul\":9911:9915   */\n      dup6\n        /* \"#utility.yul\":9865:9932   */\n      tag_103\n      jump\t// in\n    tag_222:\n        /* \"#utility.yul\":9959:9960   */\n      0x00\n        /* \"#utility.yul\":9983:9987   */\n      0x20\n        /* \"#utility.yul\":9970:9987   */\n      swap1\n      pop\n        /* \"#utility.yul\":10015:10017   */\n      0x1f\n        /* \"#utility.yul\":10007:10013   */\n      dup4\n        /* \"#utility.yul\":10004:10018   */\n      gt\n        /* \"#utility.yul\":10032:10033   */\n      0x01\n        /* \"#utility.yul\":10027:10645   */\n      dup2\n      eq\n      tag_224\n      jumpi\n        /* \"#utility.yul\":10689:10690   */\n      0x00\n        /* \"#utility.yul\":10706:10712   */\n      dup5\n        /* \"#utility.yul\":10703:10780   */\n      iszero\n      tag_225\n      jumpi\n        /* \"#utility.yul\":10755:10764   */\n      dup3\n        /* \"#utility.yul\":10750:10753   */\n      dup8\n        /* \"#utility.yul\":10746:10765   */\n      add\n        /* \"#utility.yul\":10740:10766   */\n      mload\n        /* \"#utility.yul\":10731:10766   */\n      swap1\n      pop\n        /* \"#utility.yul\":10703:10780   */\n    tag_225:\n        /* \"#utility.yul\":10806:10873   */\n      tag_226\n        /* \"#utility.yul\":10866:10872   */\n      dup6\n        /* \"#utility.yul\":10859:10864   */\n      dup3\n        /* \"#utility.yul\":10806:10873   */\n      tag_106\n      jump\t// in\n    tag_226:\n        /* \"#utility.yul\":10800:10804   */\n      dup7\n        /* \"#utility.yul\":10793:10874   */\n      sstore\n        /* \"#utility.yul\":10662:10884   */\n      pop\n        /* \"#utility.yul\":9997:10884   */\n      jump(tag_223)\n        /* \"#utility.yul\":10027:10645   */\n    tag_224:\n        /* \"#utility.yul\":10079:10083   */\n      0x1f\n        /* \"#utility.yul\":10075:10084   */\n      not\n        /* \"#utility.yul\":10067:10073   */\n      dup5\n        /* \"#utility.yul\":10063:10085   */\n      and\n        /* \"#utility.yul\":10113:10150   */\n      tag_227\n        /* \"#utility.yul\":10145:10149   */\n      dup7\n        /* \"#utility.yul\":10113:10150   */\n      tag_92\n      jump\t// in\n    tag_227:\n        /* \"#utility.yul\":10172:10173   */\n      0x00\n        /* \"#utility.yul\":10186:10394   */\n    tag_228:\n        /* \"#utility.yul\":10200:10207   */\n      dup3\n        /* \"#utility.yul\":10197:10198   */\n      dup2\n        /* \"#utility.yul\":10194:10208   */\n      lt\n        /* \"#utility.yul\":10186:10394   */\n      iszero\n      tag_230\n      jumpi\n        /* \"#utility.yul\":10279:10288   */\n      dup5\n        /* \"#utility.yul\":10274:10277   */\n      dup10\n        /* \"#utility.yul\":10270:10289   */\n      add\n        /* \"#utility.yul\":10264:10290   */\n      mload\n        /* \"#utility.yul\":10256:10262   */\n      dup3\n        /* \"#utility.yul\":10249:10291   */\n      sstore\n        /* \"#utility.yul\":10330:10331   */\n      0x01\n        /* \"#utility.yul\":10322:10328   */\n      dup3\n        /* \"#utility.yul\":10318:10332   */\n      add\n        /* \"#utility.yul\":10308:10332   */\n      swap2\n      pop\n        /* \"#utility.yul\":10377:10379   */\n      0x20\n        /* \"#utility.yul\":10366:10375   */\n      dup6\n        /* \"#utility.yul\":10362:10380   */\n      add\n        /* \"#utility.yul\":10349:10380   */\n      swap5\n      pop\n        /* \"#utility.yul\":10223:10227   */\n      0x20\n        /* \"#utility.yul\":10220:10221   */\n      dup2\n        /* \"#utility.yul\":10216:10228   */\n      add\n        /* \"#utility.yul\":10211:10228   */\n      swap1\n      pop\n        /* \"#utility.yul\":10186:10394   */\n      jump(tag_228)\n    tag_230:\n        /* \"#utility.yul\":10422:10428   */\n      dup7\n        /* \"#utility.yul\":10413:10420   */\n      dup4\n        /* \"#utility.yul\":10410:10429   */\n      lt\n        /* \"#utility.yul\":10407:10586   */\n      iszero\n      tag_231\n      jumpi\n        /* \"#utility.yul\":10480:10489   */\n      dup5\n        /* \"#utility.yul\":10475:10478   */\n      dup10\n        /* \"#utility.yul\":10471:10490   */\n      add\n        /* \"#utility.yul\":10465:10491   */\n      mload\n        /* \"#utility.yul\":10523:10571   */\n      tag_232\n        /* \"#utility.yul\":10565:10569   */\n      0x1f\n        /* \"#utility.yul\":10557:10563   */\n      dup10\n        /* \"#utility.yul\":10553:10570   */\n      and\n        /* \"#utility.yul\":10542:10551   */\n      dup3\n        /* \"#utility.yul\":10523:10571   */\n      tag_105\n      jump\t// in\n    tag_232:\n        /* \"#utility.yul\":10515:10521   */\n      dup4\n        /* \"#utility.yul\":10508:10572   */\n      sstore\n        /* \"#utility.yul\":10430:10586   */\n      pop\n        /* \"#utility.yul\":10407:10586   */\n    tag_231:\n        /* \"#utility.yul\":10632:10633   */\n      0x01\n        /* \"#utility.yul\":10628:10629   */\n      0x02\n        /* \"#utility.yul\":10620:10626   */\n      dup9\n        /* \"#utility.yul\":10616:10630   */\n      mul\n        /* \"#utility.yul\":10612:10634   */\n      add\n        /* \"#utility.yul\":10606:10610   */\n      dup9\n        /* \"#utility.yul\":10599:10635   */\n      sstore\n        /* \"#utility.yul\":10034:10645   */\n      pop\n      pop\n      pop\n        /* \"#utility.yul\":9997:10884   */\n    tag_223:\n      pop\n        /* \"#utility.yul\":9587:10890   */\n      pop\n      pop\n      pop\n        /* \"#utility.yul\":9495:10890   */\n      pop\n      pop\n      jump\t// out\n\n    auxdata: 0xa2646970667358221220109a679c883ab7bfab0201fd2005bc8429bb087039e72050b7646714f4dcf96464736f6c634300081a0033\n}\n",
				"bytecode": {
					"linkReferences": {},
					"object": "6080604052348015600e575f80fd5b50610b1c8061001c5f395ff3fe608060405234801561000f575f80fd5b5060043610610055575f3560e01c806321d68ccb146100595780633d4d36001461007557806372c2a7b0146100a657806395ffebf5146100c2578063dd68afb6146100de575b5f80fd5b610073600480360381019061006e919061067c565b61010f565b005b61008f600480360381019061008a91906106d6565b6101f2565b60405161009d92919061077b565b60405180910390f35b6100c060048036038101906100bb91906106d6565b6102b2565b005b6100dc60048036038101906100d791906107a9565b61039a565b005b6100f860048036038101906100f391906106d6565b610410565b60405161010692919061077b565b60405180910390f35b5f808281548110610123576101226107f0565b5b905f5260205f2090600202016040518060400160405290815f820180546101499061084a565b80601f01602080910402602001604051908101604052809291908181526020018280546101759061084a565b80156101c05780601f10610197576101008083540402835291602001916101c0565b820191905f5260205f20905b8154815290600101906020018083116101a357829003601f168201915b50505050508152602001600182015f9054906101000a900460ff161515151581525050905082815f0181905250505050565b5f8181548110610200575f80fd5b905f5260205f2090600202015f91509050805f01805461021f9061084a565b80601f016020809104026020016040519081016040528092919081815260200182805461024b9061084a565b80156102965780601f1061026d57610100808354040283529160200191610296565b820191905f5260205f20905b81548152906001019060200180831161027957829003601f168201915b505050505090806001015f9054906101000a900460ff16905082565b5f8082815481106102c6576102c56107f0565b5b905f5260205f2090600202016040518060400160405290815f820180546102ec9061084a565b80601f01602080910402602001604051908101604052809291908181526020018280546103189061084a565b80156103635780601f1061033a57610100808354040283529160200191610363565b820191905f5260205f20905b81548152906001019060200180831161034657829003601f168201915b50505050508152602001600182015f9054906101000a900460ff161515151581525050905080602001511515816020015150505050565b5f60405180604001604052808381526020015f1515815250908060018154018082558091505060019003905f5260205f2090600202015f909190919091505f820151815f0190816103eb9190610a17565b506020820151816001015f6101000a81548160ff021916908315150217905550505050565b60605f805f8481548110610427576104266107f0565b5b905f5260205f2090600202016040518060400160405290815f8201805461044d9061084a565b80601f01602080910402602001604051908101604052809291908181526020018280546104799061084a565b80156104c45780601f1061049b576101008083540402835291602001916104c4565b820191905f5260205f20905b8154815290600101906020018083116104a757829003601f168201915b50505050508152602001600182015f9054906101000a900460ff1615151515815250509050805f015181602001519250925050915091565b5f604051905090565b5f80fd5b5f80fd5b5f80fd5b5f80fd5b5f601f19601f8301169050919050565b7f4e487b71000000000000000000000000000000000000000000000000000000005f52604160045260245ffd5b61055b82610515565b810181811067ffffffffffffffff8211171561057a57610579610525565b5b80604052505050565b5f61058c6104fc565b90506105988282610552565b919050565b5f67ffffffffffffffff8211156105b7576105b6610525565b5b6105c082610515565b9050602081019050919050565b828183375f83830152505050565b5f6105ed6105e88461059d565b610583565b90508281526020810184848401111561060957610608610511565b5b6106148482856105cd565b509392505050565b5f82601f8301126106305761062f61050d565b5b81356106408482602086016105db565b91505092915050565b5f819050919050565b61065b81610649565b8114610665575f80fd5b50565b5f8135905061067681610652565b92915050565b5f806040838503121561069257610691610505565b5b5f83013567ffffffffffffffff8111156106af576106ae610509565b5b6106bb8582860161061c565b92505060206106cc85828601610668565b9150509250929050565b5f602082840312156106eb576106ea610505565b5b5f6106f884828501610668565b91505092915050565b5f81519050919050565b5f82825260208201905092915050565b8281835e5f83830152505050565b5f61073382610701565b61073d818561070b565b935061074d81856020860161071b565b61075681610515565b840191505092915050565b5f8115159050919050565b61077581610761565b82525050565b5f6040820190508181035f8301526107938185610729565b90506107a2602083018461076c565b9392505050565b5f602082840312156107be576107bd610505565b5b5f82013567ffffffffffffffff8111156107db576107da610509565b5b6107e78482850161061c565b91505092915050565b7f4e487b71000000000000000000000000000000000000000000000000000000005f52603260045260245ffd5b7f4e487b71000000000000000000000000000000000000000000000000000000005f52602260045260245ffd5b5f600282049050600182168061086157607f821691505b6020821081036108745761087361081d565b5b50919050565b5f819050815f5260205f209050919050565b5f6020601f8301049050919050565b5f82821b905092915050565b5f600883026108d67fffffffffffffffffffffffffffffffffffffffffffffffffffffffffffffffff8261089b565b6108e0868361089b565b95508019841693508086168417925050509392505050565b5f819050919050565b5f61091b61091661091184610649565b6108f8565b610649565b9050919050565b5f819050919050565b61093483610901565b61094861094082610922565b8484546108a7565b825550505050565b5f90565b61095c610950565b61096781848461092b565b505050565b5b8181101561098a5761097f5f82610954565b60018101905061096d565b5050565b601f8211156109cf576109a08161087a565b6109a98461088c565b810160208510156109b8578190505b6109cc6109c48561088c565b83018261096c565b50505b505050565b5f82821c905092915050565b5f6109ef5f19846008026109d4565b1980831691505092915050565b5f610a0783836109e0565b9150826002028217905092915050565b610a2082610701565b67ffffffffffffffff811115610a3957610a38610525565b5b610a43825461084a565b610a4e82828561098e565b5f60209050601f831160018114610a7f575f8415610a6d578287015190505b610a7785826109fc565b865550610ade565b601f198416610a8d8661087a565b5f5b82811015610ab457848901518255600182019150602085019450602081019050610a8f565b86831015610ad15784890151610acd601f8916826109e0565b8355505b6001600288020188555050505b50505050505056fea2646970667358221220109a679c883ab7bfab0201fd2005bc8429bb087039e72050b7646714f4dcf96464736f6c634300081a0033",
					"opcodes": "PUSH1 0x80 PUSH1 0x40 MSTORE CALLVALUE DUP1 ISZERO PUSH1 0xE JUMPI PUSH0 DUP1 REVERT JUMPDEST POP PUSH2 0xB1C DUP1 PUSH2 0x1C PUSH0 CODECOPY PUSH0 RETURN INVALID PUSH1 0x80 PUSH1 0x40 MSTORE CALLVALUE DUP1 ISZERO PUSH2 0xF JUMPI PUSH0 DUP1 REVERT JUMPDEST POP PUSH1 0x4 CALLDATASIZE LT PUSH2 0x55 JUMPI PUSH0 CALLDATALOAD PUSH1 0xE0 SHR DUP1 PUSH4 0x21D68CCB EQ PUSH2 0x59 JUMPI DUP1 PUSH4 0x3D4D3600 EQ PUSH2 0x75 JUMPI DUP1 PUSH4 0x72C2A7B0 EQ PUSH2 0xA6 JUMPI DUP1 PUSH4 0x95FFEBF5 EQ PUSH2 0xC2 JUMPI DUP1 PUSH4 0xDD68AFB6 EQ PUSH2 0xDE JUMPI JUMPDEST PUSH0 DUP1 REVERT JUMPDEST PUSH2 0x73 PUSH1 0x4 DUP1 CALLDATASIZE SUB DUP2 ADD SWAP1 PUSH2 0x6E SWAP2 SWAP1 PUSH2 0x67C JUMP JUMPDEST PUSH2 0x10F JUMP JUMPDEST STOP JUMPDEST PUSH2 0x8F PUSH1 0x4 DUP1 CALLDATASIZE SUB DUP2 ADD SWAP1 PUSH2 0x8A SWAP2 SWAP1 PUSH2 0x6D6 JUMP JUMPDEST PUSH2 0x1F2 JUMP JUMPDEST PUSH1 0x40 MLOAD PUSH2 0x9D SWAP3 SWAP2 SWAP1 PUSH2 0x77B JUMP JUMPDEST PUSH1 0x40 MLOAD DUP1 SWAP2 SUB SWAP1 RETURN JUMPDEST PUSH2 0xC0 PUSH1 0x4 DUP1 CALLDATASIZE SUB DUP2 ADD SWAP1 PUSH2 0xBB SWAP2 SWAP1 PUSH2 0x6D6 JUMP JUMPDEST PUSH2 0x2B2 JUMP JUMPDEST STOP JUMPDEST PUSH2 0xDC PUSH1 0x4 DUP1 CALLDATASIZE SUB DUP2 ADD SWAP1 PUSH2 0xD7 SWAP2 SWAP1 PUSH2 0x7A9 JUMP JUMPDEST PUSH2 0x39A JUMP JUMPDEST STOP JUMPDEST PUSH2 0xF8 PUSH1 0x4 DUP1 CALLDATASIZE SUB DUP2 ADD SWAP1 PUSH2 0xF3 SWAP2 SWAP1 PUSH2 0x6D6 JUMP JUMPDEST PUSH2 0x410 JUMP JUMPDEST PUSH1 0x40 MLOAD PUSH2 0x106 SWAP3 SWAP2 SWAP1 PUSH2 0x77B JUMP JUMPDEST PUSH1 0x40 MLOAD DUP1 SWAP2 SUB SWAP1 RETURN JUMPDEST PUSH0 DUP1 DUP3 DUP2 SLOAD DUP2 LT PUSH2 0x123 JUMPI PUSH2 0x122 PUSH2 0x7F0 JUMP JUMPDEST JUMPDEST SWAP1 PUSH0 MSTORE PUSH1 0x20 PUSH0 KECCAK256 SWAP1 PUSH1 0x2 MUL ADD PUSH1 0x40 MLOAD DUP1 PUSH1 0x40 ADD PUSH1 0x40 MSTORE SWAP1 DUP2 PUSH0 DUP3 ADD DUP1 SLOAD PUSH2 0x149 SWAP1 PUSH2 0x84A JUMP JUMPDEST DUP1 PUSH1 0x1F ADD PUSH1 0x20 DUP1 SWAP2 DIV MUL PUSH1 0x20 ADD PUSH1 0x40 MLOAD SWAP1 DUP2 ADD PUSH1 0x40 MSTORE DUP1 SWAP3 SWAP2 SWAP1 DUP2 DUP2 MSTORE PUSH1 0x20 ADD DUP3 DUP1 SLOAD PUSH2 0x175 SWAP1 PUSH2 0x84A JUMP JUMPDEST DUP1 ISZERO PUSH2 0x1C0 JUMPI DUP1 PUSH1 0x1F LT PUSH2 0x197 JUMPI PUSH2 0x100 DUP1 DUP4 SLOAD DIV MUL DUP4 MSTORE SWAP2 PUSH1 0x20 ADD SWAP2 PUSH2 0x1C0 JUMP JUMPDEST DUP3 ADD SWAP2 SWAP1 PUSH0 MSTORE PUSH1 0x20 PUSH0 KECCAK256 SWAP1 JUMPDEST DUP2 SLOAD DUP2 MSTORE SWAP1 PUSH1 0x1 ADD SWAP1 PUSH1 0x20 ADD DUP1 DUP4 GT PUSH2 0x1A3 JUMPI DUP3 SWAP1 SUB PUSH1 0x1F AND DUP3 ADD SWAP2 JUMPDEST POP POP POP POP POP DUP2 MSTORE PUSH1 0x20 ADD PUSH1 0x1 DUP3 ADD PUSH0 SWAP1 SLOAD SWAP1 PUSH2 0x100 EXP SWAP1 DIV PUSH1 0xFF AND ISZERO ISZERO ISZERO ISZERO DUP2 MSTORE POP POP SWAP1 POP DUP3 DUP2 PUSH0 ADD DUP2 SWAP1 MSTORE POP POP POP POP JUMP JUMPDEST PUSH0 DUP2 DUP2 SLOAD DUP2 LT PUSH2 0x200 JUMPI PUSH0 DUP1 REVERT JUMPDEST SWAP1 PUSH0 MSTORE PUSH1 0x20 PUSH0 KECCAK256 SWAP1 PUSH1 0x2 MUL ADD PUSH0 SWAP2 POP SWAP1 POP DUP1 PUSH0 ADD DUP1 SLOAD PUSH2 0x21F SWAP1 PUSH2 0x84A JUMP JUMPDEST DUP1 PUSH1 0x1F ADD PUSH1 0x20 DUP1 SWAP2 DIV MUL PUSH1 0x20 ADD PUSH1 0x40 MLOAD SWAP1 DUP2 ADD PUSH1 0x40 MSTORE DUP1 SWAP3 SWAP2 SWAP1 DUP2 DUP2 MSTORE PUSH1 0x20 ADD DUP3 DUP1 SLOAD PUSH2 0x24B SWAP1 PUSH2 0x84A JUMP JUMPDEST DUP1 ISZERO PUSH2 0x296 JUMPI DUP1 PUSH1 0x1F LT PUSH2 0x26D JUMPI PUSH2 0x100 DUP1 DUP4 SLOAD DIV MUL DUP4 MSTORE SWAP2 PUSH1 0x20 ADD SWAP2 PUSH2 0x296 JUMP JUMPDEST DUP3 ADD SWAP2 SWAP1 PUSH0 MSTORE PUSH1 0x20 PUSH0 KECCAK256 SWAP1 JUMPDEST DUP2 SLOAD DUP2 MSTORE SWAP1 PUSH1 0x1 ADD SWAP1 PUSH1 0x20 ADD DUP1 DUP4 GT PUSH2 0x279 JUMPI DUP3 SWAP1 SUB PUSH1 0x1F AND DUP3 ADD SWAP2 JUMPDEST POP POP POP POP POP SWAP1 DUP1 PUSH1 0x1 ADD PUSH0 SWAP1 SLOAD SWAP1 PUSH2 0x100 EXP SWAP1 DIV PUSH1 0xFF AND SWAP1 POP DUP3 JUMP JUMPDEST PUSH0 DUP1 DUP3 DUP2 SLOAD DUP2 LT PUSH2 0x2C6 JUMPI PUSH2 0x2C5 PUSH2 0x7F0 JUMP JUMPDEST JUMPDEST SWAP1 PUSH0 MSTORE PUSH1 0x20 PUSH0 KECCAK256 SWAP1 PUSH1 0x2 MUL ADD PUSH1 0x40 MLOAD DUP1 PUSH1 0x40 ADD PUSH1 0x40 MSTORE SWAP1 DUP2 PUSH0 DUP3 ADD DUP1 SLOAD PUSH2 0x2EC SWAP1 PUSH2 0x84A JUMP JUMPDEST DUP1 PUSH1 0x1F ADD PUSH1 0x20 DUP1 SWAP2 DIV MUL PUSH1 0x20 ADD PUSH1 0x40 MLOAD SWAP1 DUP2 ADD PUSH1 0x40 MSTORE DUP1 SWAP3 SWAP2 SWAP1 DUP2 DUP2 MSTORE PUSH1 0x20 ADD DUP3 DUP1 SLOAD PUSH2 0x318 SWAP1 PUSH2 0x84A JUMP JUMPDEST DUP1 ISZERO PUSH2 0x363 JUMPI DUP1 PUSH1 0x1F LT PUSH2 0x33A JUMPI PUSH2 0x100 DUP1 DUP4 SLOAD DIV MUL DUP4 MSTORE SWAP2 PUSH1 0x20 ADD SWAP2 PUSH2 0x363 JUMP JUMPDEST DUP3 ADD SWAP2 SWAP1 PUSH0 MSTORE PUSH1 0x20 PUSH0 KECCAK256 SWAP1 JUMPDEST DUP2 SLOAD DUP2 MSTORE SWAP1 PUSH1 0x1 ADD SWAP1 PUSH1 0x20 ADD DUP1 DUP4 GT PUSH2 0x346 JUMPI DUP3 SWAP1 SUB PUSH1 0x1F AND DUP3 ADD SWAP2 JUMPDEST POP POP POP POP POP DUP2 MSTORE PUSH1 0x20 ADD PUSH1 0x1 DUP3 ADD PUSH0 SWAP1 SLOAD SWAP1 PUSH2 0x100 EXP SWAP1 DIV PUSH1 0xFF AND ISZERO ISZERO ISZERO ISZERO DUP2 MSTORE POP POP SWAP1 POP DUP1 PUSH1 0x20 ADD MLOAD ISZERO ISZERO DUP2 PUSH1 0x20 ADD MLOAD POP POP POP POP JUMP JUMPDEST PUSH0 PUSH1 0x40 MLOAD DUP1 PUSH1 0x40 ADD PUSH1 0x40 MSTORE DUP1 DUP4 DUP2 MSTORE PUSH1 0x20 ADD PUSH0 ISZERO ISZERO DUP2 MSTORE POP SWAP1 DUP1 PUSH1 0x1 DUP2 SLOAD ADD DUP1 DUP3 SSTORE DUP1 SWAP2 POP POP PUSH1 0x1 SWAP1 SUB SWAP1 PUSH0 MSTORE PUSH1 0x20 PUSH0 KECCAK256 SWAP1 PUSH1 0x2 MUL ADD PUSH0 SWAP1 SWAP2 SWAP1 SWAP2 SWAP1 SWAP2 POP PUSH0 DUP3 ADD MLOAD DUP2 PUSH0 ADD SWAP1 DUP2 PUSH2 0x3EB SWAP2 SWAP1 PUSH2 0xA17 JUMP JUMPDEST POP PUSH1 0x20 DUP3 ADD MLOAD DUP2 PUSH1 0x1 ADD PUSH0 PUSH2 0x100 EXP DUP2 SLOAD DUP2 PUSH1 0xFF MUL NOT AND SWAP1 DUP4 ISZERO ISZERO MUL OR SWAP1 SSTORE POP POP POP POP JUMP JUMPDEST PUSH1 0x60 PUSH0 DUP1 PUSH0 DUP5 DUP2 SLOAD DUP2 LT PUSH2 0x427 JUMPI PUSH2 0x426 PUSH2 0x7F0 JUMP JUMPDEST JUMPDEST SWAP1 PUSH0 MSTORE PUSH1 0x20 PUSH0 KECCAK256 SWAP1 PUSH1 0x2 MUL ADD PUSH1 0x40 MLOAD DUP1 PUSH1 0x40 ADD PUSH1 0x40 MSTORE SWAP1 DUP2 PUSH0 DUP3 ADD DUP1 SLOAD PUSH2 0x44D SWAP1 PUSH2 0x84A JUMP JUMPDEST DUP1 PUSH1 0x1F ADD PUSH1 0x20 DUP1 SWAP2 DIV MUL PUSH1 0x20 ADD PUSH1 0x40 MLOAD SWAP1 DUP2 ADD PUSH1 0x40 MSTORE DUP1 SWAP3 SWAP2 SWAP1 DUP2 DUP2 MSTORE PUSH1 0x20 ADD DUP3 DUP1 SLOAD PUSH2 0x479 SWAP1 PUSH2 0x84A JUMP JUMPDEST DUP1 ISZERO PUSH2 0x4C4 JUMPI DUP1 PUSH1 0x1F LT PUSH2 0x49B JUMPI PUSH2 0x100 DUP1 DUP4 SLOAD DIV MUL DUP4 MSTORE SWAP2 PUSH1 0x20 ADD SWAP2 PUSH2 0x4C4 JUMP JUMPDEST DUP3 ADD SWAP2 SWAP1 PUSH0 MSTORE PUSH1 0x20 PUSH0 KECCAK256 SWAP1 JUMPDEST DUP2 SLOAD DUP2 MSTORE SWAP1 PUSH1 0x1 ADD SWAP1 PUSH1 0x20 ADD DUP1 DUP4 GT PUSH2 0x4A7 JUMPI DUP3 SWAP1 SUB PUSH1 0x1F AND DUP3 ADD SWAP2 JUMPDEST POP POP POP POP POP DUP2 MSTORE PUSH1 0x20 ADD PUSH1 0x1 DUP3 ADD PUSH0 SWAP1 SLOAD SWAP1 PUSH2 0x100 EXP SWAP1 DIV PUSH1 0xFF AND ISZERO ISZERO ISZERO ISZERO DUP2 MSTORE POP POP SWAP1 POP DUP1 PUSH0 ADD MLOAD DUP2 PUSH1 0x20 ADD MLOAD SWAP3 POP SWAP3 POP POP SWAP2 POP SWAP2 JUMP JUMPDEST PUSH0 PUSH1 0x40 MLOAD SWAP1 POP SWAP1 JUMP JUMPDEST PUSH0 DUP1 REVERT JUMPDEST PUSH0 DUP1 REVERT JUMPDEST PUSH0 DUP1 REVERT JUMPDEST PUSH0 DUP1 REVERT JUMPDEST PUSH0 PUSH1 0x1F NOT PUSH1 0x1F DUP4 ADD AND SWAP1 POP SWAP2 SWAP1 POP JUMP JUMPDEST PUSH32 0x4E487B7100000000000000000000000000000000000000000000000000000000 PUSH0 MSTORE PUSH1 0x41 PUSH1 0x4 MSTORE PUSH1 0x24 PUSH0 REVERT JUMPDEST PUSH2 0x55B DUP3 PUSH2 0x515 JUMP JUMPDEST DUP2 ADD DUP2 DUP2 LT PUSH8 0xFFFFFFFFFFFFFFFF DUP3 GT OR ISZERO PUSH2 0x57A JUMPI PUSH2 0x579 PUSH2 0x525 JUMP JUMPDEST JUMPDEST DUP1 PUSH1 0x40 MSTORE POP POP POP JUMP JUMPDEST PUSH0 PUSH2 0x58C PUSH2 0x4FC JUMP JUMPDEST SWAP1 POP PUSH2 0x598 DUP3 DUP3 PUSH2 0x552 JUMP JUMPDEST SWAP2 SWAP1 POP JUMP JUMPDEST PUSH0 PUSH8 0xFFFFFFFFFFFFFFFF DUP3 GT ISZERO PUSH2 0x5B7 JUMPI PUSH2 0x5B6 PUSH2 0x525 JUMP JUMPDEST JUMPDEST PUSH2 0x5C0 DUP3 PUSH2 0x515 JUMP JUMPDEST SWAP1 POP PUSH1 0x20 DUP2 ADD SWAP1 POP SWAP2 SWAP1 POP JUMP JUMPDEST DUP3 DUP2 DUP4 CALLDATACOPY PUSH0 DUP4 DUP4 ADD MSTORE POP POP POP JUMP JUMPDEST PUSH0 PUSH2 0x5ED PUSH2 0x5E8 DUP5 PUSH2 0x59D JUMP JUMPDEST PUSH2 0x583 JUMP JUMPDEST SWAP1 POP DUP3 DUP2 MSTORE PUSH1 0x20 DUP2 ADD DUP5 DUP5 DUP5 ADD GT ISZERO PUSH2 0x609 JUMPI PUSH2 0x608 PUSH2 0x511 JUMP JUMPDEST JUMPDEST PUSH2 0x614 DUP5 DUP3 DUP6 PUSH2 0x5CD JUMP JUMPDEST POP SWAP4 SWAP3 POP POP POP JUMP JUMPDEST PUSH0 DUP3 PUSH1 0x1F DUP4 ADD SLT PUSH2 0x630 JUMPI PUSH2 0x62F PUSH2 0x50D JUMP JUMPDEST JUMPDEST DUP2 CALLDATALOAD PUSH2 0x640 DUP5 DUP3 PUSH1 0x20 DUP7 ADD PUSH2 0x5DB JUMP JUMPDEST SWAP2 POP POP SWAP3 SWAP2 POP POP JUMP JUMPDEST PUSH0 DUP2 SWAP1 POP SWAP2 SWAP1 POP JUMP JUMPDEST PUSH2 0x65B DUP2 PUSH2 0x649 JUMP JUMPDEST DUP2 EQ PUSH2 0x665 JUMPI PUSH0 DUP1 REVERT JUMPDEST POP JUMP JUMPDEST PUSH0 DUP2 CALLDATALOAD SWAP1 POP PUSH2 0x676 DUP2 PUSH2 0x652 JUMP JUMPDEST SWAP3 SWAP2 POP POP JUMP JUMPDEST PUSH0 DUP1 PUSH1 0x40 DUP4 DUP6 SUB SLT ISZERO PUSH2 0x692 JUMPI PUSH2 0x691 PUSH2 0x505 JUMP JUMPDEST JUMPDEST PUSH0 DUP4 ADD CALLDATALOAD PUSH8 0xFFFFFFFFFFFFFFFF DUP2 GT ISZERO PUSH2 0x6AF JUMPI PUSH2 0x6AE PUSH2 0x509 JUMP JUMPDEST JUMPDEST PUSH2 0x6BB DUP6 DUP3 DUP7 ADD PUSH2 0x61C JUMP JUMPDEST SWAP3 POP POP PUSH1 0x20 PUSH2 0x6CC DUP6 DUP3 DUP7 ADD PUSH2 0x668 JUMP JUMPDEST SWAP2 POP POP SWAP3 POP SWAP3 SWAP1 POP JUMP JUMPDEST PUSH0 PUSH1 0x20 DUP3 DUP5 SUB SLT ISZERO PUSH2 0x6EB JUMPI PUSH2 0x6EA PUSH2 0x505 JUMP JUMPDEST JUMPDEST PUSH0 PUSH2 0x6F8 DUP5 DUP3 DUP6 ADD PUSH2 0x668 JUMP JUMPDEST SWAP2 POP POP SWAP3 SWAP2 POP POP JUMP JUMPDEST PUSH0 DUP2 MLOAD SWAP1 POP SWAP2 SWAP1 POP JUMP JUMPDEST PUSH0 DUP3 DUP3 MSTORE PUSH1 0x20 DUP3 ADD SWAP1 POP SWAP3 SWAP2 POP POP JUMP JUMPDEST DUP3 DUP2 DUP4 MCOPY PUSH0 DUP4 DUP4 ADD MSTORE POP POP POP JUMP JUMPDEST PUSH0 PUSH2 0x733 DUP3 PUSH2 0x701 JUMP JUMPDEST PUSH2 0x73D DUP2 DUP6 PUSH2 0x70B JUMP JUMPDEST SWAP4 POP PUSH2 0x74D DUP2 DUP6 PUSH1 0x20 DUP7 ADD PUSH2 0x71B JUMP JUMPDEST PUSH2 0x756 DUP2 PUSH2 0x515 JUMP JUMPDEST DUP5 ADD SWAP2 POP POP SWAP3 SWAP2 POP POP JUMP JUMPDEST PUSH0 DUP2 ISZERO ISZERO SWAP1 POP SWAP2 SWAP1 POP JUMP JUMPDEST PUSH2 0x775 DUP2 PUSH2 0x761 JUMP JUMPDEST DUP3 MSTORE POP POP JUMP JUMPDEST PUSH0 PUSH1 0x40 DUP3 ADD SWAP1 POP DUP2 DUP2 SUB PUSH0 DUP4 ADD MSTORE PUSH2 0x793 DUP2 DUP6 PUSH2 0x729 JUMP JUMPDEST SWAP1 POP PUSH2 0x7A2 PUSH1 0x20 DUP4 ADD DUP5 PUSH2 0x76C JUMP JUMPDEST SWAP4 SWAP3 POP POP POP JUMP JUMPDEST PUSH0 PUSH1 0x20 DUP3 DUP5 SUB SLT ISZERO PUSH2 0x7BE JUMPI PUSH2 0x7BD PUSH2 0x505 JUMP JUMPDEST JUMPDEST PUSH0 DUP3 ADD CALLDATALOAD PUSH8 0xFFFFFFFFFFFFFFFF DUP2 GT ISZERO PUSH2 0x7DB JUMPI PUSH2 0x7DA PUSH2 0x509 JUMP JUMPDEST JUMPDEST PUSH2 0x7E7 DUP5 DUP3 DUP6 ADD PUSH2 0x61C JUMP JUMPDEST SWAP2 POP POP SWAP3 SWAP2 POP POP JUMP JUMPDEST PUSH32 0x4E487B7100000000000000000000000000000000000000000000000000000000 PUSH0 MSTORE PUSH1 0x32 PUSH1 0x4 MSTORE PUSH1 0x24 PUSH0 REVERT JUMPDEST PUSH32 0x4E487B7100000000000000000000000000000000000000000000000000000000 PUSH0 MSTORE PUSH1 0x22 PUSH1 0x4 MSTORE PUSH1 0x24 PUSH0 REVERT JUMPDEST PUSH0 PUSH1 0x2 DUP3 DIV SWAP1 POP PUSH1 0x1 DUP3 AND DUP1 PUSH2 0x861 JUMPI PUSH1 0x7F DUP3 AND SWAP2 POP JUMPDEST PUSH1 0x20 DUP3 LT DUP2 SUB PUSH2 0x874 JUMPI PUSH2 0x873 PUSH2 0x81D JUMP JUMPDEST JUMPDEST POP SWAP2 SWAP1 POP JUMP JUMPDEST PUSH0 DUP2 SWAP1 POP DUP2 PUSH0 MSTORE PUSH1 0x20 PUSH0 KECCAK256 SWAP1 POP SWAP2 SWAP1 POP JUMP JUMPDEST PUSH0 PUSH1 0x20 PUSH1 0x1F DUP4 ADD DIV SWAP1 POP SWAP2 SWAP1 POP JUMP JUMPDEST PUSH0 DUP3 DUP3 SHL SWAP1 POP SWAP3 SWAP2 POP POP JUMP JUMPDEST PUSH0 PUSH1 0x8 DUP4 MUL PUSH2 0x8D6 PUSH32 0xFFFFFFFFFFFFFFFFFFFFFFFFFFFFFFFFFFFFFFFFFFFFFFFFFFFFFFFFFFFFFFFF DUP3 PUSH2 0x89B JUMP JUMPDEST PUSH2 0x8E0 DUP7 DUP4 PUSH2 0x89B JUMP JUMPDEST SWAP6 POP DUP1 NOT DUP5 AND SWAP4 POP DUP1 DUP7 AND DUP5 OR SWAP3 POP POP POP SWAP4 SWAP3 POP POP POP JUMP JUMPDEST PUSH0 DUP2 SWAP1 POP SWAP2 SWAP1 POP JUMP JUMPDEST PUSH0 PUSH2 0x91B PUSH2 0x916 PUSH2 0x911 DUP5 PUSH2 0x649 JUMP JUMPDEST PUSH2 0x8F8 JUMP JUMPDEST PUSH2 0x649 JUMP JUMPDEST SWAP1 POP SWAP2 SWAP1 POP JUMP JUMPDEST PUSH0 DUP2 SWAP1 POP SWAP2 SWAP1 POP JUMP JUMPDEST PUSH2 0x934 DUP4 PUSH2 0x901 JUMP JUMPDEST PUSH2 0x948 PUSH2 0x940 DUP3 PUSH2 0x922 JUMP JUMPDEST DUP5 DUP5 SLOAD PUSH2 0x8A7 JUMP JUMPDEST DUP3 SSTORE POP POP POP POP JUMP JUMPDEST PUSH0 SWAP1 JUMP JUMPDEST PUSH2 0x95C PUSH2 0x950 JUMP JUMPDEST PUSH2 0x967 DUP2 DUP5 DUP5 PUSH2 0x92B JUMP JUMPDEST POP POP POP JUMP JUMPDEST JUMPDEST DUP2 DUP2 LT ISZERO PUSH2 0x98A JUMPI PUSH2 0x97F PUSH0 DUP3 PUSH2 0x954 JUMP JUMPDEST PUSH1 0x1 DUP2 ADD SWAP1 POP PUSH2 0x96D JUMP JUMPDEST POP POP JUMP JUMPDEST PUSH1 0x1F DUP3 GT ISZERO PUSH2 0x9CF JUMPI PUSH2 0x9A0 DUP2 PUSH2 0x87A JUMP JUMPDEST PUSH2 0x9A9 DUP5 PUSH2 0x88C JUMP JUMPDEST DUP2 ADD PUSH1 0x20 DUP6 LT ISZERO PUSH2 0x9B8 JUMPI DUP2 SWAP1 POP JUMPDEST PUSH2 0x9CC PUSH2 0x9C4 DUP6 PUSH2 0x88C JUMP JUMPDEST DUP4 ADD DUP3 PUSH2 0x96C JUMP JUMPDEST POP POP JUMPDEST POP POP POP JUMP JUMPDEST PUSH0 DUP3 DUP3 SHR SWAP1 POP SWAP3 SWAP2 POP POP JUMP JUMPDEST PUSH0 PUSH2 0x9EF PUSH0 NOT DUP5 PUSH1 0x8 MUL PUSH2 0x9D4 JUMP JUMPDEST NOT DUP1 DUP4 AND SWAP2 POP POP SWAP3 SWAP2 POP POP JUMP JUMPDEST PUSH0 PUSH2 0xA07 DUP4 DUP4 PUSH2 0x9E0 JUMP JUMPDEST SWAP2 POP DUP3 PUSH1 0x2 MUL DUP3 OR SWAP1 POP SWAP3 SWAP2 POP POP JUMP JUMPDEST PUSH2 0xA20 DUP3 PUSH2 0x701 JUMP JUMPDEST PUSH8 0xFFFFFFFFFFFFFFFF DUP2 GT ISZERO PUSH2 0xA39 JUMPI PUSH2 0xA38 PUSH2 0x525 JUMP JUMPDEST JUMPDEST PUSH2 0xA43 DUP3 SLOAD PUSH2 0x84A JUMP JUMPDEST PUSH2 0xA4E DUP3 DUP3 DUP6 PUSH2 0x98E JUMP JUMPDEST PUSH0 PUSH1 0x20 SWAP1 POP PUSH1 0x1F DUP4 GT PUSH1 0x1 DUP2 EQ PUSH2 0xA7F JUMPI PUSH0 DUP5 ISZERO PUSH2 0xA6D JUMPI DUP3 DUP8 ADD MLOAD SWAP1 POP JUMPDEST PUSH2 0xA77 DUP6 DUP3 PUSH2 0x9FC JUMP JUMPDEST DUP7 SSTORE POP PUSH2 0xADE JUMP JUMPDEST PUSH1 0x1F NOT DUP5 AND PUSH2 0xA8D DUP7 PUSH2 0x87A JUMP JUMPDEST PUSH0 JUMPDEST DUP3 DUP2 LT ISZERO PUSH2 0xAB4 JUMPI DUP5 DUP10 ADD MLOAD DUP3 SSTORE PUSH1 0x1 DUP3 ADD SWAP2 POP PUSH1 0x20 DUP6 ADD SWAP5 POP PUSH1 0x20 DUP2 ADD SWAP1 POP PUSH2 0xA8F JUMP JUMPDEST DUP7 DUP4 LT ISZERO PUSH2 0xAD1 JUMPI DUP5 DUP10 ADD MLOAD PUSH2 0xACD PUSH1 0x1F DUP10 AND DUP3 PUSH2 0x9E0 JUMP JUMPDEST DUP4 SSTORE POP JUMPDEST PUSH1 0x1 PUSH1 0x2 DUP9 MUL ADD DUP9 SSTORE POP POP POP JUMPDEST POP POP POP POP POP POP JUMP INVALID LOG2 PUSH5 0x6970667358 0x22 SLT KECCAK256 LT SWAP11 PUSH8 0x9C883AB7BFAB0201 REVERT KECCAK256 SDIV 0xBC DUP5 0x29 0xBB ADDMOD PUSH17 0x39E72050B7646714F4DCF96464736F6C63 NUMBER STOP ADDMOD BYTE STOP CALLER "
				},
				"gasEstimates": {
					"creation": {
						"codeDepositCost": "568800",
						"executionCost": "598",
						"totalCost": "569398"
					},
					"external": {
						"addTodo(string)": "infinite",
						"getTodo(uint256)": "infinite",
						"itemList(uint256)": "infinite",
						"setAtIndex(string,uint256)": "infinite",
						"toogleCompleted(uint256)": "infinite"
					}
				},
				"methodIdentifiers": {
					"addTodo(string)": "95ffebf5",
					"getTodo(uint256)": "dd68afb6",
					"itemList(uint256)": "3d4d3600",
					"setAtIndex(string,uint256)": "21d68ccb",
					"toogleCompleted(uint256)": "72c2a7b0"
				}
			},
			"storageLayout": {
				"storage": [
					{
						"astId": 10,
						"contract": "contracts/Structs.sol:StructData",
						"label": "itemList",
						"offset": 0,
						"slot": "0",
						"type": "t_array(t_struct(Todo)6_storage)dyn_storage"
					}
				],
				"types": {
					"t_array(t_struct(Todo)6_storage)dyn_storage": {
						"base": "t_struct(Todo)6_storage",
						"encoding": "dynamic_array",
						"label": "struct Todo[]",
						"numberOfBytes": "32"
					},
					"t_bool": {
						"encoding": "inplace",
						"label": "bool",
						"numberOfBytes": "1"
					},
					"t_string_storage": {
						"encoding": "bytes",
						"label": "string",
						"numberOfBytes": "32"
					},
					"t_struct(Todo)6_storage": {
						"encoding": "inplace",
						"label": "struct Todo",
						"members": [
							{
								"astId": 3,
								"contract": "contracts/Structs.sol:StructData",
								"label": "name",
								"offset": 0,
								"slot": "0",
								"type": "t_string_storage"
							},
							{
								"astId": 5,
								"contract": "contracts/Structs.sol:StructData",
								"label": "completed",
								"offset": 0,
								"slot": "1",
								"type": "t_bool"
							}
						],
						"numberOfBytes": "64"
					}
				}
			},
			"userdoc": {
				"kind": "user",
				"methods": {},
				"version": 1
			}
		}
	}
}