{
	"contracts/FundMe.sol": {
		"FundMe": {
			"abi": [
				{
					"inputs": [],
					"stateMutability": "nonpayable",
					"type": "constructor"
				},
				{
					"inputs": [],
					"name": "NotOwner",
					"type": "error"
				},
				{
					"stateMutability": "payable",
					"type": "fallback"
				},
				{
					"inputs": [],
					"name": "MINUMUM_USD",
					"outputs": [
						{
							"internalType": "uint256",
							"name": "",
							"type": "uint256"
						}
					],
					"stateMutability": "view",
					"type": "function"
				},
				{
					"inputs": [
						{
							"internalType": "address",
							"name": "",
							"type": "address"
						}
					],
					"name": "addressToAmountFunded",
					"outputs": [
						{
							"internalType": "uint256",
							"name": "",
							"type": "uint256"
						}
					],
					"stateMutability": "view",
					"type": "function"
				},
				{
					"inputs": [],
					"name": "fund",
					"outputs": [],
					"stateMutability": "payable",
					"type": "function"
				},
				{
					"inputs": [
						{
							"internalType": "uint256",
							"name": "",
							"type": "uint256"
						}
					],
					"name": "funders",
					"outputs": [
						{
							"internalType": "address",
							"name": "",
							"type": "address"
						}
					],
					"stateMutability": "view",
					"type": "function"
				},
				{
					"inputs": [],
					"name": "i_owner",
					"outputs": [
						{
							"internalType": "address",
							"name": "",
							"type": "address"
						}
					],
					"stateMutability": "view",
					"type": "function"
				},
				{
					"inputs": [],
					"name": "withdrawAll",
					"outputs": [],
					"stateMutability": "nonpayable",
					"type": "function"
				},
				{
					"inputs": [
						{
							"internalType": "uint256",
							"name": "_amount",
							"type": "uint256"
						}
					],
					"name": "withdrawAmount",
					"outputs": [],
					"stateMutability": "nonpayable",
					"type": "function"
				},
				{
					"stateMutability": "payable",
					"type": "receive"
				}
			],
			"devdoc": {
				"kind": "dev",
				"methods": {},
				"version": 1
			},
			"evm": {
				"assembly": "    /* \"contracts/FundMe.sol\":117:2306  contract FundMe {... */\n  mstore(0x40, 0xa0)\n    /* \"contracts/FundMe.sol\":278:332  constructor () {... */\n  callvalue\n  dup1\n  iszero\n  tag_1\n  jumpi\n  revert(0x00, 0x00)\ntag_1:\n  pop\n    /* \"contracts/FundMe.sol\":314:324  msg.sender */\n  caller\n    /* \"contracts/FundMe.sol\":304:324  i_owner = msg.sender */\n  0xffffffffffffffffffffffffffffffffffffffff\n  and\n  0x80\n  dup2\n  0xffffffffffffffffffffffffffffffffffffffff\n  and\n  dup2\n  mstore\n  pop\n  pop\n    /* \"contracts/FundMe.sol\":117:2306  contract FundMe {... */\n  mload(0x80)\n  codecopy(0x00, dataOffset(sub_0), dataSize(sub_0))\n  0x00\n  assignImmutable(\"0x7446b42d7fe1689ec32fc1ca65129d9f21f1979742315d34500a6886f6986bea\")\n  return(0x00, dataSize(sub_0))\nstop\n\nsub_0: assembly {\n        /* \"contracts/FundMe.sol\":117:2306  contract FundMe {... */\n      mstore(0x40, 0x80)\n      jumpi(tag_1, lt(calldatasize, 0x04))\n      shr(0xe0, calldataload(0x00))\n      dup1\n      0x853828b6\n      gt\n      tag_10\n      jumpi\n      dup1\n      0x853828b6\n      eq\n      tag_6\n      jumpi\n      dup1\n      0xb60d4288\n      eq\n      tag_7\n      jumpi\n      dup1\n      0xdba6335f\n      eq\n      tag_8\n      jumpi\n      dup1\n      0xdc0d3dff\n      eq\n      tag_9\n      jumpi\n      jump(tag_2)\n    tag_10:\n      dup1\n      0x0562b9f7\n      eq\n      tag_3\n      jumpi\n      dup1\n      0x116ebb2d\n      eq\n      tag_4\n      jumpi\n      dup1\n      0x3e47d6f3\n      eq\n      tag_5\n      jumpi\n      jump(tag_2)\n    tag_1:\n      jumpi(tag_2, calldatasize)\n        /* \"contracts/FundMe.sol\":825:831  fund() */\n      tag_13\n        /* \"contracts/FundMe.sol\":825:829  fund */\n      tag_14\n        /* \"contracts/FundMe.sol\":825:831  fund() */\n      jump\t// in\n    tag_13:\n        /* \"contracts/FundMe.sol\":117:2306  contract FundMe {... */\n      stop\n    tag_2:\n        /* \"contracts/FundMe.sol\":887:893  fund() */\n      tag_17\n        /* \"contracts/FundMe.sol\":887:891  fund */\n      tag_14\n        /* \"contracts/FundMe.sol\":887:893  fund() */\n      jump\t// in\n    tag_17:\n        /* \"contracts/FundMe.sol\":117:2306  contract FundMe {... */\n      stop\n        /* \"contracts/FundMe.sol\":1165:1417  function withdrawAmount(uint256 _amount) public OnlyOwner AmountIsGreater(_amount) {... */\n    tag_3:\n      callvalue\n      dup1\n      iszero\n      tag_18\n      jumpi\n      revert(0x00, 0x00)\n    tag_18:\n      pop\n      tag_19\n      0x04\n      dup1\n      calldatasize\n      sub\n      dup2\n      add\n      swap1\n      tag_20\n      swap2\n      swap1\n      tag_21\n      jump\t// in\n    tag_20:\n      tag_22\n      jump\t// in\n    tag_19:\n      stop\n        /* \"contracts/FundMe.sol\":181:228  uint256 public constant MINUMUM_USD = 50 * 1e18 */\n    tag_4:\n      callvalue\n      dup1\n      iszero\n      tag_23\n      jumpi\n      revert(0x00, 0x00)\n    tag_23:\n      pop\n      tag_24\n      tag_25\n      jump\t// in\n    tag_24:\n      mload(0x40)\n      tag_26\n      swap2\n      swap1\n      tag_27\n      jump\t// in\n    tag_26:\n      mload(0x40)\n      dup1\n      swap2\n      sub\n      swap1\n      return\n        /* \"contracts/FundMe.sol\":720:777  mapping (address => uint256) public addressToAmountFunded */\n    tag_5:\n      callvalue\n      dup1\n      iszero\n      tag_28\n      jumpi\n      revert(0x00, 0x00)\n    tag_28:\n      pop\n      tag_29\n      0x04\n      dup1\n      calldatasize\n      sub\n      dup2\n      add\n      swap1\n      tag_30\n      swap2\n      swap1\n      tag_31\n      jump\t// in\n    tag_30:\n      tag_32\n      jump\t// in\n    tag_29:\n      mload(0x40)\n      tag_33\n      swap2\n      swap1\n      tag_27\n      jump\t// in\n    tag_33:\n      mload(0x40)\n      dup1\n      swap2\n      sub\n      swap1\n      return\n        /* \"contracts/FundMe.sol\":1425:2303  function withdrawAll() public OnlyOwner {... */\n    tag_6:\n      callvalue\n      dup1\n      iszero\n      tag_34\n      jumpi\n      revert(0x00, 0x00)\n    tag_34:\n      pop\n      tag_35\n      tag_36\n      jump\t// in\n    tag_35:\n      stop\n        /* \"contracts/FundMe.sol\":909:1123  function fund() public payable{ ... */\n    tag_7:\n      tag_37\n      tag_14\n      jump\t// in\n    tag_37:\n      stop\n        /* \"contracts/FundMe.sol\":237:269  address public immutable i_owner */\n    tag_8:\n      callvalue\n      dup1\n      iszero\n      tag_38\n      jumpi\n      revert(0x00, 0x00)\n    tag_38:\n      pop\n      tag_39\n      tag_40\n      jump\t// in\n    tag_39:\n      mload(0x40)\n      tag_41\n      swap2\n      swap1\n      tag_42\n      jump\t// in\n    tag_41:\n      mload(0x40)\n      dup1\n      swap2\n      sub\n      swap1\n      return\n        /* \"contracts/FundMe.sol\":689:713  address[] public funders */\n    tag_9:\n      callvalue\n      dup1\n      iszero\n      tag_43\n      jumpi\n      revert(0x00, 0x00)\n    tag_43:\n      pop\n      tag_44\n      0x04\n      dup1\n      calldatasize\n      sub\n      dup2\n      add\n      swap1\n      tag_45\n      swap2\n      swap1\n      tag_21\n      jump\t// in\n    tag_45:\n      tag_46\n      jump\t// in\n    tag_44:\n      mload(0x40)\n      tag_47\n      swap2\n      swap1\n      tag_42\n      jump\t// in\n    tag_47:\n      mload(0x40)\n      dup1\n      swap2\n      sub\n      swap1\n      return\n        /* \"contracts/FundMe.sol\":909:1123  function fund() public payable{ ... */\n    tag_14:\n        /* \"contracts/FundMe.sol\":219:228  50 * 1e18 */\n      0x02b5e3af16b1880000\n        /* \"contracts/FundMe.sol\":961:990  msg.value.getConversionRate() */\n      tag_49\n        /* \"contracts/FundMe.sol\":961:970  msg.value */\n      callvalue\n        /* \"contracts/FundMe.sol\":961:988  msg.value.getConversionRate */\n      tag_50\n        /* \"contracts/FundMe.sol\":961:990  msg.value.getConversionRate() */\n      jump\t// in\n    tag_49:\n        /* \"contracts/FundMe.sol\":961:1005  msg.value.getConversionRate() >= MINUMUM_USD */\n      lt\n      iszero\n        /* \"contracts/FundMe.sol\":953:1024  require(msg.value.getConversionRate() >= MINUMUM_USD, \"Not Enough Eth\") */\n      tag_51\n      jumpi\n      mload(0x40)\n      0x08c379a000000000000000000000000000000000000000000000000000000000\n      dup2\n      mstore\n      0x04\n      add\n      tag_52\n      swap1\n      tag_53\n      jump\t// in\n    tag_52:\n      mload(0x40)\n      dup1\n      swap2\n      sub\n      swap1\n      revert\n    tag_51:\n        /* \"contracts/FundMe.sol\":1035:1042  funders */\n      0x00\n        /* \"contracts/FundMe.sol\":1048:1058  msg.sender */\n      caller\n        /* \"contracts/FundMe.sol\":1035:1059  funders.push(msg.sender) */\n      swap1\n      dup1\n      0x01\n      dup2\n      sload\n      add\n      dup1\n      dup3\n      sstore\n      dup1\n      swap2\n      pop\n      pop\n      0x01\n      swap1\n      sub\n      swap1\n      0x00\n      mstore\n      keccak256(0x00, 0x20)\n      add\n      0x00\n      swap1\n      swap2\n      swap1\n      swap2\n      swap1\n      swap2\n      0x0100\n      exp\n      dup2\n      sload\n      dup2\n      0xffffffffffffffffffffffffffffffffffffffff\n      mul\n      not\n      and\n      swap1\n      dup4\n      0xffffffffffffffffffffffffffffffffffffffff\n      and\n      mul\n      or\n      swap1\n      sstore\n      pop\n        /* \"contracts/FundMe.sol\":1106:1115  msg.value */\n      callvalue\n        /* \"contracts/FundMe.sol\":1070:1091  addressToAmountFunded */\n      0x01\n        /* \"contracts/FundMe.sol\":1070:1103  addressToAmountFunded[msg.sender] */\n      0x00\n        /* \"contracts/FundMe.sol\":1092:1102  msg.sender */\n      caller\n        /* \"contracts/FundMe.sol\":1070:1103  addressToAmountFunded[msg.sender] */\n      0xffffffffffffffffffffffffffffffffffffffff\n      and\n      0xffffffffffffffffffffffffffffffffffffffff\n      and\n      dup2\n      mstore\n      0x20\n      add\n      swap1\n      dup2\n      mstore\n      0x20\n      add\n      0x00\n      keccak256\n        /* \"contracts/FundMe.sol\":1070:1115  addressToAmountFunded[msg.sender] = msg.value */\n      dup2\n      swap1\n      sstore\n      pop\n        /* \"contracts/FundMe.sol\":909:1123  function fund() public payable{ ... */\n      jump\t// out\n        /* \"contracts/FundMe.sol\":1165:1417  function withdrawAmount(uint256 _amount) public OnlyOwner AmountIsGreater(_amount) {... */\n    tag_22:\n        /* \"contracts/FundMe.sol\":453:460  i_owner */\n      immutable(\"0x7446b42d7fe1689ec32fc1ca65129d9f21f1979742315d34500a6886f6986bea\")\n        /* \"contracts/FundMe.sol\":439:460  msg.sender != i_owner */\n      0xffffffffffffffffffffffffffffffffffffffff\n      and\n        /* \"contracts/FundMe.sol\":439:449  msg.sender */\n      caller\n        /* \"contracts/FundMe.sol\":439:460  msg.sender != i_owner */\n      0xffffffffffffffffffffffffffffffffffffffff\n      and\n      eq\n        /* \"contracts/FundMe.sol\":435:506  if (msg.sender != i_owner) {... */\n      tag_56\n      jumpi\n        /* \"contracts/FundMe.sol\":484:494  NotOwner() */\n      mload(0x40)\n      0x30cd747100000000000000000000000000000000000000000000000000000000\n      dup2\n      mstore\n      0x04\n      add\n      mload(0x40)\n      dup1\n      swap2\n      sub\n      swap1\n      revert\n        /* \"contracts/FundMe.sol\":435:506  if (msg.sender != i_owner) {... */\n    tag_56:\n        /* \"contracts/FundMe.sol\":1239:1246  _amount */\n      dup1\n        /* \"contracts/FundMe.sol\":606:613  i_owner */\n      immutable(\"0x7446b42d7fe1689ec32fc1ca65129d9f21f1979742315d34500a6886f6986bea\")\n        /* \"contracts/FundMe.sol\":606:621  i_owner.balance */\n      0xffffffffffffffffffffffffffffffffffffffff\n      and\n      balance\n        /* \"contracts/FundMe.sol\":595:602  _amount */\n      dup2\n        /* \"contracts/FundMe.sol\":595:621  _amount >= i_owner.balance */\n      lt\n      iszero\n        /* \"contracts/FundMe.sol\":586:661  require (_amount >= i_owner.balance, \"Cannot withdraw more than avbilable\") */\n      tag_58\n      jumpi\n      mload(0x40)\n      0x08c379a000000000000000000000000000000000000000000000000000000000\n      dup2\n      mstore\n      0x04\n      add\n      tag_59\n      swap1\n      tag_60\n      jump\t// in\n    tag_59:\n      mload(0x40)\n      dup1\n      swap2\n      sub\n      swap1\n      revert\n    tag_58:\n        /* \"contracts/FundMe.sol\":1262:1278  bool callsuccess */\n      0x00\n        /* \"contracts/FundMe.sol\":1323:1333  msg.sender */\n      caller\n        /* \"contracts/FundMe.sol\":1314:1339  payable (msg.sender).call */\n      0xffffffffffffffffffffffffffffffffffffffff\n      and\n        /* \"contracts/FundMe.sol\":1347:1354  _amount */\n      dup4\n        /* \"contracts/FundMe.sol\":1314:1359  payable (msg.sender).call{value: _amount}(\"\") */\n      mload(0x40)\n      tag_62\n      swap1\n      tag_63\n      jump\t// in\n    tag_62:\n      0x00\n      mload(0x40)\n      dup1\n      dup4\n      sub\n      dup2\n      dup6\n      dup8\n      gas\n      call\n      swap3\n      pop\n      pop\n      pop\n      returndatasize\n      dup1\n      0x00\n      dup2\n      eq\n      tag_66\n      jumpi\n      mload(0x40)\n      swap2\n      pop\n      and(add(returndatasize, 0x3f), not(0x1f))\n      dup3\n      add\n      0x40\n      mstore\n      returndatasize\n      dup3\n      mstore\n      returndatasize\n      0x00\n      0x20\n      dup5\n      add\n      returndatacopy\n      jump(tag_65)\n    tag_66:\n      0x60\n      swap2\n      pop\n    tag_65:\n      pop\n        /* \"contracts/FundMe.sol\":1261:1359  (bool callsuccess, /*bytes memory dataReturned*/ ) = payable (msg.sender).call{value: _amount}(\"\") */\n      pop\n      swap1\n      pop\n        /* \"contracts/FundMe.sol\":1379:1390  callsuccess */\n      dup1\n        /* \"contracts/FundMe.sol\":1370:1409  require (callsuccess, \"Failed to call\") */\n      tag_67\n      jumpi\n      mload(0x40)\n      0x08c379a000000000000000000000000000000000000000000000000000000000\n      dup2\n      mstore\n      0x04\n      add\n      tag_68\n      swap1\n      tag_69\n      jump\t// in\n    tag_68:\n      mload(0x40)\n      dup1\n      swap2\n      sub\n      swap1\n      revert\n    tag_67:\n        /* \"contracts/FundMe.sol\":1248:1417  {... */\n      pop\n        /* \"contracts/FundMe.sol\":516:517  _ */\n      pop\n        /* \"contracts/FundMe.sol\":1165:1417  function withdrawAmount(uint256 _amount) public OnlyOwner AmountIsGreater(_amount) {... */\n      pop\n      jump\t// out\n        /* \"contracts/FundMe.sol\":181:228  uint256 public constant MINUMUM_USD = 50 * 1e18 */\n    tag_25:\n        /* \"contracts/FundMe.sol\":219:228  50 * 1e18 */\n      0x02b5e3af16b1880000\n        /* \"contracts/FundMe.sol\":181:228  uint256 public constant MINUMUM_USD = 50 * 1e18 */\n      dup2\n      jump\t// out\n        /* \"contracts/FundMe.sol\":720:777  mapping (address => uint256) public addressToAmountFunded */\n    tag_32:\n      mstore(0x20, 0x01)\n      dup1\n      0x00\n      mstore\n      keccak256(0x00, 0x40)\n      0x00\n      swap2\n      pop\n      swap1\n      pop\n      sload\n      dup2\n      jump\t// out\n        /* \"contracts/FundMe.sol\":1425:2303  function withdrawAll() public OnlyOwner {... */\n    tag_36:\n        /* \"contracts/FundMe.sol\":453:460  i_owner */\n      immutable(\"0x7446b42d7fe1689ec32fc1ca65129d9f21f1979742315d34500a6886f6986bea\")\n        /* \"contracts/FundMe.sol\":439:460  msg.sender != i_owner */\n      0xffffffffffffffffffffffffffffffffffffffff\n      and\n        /* \"contracts/FundMe.sol\":439:449  msg.sender */\n      caller\n        /* \"contracts/FundMe.sol\":439:460  msg.sender != i_owner */\n      0xffffffffffffffffffffffffffffffffffffffff\n      and\n      eq\n        /* \"contracts/FundMe.sol\":435:506  if (msg.sender != i_owner) {... */\n      tag_71\n      jumpi\n        /* \"contracts/FundMe.sol\":484:494  NotOwner() */\n      mload(0x40)\n      0x30cd747100000000000000000000000000000000000000000000000000000000\n      dup2\n      mstore\n      0x04\n      add\n      mload(0x40)\n      dup1\n      swap2\n      sub\n      swap1\n      revert\n        /* \"contracts/FundMe.sol\":435:506  if (msg.sender != i_owner) {... */\n    tag_71:\n        /* \"contracts/FundMe.sol\":1551:1565  address funder */\n      0x00\n        /* \"contracts/FundMe.sol\":1580:1586  uint i */\n      0x00\n        /* \"contracts/FundMe.sol\":1589:1590  0 */\n      0x00\n        /* \"contracts/FundMe.sol\":1580:1590  uint i = 0 */\n      swap1\n      pop\n        /* \"contracts/FundMe.sol\":1576:1710  for(uint i = 0; i < funders.length; i++){... */\n    tag_73:\n        /* \"contracts/FundMe.sol\":1596:1603  funders */\n      0x00\n        /* \"contracts/FundMe.sol\":1596:1610  funders.length */\n      dup1\n      sload\n      swap1\n      pop\n        /* \"contracts/FundMe.sol\":1592:1593  i */\n      dup2\n        /* \"contracts/FundMe.sol\":1592:1610  i < funders.length */\n      lt\n        /* \"contracts/FundMe.sol\":1576:1710  for(uint i = 0; i < funders.length; i++){... */\n      iszero\n      tag_74\n      jumpi\n        /* \"contracts/FundMe.sol\":1640:1647  funders */\n      0x00\n        /* \"contracts/FundMe.sol\":1648:1649  i */\n      dup2\n        /* \"contracts/FundMe.sol\":1640:1650  funders[i] */\n      dup2\n      sload\n      dup2\n      lt\n      tag_76\n      jumpi\n      tag_77\n      tag_78\n      jump\t// in\n    tag_77:\n    tag_76:\n      swap1\n      0x00\n      mstore\n      keccak256(0x00, 0x20)\n      add\n      0x00\n      swap1\n      sload\n      swap1\n      0x0100\n      exp\n      swap1\n      div\n      0xffffffffffffffffffffffffffffffffffffffff\n      and\n        /* \"contracts/FundMe.sol\":1631:1650  funder = funders[i] */\n      swap2\n      pop\n        /* \"contracts/FundMe.sol\":1697:1698  0 */\n      0x00\n        /* \"contracts/FundMe.sol\":1665:1686  addressToAmountFunded */\n      0x01\n        /* \"contracts/FundMe.sol\":1665:1694  addressToAmountFunded[funder] */\n      0x00\n        /* \"contracts/FundMe.sol\":1687:1693  funder */\n      dup5\n        /* \"contracts/FundMe.sol\":1665:1694  addressToAmountFunded[funder] */\n      0xffffffffffffffffffffffffffffffffffffffff\n      and\n      0xffffffffffffffffffffffffffffffffffffffff\n      and\n      dup2\n      mstore\n      0x20\n      add\n      swap1\n      dup2\n      mstore\n      0x20\n      add\n      0x00\n      keccak256\n        /* \"contracts/FundMe.sol\":1665:1698  addressToAmountFunded[funder] = 0 */\n      dup2\n      swap1\n      sstore\n      pop\n        /* \"contracts/FundMe.sol\":1612:1615  i++ */\n      dup1\n      dup1\n      0x01\n      add\n      swap2\n      pop\n      pop\n        /* \"contracts/FundMe.sol\":1576:1710  for(uint i = 0; i < funders.length; i++){... */\n      jump(tag_73)\n    tag_74:\n      pop\n        /* \"contracts/FundMe.sol\":1746:1747  0 */\n      0x00\n        /* \"contracts/FundMe.sol\":1732:1748  new address[](0) */\n      0xffffffffffffffff\n      dup2\n      gt\n      iszero\n      tag_80\n      jumpi\n      tag_81\n      tag_82\n      jump\t// in\n    tag_81:\n    tag_80:\n      mload(0x40)\n      swap1\n      dup1\n      dup3\n      mstore\n      dup1\n      0x20\n      mul\n      0x20\n      add\n      dup3\n      add\n      0x40\n      mstore\n      dup1\n      iszero\n      tag_83\n      jumpi\n      dup2\n      0x20\n      add\n      0x20\n      dup3\n      mul\n      dup1\n      calldatasize\n      dup4\n      calldatacopy\n      dup1\n      dup3\n      add\n      swap2\n      pop\n      pop\n      swap1\n      pop\n    tag_83:\n      pop\n        /* \"contracts/FundMe.sol\":1722:1729  funders */\n      0x00\n        /* \"contracts/FundMe.sol\":1722:1748  funders = new address[](0) */\n      swap1\n      dup1\n      mload\n      swap1\n      0x20\n      add\n      swap1\n      tag_84\n      swap3\n      swap2\n      swap1\n      tag_85\n      jump\t// in\n    tag_84:\n      pop\n        /* \"contracts/FundMe.sol\":2135:2151  bool callsuccess */\n      0x00\n        /* \"contracts/FundMe.sol\":2194:2204  msg.sender */\n      caller\n        /* \"contracts/FundMe.sol\":2186:2210  payable(msg.sender).call */\n      0xffffffffffffffffffffffffffffffffffffffff\n      and\n        /* \"contracts/FundMe.sol\":2218:2239  address(this).balance */\n      selfbalance\n        /* \"contracts/FundMe.sol\":2186:2244  payable(msg.sender).call{value: address(this).balance}(\"\") */\n      mload(0x40)\n      tag_86\n      swap1\n      tag_63\n      jump\t// in\n    tag_86:\n      0x00\n      mload(0x40)\n      dup1\n      dup4\n      sub\n      dup2\n      dup6\n      dup8\n      gas\n      call\n      swap3\n      pop\n      pop\n      pop\n      returndatasize\n      dup1\n      0x00\n      dup2\n      eq\n      tag_89\n      jumpi\n      mload(0x40)\n      swap2\n      pop\n      and(add(returndatasize, 0x3f), not(0x1f))\n      dup3\n      add\n      0x40\n      mstore\n      returndatasize\n      dup3\n      mstore\n      returndatasize\n      0x00\n      0x20\n      dup5\n      add\n      returndatacopy\n      jump(tag_88)\n    tag_89:\n      0x60\n      swap2\n      pop\n    tag_88:\n      pop\n        /* \"contracts/FundMe.sol\":2134:2244  (bool callsuccess, /*bytes memory dataReturned*/ ) =payable(msg.sender).call{value: address(this).balance}(\"\") */\n      pop\n      swap1\n      pop\n        /* \"contracts/FundMe.sol\":2263:2274  callsuccess */\n      dup1\n        /* \"contracts/FundMe.sol\":2255:2293  require(callsuccess, \"Failed to call\") */\n      tag_90\n      jumpi\n      mload(0x40)\n      0x08c379a000000000000000000000000000000000000000000000000000000000\n      dup2\n      mstore\n      0x04\n      add\n      tag_91\n      swap1\n      tag_69\n      jump\t// in\n    tag_91:\n      mload(0x40)\n      dup1\n      swap2\n      sub\n      swap1\n      revert\n    tag_90:\n        /* \"contracts/FundMe.sol\":1465:2303  {... */\n      pop\n      pop\n        /* \"contracts/FundMe.sol\":1425:2303  function withdrawAll() public OnlyOwner {... */\n      jump\t// out\n        /* \"contracts/FundMe.sol\":237:269  address public immutable i_owner */\n    tag_40:\n      immutable(\"0x7446b42d7fe1689ec32fc1ca65129d9f21f1979742315d34500a6886f6986bea\")\n      dup2\n      jump\t// out\n        /* \"contracts/FundMe.sol\":689:713  address[] public funders */\n    tag_46:\n      0x00\n      dup2\n      dup2\n      sload\n      dup2\n      lt\n      tag_92\n      jumpi\n      0x00\n      dup1\n      revert\n    tag_92:\n      swap1\n      0x00\n      mstore\n      keccak256(0x00, 0x20)\n      add\n      0x00\n      swap2\n      pop\n      sload\n      swap1\n      0x0100\n      exp\n      swap1\n      div\n      0xffffffffffffffffffffffffffffffffffffffff\n      and\n      dup2\n      jump\t// out\n        /* \"contracts/PriceConverter.sol\":646:893  function getConversionRate(uint256 _ethAmount) internal view returns (uint256) {... */\n    tag_50:\n        /* \"contracts/PriceConverter.sol\":716:723  uint256 */\n      0x00\n        /* \"contracts/PriceConverter.sol\":736:752  uint256 ethPrice */\n      0x00\n        /* \"contracts/PriceConverter.sol\":755:765  getPrice() */\n      tag_95\n        /* \"contracts/PriceConverter.sol\":755:763  getPrice */\n      tag_96\n        /* \"contracts/PriceConverter.sol\":755:765  getPrice() */\n      jump\t// in\n    tag_95:\n        /* \"contracts/PriceConverter.sol\":736:765  uint256 ethPrice = getPrice() */\n      swap1\n      pop\n        /* \"contracts/PriceConverter.sol\":879:883  1e18 */\n      0x0de0b6b3a7640000\n        /* \"contracts/PriceConverter.sol\":865:875  _ethAmount */\n      dup4\n        /* \"contracts/PriceConverter.sol\":854:862  ethPrice */\n      dup3\n        /* \"contracts/PriceConverter.sol\":854:875  ethPrice * _ethAmount */\n      tag_97\n      swap2\n      swap1\n      tag_98\n      jump\t// in\n    tag_97:\n        /* \"contracts/PriceConverter.sol\":853:883  (ethPrice * _ethAmount) / 1e18 */\n      tag_99\n      swap2\n      swap1\n      tag_100\n      jump\t// in\n    tag_99:\n        /* \"contracts/PriceConverter.sol\":845:884  return ((ethPrice * _ethAmount) / 1e18) */\n      swap2\n      pop\n      pop\n        /* \"contracts/PriceConverter.sol\":646:893  function getConversionRate(uint256 _ethAmount) internal view returns (uint256) {... */\n      swap2\n      swap1\n      pop\n      jump\t// out\n        /* \"contracts/PriceConverter.sol\":212:638  function getPrice() internal view returns (uint256) {... */\n    tag_96:\n        /* \"contracts/PriceConverter.sol\":255:262  uint256 */\n      0x00\n        /* \"contracts/PriceConverter.sol\":397:428  AggregatorV3Interface priceFeed */\n      0x00\n        /* \"contracts/PriceConverter.sol\":453:495  0x694AA1769357215DE4FAC081bf1f309aDC325306 */\n      0x694aa1769357215de4fac081bf1f309adc325306\n        /* \"contracts/PriceConverter.sol\":397:496  AggregatorV3Interface priceFeed = AggregatorV3Interface(0x694AA1769357215DE4FAC081bf1f309aDC325306) */\n      swap1\n      pop\n        /* \"contracts/PriceConverter.sol\":545:557  int256 price */\n      0x00\n        /* \"contracts/PriceConverter.sol\":564:573  priceFeed */\n      dup2\n        /* \"contracts/PriceConverter.sol\":564:589  priceFeed.latestRoundData */\n      0xffffffffffffffffffffffffffffffffffffffff\n      and\n      0xfeaf968c\n        /* \"contracts/PriceConverter.sol\":564:591  priceFeed.latestRoundData() */\n      mload(0x40)\n      dup2\n      0xffffffff\n      and\n      0xe0\n      shl\n      dup2\n      mstore\n      0x04\n      add\n      0xa0\n      mload(0x40)\n      dup1\n      dup4\n      sub\n      dup2\n      dup7\n      gas\n      staticcall\n      iszero\n      dup1\n      iszero\n      tag_103\n      jumpi\n      returndatacopy(0x00, 0x00, returndatasize)\n      revert(0x00, returndatasize)\n    tag_103:\n      pop\n      pop\n      pop\n      pop\n      mload(0x40)\n      returndatasize\n      not(0x1f)\n      0x1f\n      dup3\n      add\n      and\n      dup3\n      add\n      dup1\n      0x40\n      mstore\n      pop\n      dup2\n      add\n      swap1\n      tag_104\n      swap2\n      swap1\n      tag_105\n      jump\t// in\n    tag_104:\n        /* \"contracts/PriceConverter.sol\":543:591  (,int256 price,,,) = priceFeed.latestRoundData() */\n      pop\n      pop\n      pop\n      swap2\n      pop\n      pop\n        /* \"contracts/PriceConverter.sol\":625:629  1e10 */\n      0x02540be400\n        /* \"contracts/PriceConverter.sol\":617:622  price */\n      dup2\n        /* \"contracts/PriceConverter.sol\":617:629  price * 1e10 */\n      tag_106\n      swap2\n      swap1\n      tag_107\n      jump\t// in\n    tag_106:\n        /* \"contracts/PriceConverter.sol\":602:630  return uint256(price * 1e10) */\n      swap3\n      pop\n      pop\n      pop\n        /* \"contracts/PriceConverter.sol\":212:638  function getPrice() internal view returns (uint256) {... */\n      swap1\n      jump\t// out\n    tag_85:\n      dup3\n      dup1\n      sload\n      dup3\n      dup3\n      sstore\n      swap1\n      0x00\n      mstore\n      keccak256(0x00, 0x20)\n      swap1\n      dup2\n      add\n      swap3\n      dup3\n      iszero\n      tag_108\n      jumpi\n      swap2\n      0x20\n      mul\n      dup3\n      add\n    tag_109:\n      dup3\n      dup2\n      gt\n      iszero\n      tag_110\n      jumpi\n      dup3\n      mload\n      dup3\n      exp(0x0100, 0x00)\n      dup2\n      sload\n      dup2\n      0xffffffffffffffffffffffffffffffffffffffff\n      mul\n      not\n      and\n      swap1\n      dup4\n      0xffffffffffffffffffffffffffffffffffffffff\n      and\n      mul\n      or\n      swap1\n      sstore\n      pop\n      swap2\n      0x20\n      add\n      swap2\n      swap1\n      0x01\n      add\n      swap1\n      jump(tag_109)\n    tag_110:\n    tag_108:\n      pop\n      swap1\n      pop\n      tag_111\n      swap2\n      swap1\n      tag_112\n      jump\t// in\n    tag_111:\n      pop\n      swap1\n      jump\t// out\n    tag_112:\n    tag_113:\n      dup1\n      dup3\n      gt\n      iszero\n      tag_114\n      jumpi\n      0x00\n      dup2\n      0x00\n      swap1\n      sstore\n      pop\n      0x01\n      add\n      jump(tag_113)\n    tag_114:\n      pop\n      swap1\n      jump\t// out\n        /* \"#utility.yul\":88:205   */\n    tag_116:\n        /* \"#utility.yul\":197:198   */\n      0x00\n        /* \"#utility.yul\":194:195   */\n      0x00\n        /* \"#utility.yul\":187:199   */\n      revert\n        /* \"#utility.yul\":334:411   */\n    tag_118:\n        /* \"#utility.yul\":371:378   */\n      0x00\n        /* \"#utility.yul\":400:405   */\n      dup2\n        /* \"#utility.yul\":389:405   */\n      swap1\n      pop\n        /* \"#utility.yul\":334:411   */\n      swap2\n      swap1\n      pop\n      jump\t// out\n        /* \"#utility.yul\":417:539   */\n    tag_119:\n        /* \"#utility.yul\":490:514   */\n      tag_152\n        /* \"#utility.yul\":508:513   */\n      dup2\n        /* \"#utility.yul\":490:514   */\n      tag_118\n      jump\t// in\n    tag_152:\n        /* \"#utility.yul\":483:488   */\n      dup2\n        /* \"#utility.yul\":480:515   */\n      eq\n        /* \"#utility.yul\":470:533   */\n      tag_153\n      jumpi\n        /* \"#utility.yul\":529:530   */\n      0x00\n        /* \"#utility.yul\":526:527   */\n      0x00\n        /* \"#utility.yul\":519:531   */\n      revert\n        /* \"#utility.yul\":470:533   */\n    tag_153:\n        /* \"#utility.yul\":417:539   */\n      pop\n      jump\t// out\n        /* \"#utility.yul\":545:684   */\n    tag_120:\n        /* \"#utility.yul\":591:596   */\n      0x00\n        /* \"#utility.yul\":629:635   */\n      dup2\n        /* \"#utility.yul\":616:636   */\n      calldataload\n        /* \"#utility.yul\":607:636   */\n      swap1\n      pop\n        /* \"#utility.yul\":645:678   */\n      tag_155\n        /* \"#utility.yul\":672:677   */\n      dup2\n        /* \"#utility.yul\":645:678   */\n      tag_119\n      jump\t// in\n    tag_155:\n        /* \"#utility.yul\":545:684   */\n      swap3\n      swap2\n      pop\n      pop\n      jump\t// out\n        /* \"#utility.yul\":690:1019   */\n    tag_21:\n        /* \"#utility.yul\":749:755   */\n      0x00\n        /* \"#utility.yul\":798:800   */\n      0x20\n        /* \"#utility.yul\":786:795   */\n      dup3\n        /* \"#utility.yul\":777:784   */\n      dup5\n        /* \"#utility.yul\":773:796   */\n      sub\n        /* \"#utility.yul\":769:801   */\n      slt\n        /* \"#utility.yul\":766:885   */\n      iszero\n      tag_157\n      jumpi\n        /* \"#utility.yul\":804:883   */\n      tag_158\n      tag_116\n      jump\t// in\n    tag_158:\n        /* \"#utility.yul\":766:885   */\n    tag_157:\n        /* \"#utility.yul\":924:925   */\n      0x00\n        /* \"#utility.yul\":949:1002   */\n      tag_159\n        /* \"#utility.yul\":994:1001   */\n      dup5\n        /* \"#utility.yul\":985:991   */\n      dup3\n        /* \"#utility.yul\":974:983   */\n      dup6\n        /* \"#utility.yul\":970:992   */\n      add\n        /* \"#utility.yul\":949:1002   */\n      tag_120\n      jump\t// in\n    tag_159:\n        /* \"#utility.yul\":939:1002   */\n      swap2\n      pop\n        /* \"#utility.yul\":895:1012   */\n      pop\n        /* \"#utility.yul\":690:1019   */\n      swap3\n      swap2\n      pop\n      pop\n      jump\t// out\n        /* \"#utility.yul\":1025:1143   */\n    tag_121:\n        /* \"#utility.yul\":1112:1136   */\n      tag_161\n        /* \"#utility.yul\":1130:1135   */\n      dup2\n        /* \"#utility.yul\":1112:1136   */\n      tag_118\n      jump\t// in\n    tag_161:\n        /* \"#utility.yul\":1107:1110   */\n      dup3\n        /* \"#utility.yul\":1100:1137   */\n      mstore\n        /* \"#utility.yul\":1025:1143   */\n      pop\n      pop\n      jump\t// out\n        /* \"#utility.yul\":1149:1371   */\n    tag_27:\n        /* \"#utility.yul\":1242:1246   */\n      0x00\n        /* \"#utility.yul\":1280:1282   */\n      0x20\n        /* \"#utility.yul\":1269:1278   */\n      dup3\n        /* \"#utility.yul\":1265:1283   */\n      add\n        /* \"#utility.yul\":1257:1283   */\n      swap1\n      pop\n        /* \"#utility.yul\":1293:1364   */\n      tag_163\n        /* \"#utility.yul\":1361:1362   */\n      0x00\n        /* \"#utility.yul\":1350:1359   */\n      dup4\n        /* \"#utility.yul\":1346:1363   */\n      add\n        /* \"#utility.yul\":1337:1343   */\n      dup5\n        /* \"#utility.yul\":1293:1364   */\n      tag_121\n      jump\t// in\n    tag_163:\n        /* \"#utility.yul\":1149:1371   */\n      swap3\n      swap2\n      pop\n      pop\n      jump\t// out\n        /* \"#utility.yul\":1377:1503   */\n    tag_122:\n        /* \"#utility.yul\":1414:1421   */\n      0x00\n        /* \"#utility.yul\":1454:1496   */\n      0xffffffffffffffffffffffffffffffffffffffff\n        /* \"#utility.yul\":1447:1452   */\n      dup3\n        /* \"#utility.yul\":1443:1497   */\n      and\n        /* \"#utility.yul\":1432:1497   */\n      swap1\n      pop\n        /* \"#utility.yul\":1377:1503   */\n      swap2\n      swap1\n      pop\n      jump\t// out\n        /* \"#utility.yul\":1509:1605   */\n    tag_123:\n        /* \"#utility.yul\":1546:1553   */\n      0x00\n        /* \"#utility.yul\":1575:1599   */\n      tag_166\n        /* \"#utility.yul\":1593:1598   */\n      dup3\n        /* \"#utility.yul\":1575:1599   */\n      tag_122\n      jump\t// in\n    tag_166:\n        /* \"#utility.yul\":1564:1599   */\n      swap1\n      pop\n        /* \"#utility.yul\":1509:1605   */\n      swap2\n      swap1\n      pop\n      jump\t// out\n        /* \"#utility.yul\":1611:1733   */\n    tag_124:\n        /* \"#utility.yul\":1684:1708   */\n      tag_168\n        /* \"#utility.yul\":1702:1707   */\n      dup2\n        /* \"#utility.yul\":1684:1708   */\n      tag_123\n      jump\t// in\n    tag_168:\n        /* \"#utility.yul\":1677:1682   */\n      dup2\n        /* \"#utility.yul\":1674:1709   */\n      eq\n        /* \"#utility.yul\":1664:1727   */\n      tag_169\n      jumpi\n        /* \"#utility.yul\":1723:1724   */\n      0x00\n        /* \"#utility.yul\":1720:1721   */\n      0x00\n        /* \"#utility.yul\":1713:1725   */\n      revert\n        /* \"#utility.yul\":1664:1727   */\n    tag_169:\n        /* \"#utility.yul\":1611:1733   */\n      pop\n      jump\t// out\n        /* \"#utility.yul\":1739:1878   */\n    tag_125:\n        /* \"#utility.yul\":1785:1790   */\n      0x00\n        /* \"#utility.yul\":1823:1829   */\n      dup2\n        /* \"#utility.yul\":1810:1830   */\n      calldataload\n        /* \"#utility.yul\":1801:1830   */\n      swap1\n      pop\n        /* \"#utility.yul\":1839:1872   */\n      tag_171\n        /* \"#utility.yul\":1866:1871   */\n      dup2\n        /* \"#utility.yul\":1839:1872   */\n      tag_124\n      jump\t// in\n    tag_171:\n        /* \"#utility.yul\":1739:1878   */\n      swap3\n      swap2\n      pop\n      pop\n      jump\t// out\n        /* \"#utility.yul\":1884:2213   */\n    tag_31:\n        /* \"#utility.yul\":1943:1949   */\n      0x00\n        /* \"#utility.yul\":1992:1994   */\n      0x20\n        /* \"#utility.yul\":1980:1989   */\n      dup3\n        /* \"#utility.yul\":1971:1978   */\n      dup5\n        /* \"#utility.yul\":1967:1990   */\n      sub\n        /* \"#utility.yul\":1963:1995   */\n      slt\n        /* \"#utility.yul\":1960:2079   */\n      iszero\n      tag_173\n      jumpi\n        /* \"#utility.yul\":1998:2077   */\n      tag_174\n      tag_116\n      jump\t// in\n    tag_174:\n        /* \"#utility.yul\":1960:2079   */\n    tag_173:\n        /* \"#utility.yul\":2118:2119   */\n      0x00\n        /* \"#utility.yul\":2143:2196   */\n      tag_175\n        /* \"#utility.yul\":2188:2195   */\n      dup5\n        /* \"#utility.yul\":2179:2185   */\n      dup3\n        /* \"#utility.yul\":2168:2177   */\n      dup6\n        /* \"#utility.yul\":2164:2186   */\n      add\n        /* \"#utility.yul\":2143:2196   */\n      tag_125\n      jump\t// in\n    tag_175:\n        /* \"#utility.yul\":2133:2196   */\n      swap2\n      pop\n        /* \"#utility.yul\":2089:2206   */\n      pop\n        /* \"#utility.yul\":1884:2213   */\n      swap3\n      swap2\n      pop\n      pop\n      jump\t// out\n        /* \"#utility.yul\":2219:2337   */\n    tag_126:\n        /* \"#utility.yul\":2306:2330   */\n      tag_177\n        /* \"#utility.yul\":2324:2329   */\n      dup2\n        /* \"#utility.yul\":2306:2330   */\n      tag_123\n      jump\t// in\n    tag_177:\n        /* \"#utility.yul\":2301:2304   */\n      dup3\n        /* \"#utility.yul\":2294:2331   */\n      mstore\n        /* \"#utility.yul\":2219:2337   */\n      pop\n      pop\n      jump\t// out\n        /* \"#utility.yul\":2343:2565   */\n    tag_42:\n        /* \"#utility.yul\":2436:2440   */\n      0x00\n        /* \"#utility.yul\":2474:2476   */\n      0x20\n        /* \"#utility.yul\":2463:2472   */\n      dup3\n        /* \"#utility.yul\":2459:2477   */\n      add\n        /* \"#utility.yul\":2451:2477   */\n      swap1\n      pop\n        /* \"#utility.yul\":2487:2558   */\n      tag_179\n        /* \"#utility.yul\":2555:2556   */\n      0x00\n        /* \"#utility.yul\":2544:2553   */\n      dup4\n        /* \"#utility.yul\":2540:2557   */\n      add\n        /* \"#utility.yul\":2531:2537   */\n      dup5\n        /* \"#utility.yul\":2487:2558   */\n      tag_126\n      jump\t// in\n    tag_179:\n        /* \"#utility.yul\":2343:2565   */\n      swap3\n      swap2\n      pop\n      pop\n      jump\t// out\n        /* \"#utility.yul\":2571:2740   */\n    tag_127:\n        /* \"#utility.yul\":2655:2666   */\n      0x00\n        /* \"#utility.yul\":2689:2695   */\n      dup3\n        /* \"#utility.yul\":2684:2687   */\n      dup3\n        /* \"#utility.yul\":2677:2696   */\n      mstore\n        /* \"#utility.yul\":2729:2733   */\n      0x20\n        /* \"#utility.yul\":2724:2727   */\n      dup3\n        /* \"#utility.yul\":2720:2734   */\n      add\n        /* \"#utility.yul\":2705:2734   */\n      swap1\n      pop\n        /* \"#utility.yul\":2571:2740   */\n      swap3\n      swap2\n      pop\n      pop\n      jump\t// out\n        /* \"#utility.yul\":2746:2910   */\n    tag_128:\n        /* \"#utility.yul\":2886:2902   */\n      0x4e6f7420456e6f75676820457468000000000000000000000000000000000000\n        /* \"#utility.yul\":2882:2883   */\n      0x00\n        /* \"#utility.yul\":2874:2880   */\n      dup3\n        /* \"#utility.yul\":2870:2884   */\n      add\n        /* \"#utility.yul\":2863:2903   */\n      mstore\n        /* \"#utility.yul\":2746:2910   */\n      pop\n      jump\t// out\n        /* \"#utility.yul\":2916:3282   */\n    tag_129:\n        /* \"#utility.yul\":3058:3061   */\n      0x00\n        /* \"#utility.yul\":3079:3146   */\n      tag_183\n        /* \"#utility.yul\":3143:3145   */\n      0x0e\n        /* \"#utility.yul\":3138:3141   */\n      dup4\n        /* \"#utility.yul\":3079:3146   */\n      tag_127\n      jump\t// in\n    tag_183:\n        /* \"#utility.yul\":3072:3146   */\n      swap2\n      pop\n        /* \"#utility.yul\":3155:3248   */\n      tag_184\n        /* \"#utility.yul\":3244:3247   */\n      dup3\n        /* \"#utility.yul\":3155:3248   */\n      tag_128\n      jump\t// in\n    tag_184:\n        /* \"#utility.yul\":3273:3275   */\n      0x20\n        /* \"#utility.yul\":3268:3271   */\n      dup3\n        /* \"#utility.yul\":3264:3276   */\n      add\n        /* \"#utility.yul\":3257:3276   */\n      swap1\n      pop\n        /* \"#utility.yul\":2916:3282   */\n      swap2\n      swap1\n      pop\n      jump\t// out\n        /* \"#utility.yul\":3288:3707   */\n    tag_53:\n        /* \"#utility.yul\":3454:3458   */\n      0x00\n        /* \"#utility.yul\":3492:3494   */\n      0x20\n        /* \"#utility.yul\":3481:3490   */\n      dup3\n        /* \"#utility.yul\":3477:3495   */\n      add\n        /* \"#utility.yul\":3469:3495   */\n      swap1\n      pop\n        /* \"#utility.yul\":3541:3550   */\n      dup2\n        /* \"#utility.yul\":3535:3539   */\n      dup2\n        /* \"#utility.yul\":3531:3551   */\n      sub\n        /* \"#utility.yul\":3527:3528   */\n      0x00\n        /* \"#utility.yul\":3516:3525   */\n      dup4\n        /* \"#utility.yul\":3512:3529   */\n      add\n        /* \"#utility.yul\":3505:3552   */\n      mstore\n        /* \"#utility.yul\":3569:3700   */\n      tag_186\n        /* \"#utility.yul\":3695:3699   */\n      dup2\n        /* \"#utility.yul\":3569:3700   */\n      tag_129\n      jump\t// in\n    tag_186:\n        /* \"#utility.yul\":3561:3700   */\n      swap1\n      pop\n        /* \"#utility.yul\":3288:3707   */\n      swap2\n      swap1\n      pop\n      jump\t// out\n        /* \"#utility.yul\":3713:3935   */\n    tag_130:\n        /* \"#utility.yul\":3853:3887   */\n      0x43616e6e6f74207769746864726177206d6f7265207468616e20617662696c61\n        /* \"#utility.yul\":3849:3850   */\n      0x00\n        /* \"#utility.yul\":3841:3847   */\n      dup3\n        /* \"#utility.yul\":3837:3851   */\n      add\n        /* \"#utility.yul\":3830:3888   */\n      mstore\n        /* \"#utility.yul\":3922:3927   */\n      0x626c650000000000000000000000000000000000000000000000000000000000\n        /* \"#utility.yul\":3917:3919   */\n      0x20\n        /* \"#utility.yul\":3909:3915   */\n      dup3\n        /* \"#utility.yul\":3905:3920   */\n      add\n        /* \"#utility.yul\":3898:3928   */\n      mstore\n        /* \"#utility.yul\":3713:3935   */\n      pop\n      jump\t// out\n        /* \"#utility.yul\":3941:4307   */\n    tag_131:\n        /* \"#utility.yul\":4083:4086   */\n      0x00\n        /* \"#utility.yul\":4104:4171   */\n      tag_189\n        /* \"#utility.yul\":4168:4170   */\n      0x23\n        /* \"#utility.yul\":4163:4166   */\n      dup4\n        /* \"#utility.yul\":4104:4171   */\n      tag_127\n      jump\t// in\n    tag_189:\n        /* \"#utility.yul\":4097:4171   */\n      swap2\n      pop\n        /* \"#utility.yul\":4180:4273   */\n      tag_190\n        /* \"#utility.yul\":4269:4272   */\n      dup3\n        /* \"#utility.yul\":4180:4273   */\n      tag_130\n      jump\t// in\n    tag_190:\n        /* \"#utility.yul\":4298:4300   */\n      0x40\n        /* \"#utility.yul\":4293:4296   */\n      dup3\n        /* \"#utility.yul\":4289:4301   */\n      add\n        /* \"#utility.yul\":4282:4301   */\n      swap1\n      pop\n        /* \"#utility.yul\":3941:4307   */\n      swap2\n      swap1\n      pop\n      jump\t// out\n        /* \"#utility.yul\":4313:4732   */\n    tag_60:\n        /* \"#utility.yul\":4479:4483   */\n      0x00\n        /* \"#utility.yul\":4517:4519   */\n      0x20\n        /* \"#utility.yul\":4506:4515   */\n      dup3\n        /* \"#utility.yul\":4502:4520   */\n      add\n        /* \"#utility.yul\":4494:4520   */\n      swap1\n      pop\n        /* \"#utility.yul\":4566:4575   */\n      dup2\n        /* \"#utility.yul\":4560:4564   */\n      dup2\n        /* \"#utility.yul\":4556:4576   */\n      sub\n        /* \"#utility.yul\":4552:4553   */\n      0x00\n        /* \"#utility.yul\":4541:4550   */\n      dup4\n        /* \"#utility.yul\":4537:4554   */\n      add\n        /* \"#utility.yul\":4530:4577   */\n      mstore\n        /* \"#utility.yul\":4594:4725   */\n      tag_192\n        /* \"#utility.yul\":4720:4724   */\n      dup2\n        /* \"#utility.yul\":4594:4725   */\n      tag_131\n      jump\t// in\n    tag_192:\n        /* \"#utility.yul\":4586:4725   */\n      swap1\n      pop\n        /* \"#utility.yul\":4313:4732   */\n      swap2\n      swap1\n      pop\n      jump\t// out\n        /* \"#utility.yul\":4738:4885   */\n    tag_132:\n        /* \"#utility.yul\":4839:4850   */\n      0x00\n        /* \"#utility.yul\":4876:4879   */\n      dup2\n        /* \"#utility.yul\":4861:4879   */\n      swap1\n      pop\n        /* \"#utility.yul\":4738:4885   */\n      swap3\n      swap2\n      pop\n      pop\n      jump\t// out\n        /* \"#utility.yul\":4891:5005   */\n    tag_133:\n      pop\n      jump\t// out\n        /* \"#utility.yul\":5011:5409   */\n    tag_134:\n        /* \"#utility.yul\":5170:5173   */\n      0x00\n        /* \"#utility.yul\":5191:5274   */\n      tag_196\n        /* \"#utility.yul\":5272:5273   */\n      0x00\n        /* \"#utility.yul\":5267:5270   */\n      dup4\n        /* \"#utility.yul\":5191:5274   */\n      tag_132\n      jump\t// in\n    tag_196:\n        /* \"#utility.yul\":5184:5274   */\n      swap2\n      pop\n        /* \"#utility.yul\":5283:5376   */\n      tag_197\n        /* \"#utility.yul\":5372:5375   */\n      dup3\n        /* \"#utility.yul\":5283:5376   */\n      tag_133\n      jump\t// in\n    tag_197:\n        /* \"#utility.yul\":5401:5402   */\n      0x00\n        /* \"#utility.yul\":5396:5399   */\n      dup3\n        /* \"#utility.yul\":5392:5403   */\n      add\n        /* \"#utility.yul\":5385:5403   */\n      swap1\n      pop\n        /* \"#utility.yul\":5011:5409   */\n      swap2\n      swap1\n      pop\n      jump\t// out\n        /* \"#utility.yul\":5415:5794   */\n    tag_63:\n        /* \"#utility.yul\":5599:5602   */\n      0x00\n        /* \"#utility.yul\":5621:5768   */\n      tag_199\n        /* \"#utility.yul\":5764:5767   */\n      dup3\n        /* \"#utility.yul\":5621:5768   */\n      tag_134\n      jump\t// in\n    tag_199:\n        /* \"#utility.yul\":5614:5768   */\n      swap2\n      pop\n        /* \"#utility.yul\":5785:5788   */\n      dup2\n        /* \"#utility.yul\":5778:5788   */\n      swap1\n      pop\n        /* \"#utility.yul\":5415:5794   */\n      swap2\n      swap1\n      pop\n      jump\t// out\n        /* \"#utility.yul\":5800:5964   */\n    tag_135:\n        /* \"#utility.yul\":5940:5956   */\n      0x4661696c656420746f2063616c6c000000000000000000000000000000000000\n        /* \"#utility.yul\":5936:5937   */\n      0x00\n        /* \"#utility.yul\":5928:5934   */\n      dup3\n        /* \"#utility.yul\":5924:5938   */\n      add\n        /* \"#utility.yul\":5917:5957   */\n      mstore\n        /* \"#utility.yul\":5800:5964   */\n      pop\n      jump\t// out\n        /* \"#utility.yul\":5970:6336   */\n    tag_136:\n        /* \"#utility.yul\":6112:6115   */\n      0x00\n        /* \"#utility.yul\":6133:6200   */\n      tag_202\n        /* \"#utility.yul\":6197:6199   */\n      0x0e\n        /* \"#utility.yul\":6192:6195   */\n      dup4\n        /* \"#utility.yul\":6133:6200   */\n      tag_127\n      jump\t// in\n    tag_202:\n        /* \"#utility.yul\":6126:6200   */\n      swap2\n      pop\n        /* \"#utility.yul\":6209:6302   */\n      tag_203\n        /* \"#utility.yul\":6298:6301   */\n      dup3\n        /* \"#utility.yul\":6209:6302   */\n      tag_135\n      jump\t// in\n    tag_203:\n        /* \"#utility.yul\":6327:6329   */\n      0x20\n        /* \"#utility.yul\":6322:6325   */\n      dup3\n        /* \"#utility.yul\":6318:6330   */\n      add\n        /* \"#utility.yul\":6311:6330   */\n      swap1\n      pop\n        /* \"#utility.yul\":5970:6336   */\n      swap2\n      swap1\n      pop\n      jump\t// out\n        /* \"#utility.yul\":6342:6761   */\n    tag_69:\n        /* \"#utility.yul\":6508:6512   */\n      0x00\n        /* \"#utility.yul\":6546:6548   */\n      0x20\n        /* \"#utility.yul\":6535:6544   */\n      dup3\n        /* \"#utility.yul\":6531:6549   */\n      add\n        /* \"#utility.yul\":6523:6549   */\n      swap1\n      pop\n        /* \"#utility.yul\":6595:6604   */\n      dup2\n        /* \"#utility.yul\":6589:6593   */\n      dup2\n        /* \"#utility.yul\":6585:6605   */\n      sub\n        /* \"#utility.yul\":6581:6582   */\n      0x00\n        /* \"#utility.yul\":6570:6579   */\n      dup4\n        /* \"#utility.yul\":6566:6583   */\n      add\n        /* \"#utility.yul\":6559:6606   */\n      mstore\n        /* \"#utility.yul\":6623:6754   */\n      tag_205\n        /* \"#utility.yul\":6749:6753   */\n      dup2\n        /* \"#utility.yul\":6623:6754   */\n      tag_136\n      jump\t// in\n    tag_205:\n        /* \"#utility.yul\":6615:6754   */\n      swap1\n      pop\n        /* \"#utility.yul\":6342:6761   */\n      swap2\n      swap1\n      pop\n      jump\t// out\n        /* \"#utility.yul\":6767:6947   */\n    tag_78:\n        /* \"#utility.yul\":6815:6892   */\n      0x4e487b7100000000000000000000000000000000000000000000000000000000\n        /* \"#utility.yul\":6812:6813   */\n      0x00\n        /* \"#utility.yul\":6805:6893   */\n      mstore\n        /* \"#utility.yul\":6912:6916   */\n      0x32\n        /* \"#utility.yul\":6909:6910   */\n      0x04\n        /* \"#utility.yul\":6902:6917   */\n      mstore\n        /* \"#utility.yul\":6936:6940   */\n      0x24\n        /* \"#utility.yul\":6933:6934   */\n      0x00\n        /* \"#utility.yul\":6926:6941   */\n      revert\n        /* \"#utility.yul\":6953:7133   */\n    tag_82:\n        /* \"#utility.yul\":7001:7078   */\n      0x4e487b7100000000000000000000000000000000000000000000000000000000\n        /* \"#utility.yul\":6998:6999   */\n      0x00\n        /* \"#utility.yul\":6991:7079   */\n      mstore\n        /* \"#utility.yul\":7098:7102   */\n      0x41\n        /* \"#utility.yul\":7095:7096   */\n      0x04\n        /* \"#utility.yul\":7088:7103   */\n      mstore\n        /* \"#utility.yul\":7122:7126   */\n      0x24\n        /* \"#utility.yul\":7119:7120   */\n      0x00\n        /* \"#utility.yul\":7112:7127   */\n      revert\n        /* \"#utility.yul\":7139:7319   */\n    tag_137:\n        /* \"#utility.yul\":7187:7264   */\n      0x4e487b7100000000000000000000000000000000000000000000000000000000\n        /* \"#utility.yul\":7184:7185   */\n      0x00\n        /* \"#utility.yul\":7177:7265   */\n      mstore\n        /* \"#utility.yul\":7284:7288   */\n      0x11\n        /* \"#utility.yul\":7281:7282   */\n      0x04\n        /* \"#utility.yul\":7274:7289   */\n      mstore\n        /* \"#utility.yul\":7308:7312   */\n      0x24\n        /* \"#utility.yul\":7305:7306   */\n      0x00\n        /* \"#utility.yul\":7298:7313   */\n      revert\n        /* \"#utility.yul\":7325:7735   */\n    tag_98:\n        /* \"#utility.yul\":7365:7372   */\n      0x00\n        /* \"#utility.yul\":7388:7408   */\n      tag_210\n        /* \"#utility.yul\":7406:7407   */\n      dup3\n        /* \"#utility.yul\":7388:7408   */\n      tag_118\n      jump\t// in\n    tag_210:\n        /* \"#utility.yul\":7383:7408   */\n      swap2\n      pop\n        /* \"#utility.yul\":7422:7442   */\n      tag_211\n        /* \"#utility.yul\":7440:7441   */\n      dup4\n        /* \"#utility.yul\":7422:7442   */\n      tag_118\n      jump\t// in\n    tag_211:\n        /* \"#utility.yul\":7417:7442   */\n      swap3\n      pop\n        /* \"#utility.yul\":7477:7478   */\n      dup3\n        /* \"#utility.yul\":7474:7475   */\n      dup3\n        /* \"#utility.yul\":7470:7479   */\n      mul\n        /* \"#utility.yul\":7499:7529   */\n      tag_212\n        /* \"#utility.yul\":7517:7528   */\n      dup2\n        /* \"#utility.yul\":7499:7529   */\n      tag_118\n      jump\t// in\n    tag_212:\n        /* \"#utility.yul\":7488:7529   */\n      swap2\n      pop\n        /* \"#utility.yul\":7678:7679   */\n      dup3\n        /* \"#utility.yul\":7669:7676   */\n      dup3\n        /* \"#utility.yul\":7665:7680   */\n      div\n        /* \"#utility.yul\":7662:7663   */\n      dup5\n        /* \"#utility.yul\":7659:7681   */\n      eq\n        /* \"#utility.yul\":7639:7640   */\n      dup4\n        /* \"#utility.yul\":7632:7641   */\n      iszero\n        /* \"#utility.yul\":7612:7695   */\n      or\n        /* \"#utility.yul\":7589:7728   */\n      tag_213\n      jumpi\n        /* \"#utility.yul\":7708:7726   */\n      tag_214\n      tag_137\n      jump\t// in\n    tag_214:\n        /* \"#utility.yul\":7589:7728   */\n    tag_213:\n        /* \"#utility.yul\":7373:7735   */\n      pop\n        /* \"#utility.yul\":7325:7735   */\n      swap3\n      swap2\n      pop\n      pop\n      jump\t// out\n        /* \"#utility.yul\":7741:7921   */\n    tag_138:\n        /* \"#utility.yul\":7789:7866   */\n      0x4e487b7100000000000000000000000000000000000000000000000000000000\n        /* \"#utility.yul\":7786:7787   */\n      0x00\n        /* \"#utility.yul\":7779:7867   */\n      mstore\n        /* \"#utility.yul\":7886:7890   */\n      0x12\n        /* \"#utility.yul\":7883:7884   */\n      0x04\n        /* \"#utility.yul\":7876:7891   */\n      mstore\n        /* \"#utility.yul\":7910:7914   */\n      0x24\n        /* \"#utility.yul\":7907:7908   */\n      0x00\n        /* \"#utility.yul\":7900:7915   */\n      revert\n        /* \"#utility.yul\":7927:8112   */\n    tag_100:\n        /* \"#utility.yul\":7967:7968   */\n      0x00\n        /* \"#utility.yul\":7984:8004   */\n      tag_217\n        /* \"#utility.yul\":8002:8003   */\n      dup3\n        /* \"#utility.yul\":7984:8004   */\n      tag_118\n      jump\t// in\n    tag_217:\n        /* \"#utility.yul\":7979:8004   */\n      swap2\n      pop\n        /* \"#utility.yul\":8018:8038   */\n      tag_218\n        /* \"#utility.yul\":8036:8037   */\n      dup4\n        /* \"#utility.yul\":8018:8038   */\n      tag_118\n      jump\t// in\n    tag_218:\n        /* \"#utility.yul\":8013:8038   */\n      swap3\n      pop\n        /* \"#utility.yul\":8057:8058   */\n      dup3\n        /* \"#utility.yul\":8047:8082   */\n      tag_219\n      jumpi\n        /* \"#utility.yul\":8062:8080   */\n      tag_220\n      tag_138\n      jump\t// in\n    tag_220:\n        /* \"#utility.yul\":8047:8082   */\n    tag_219:\n        /* \"#utility.yul\":8104:8105   */\n      dup3\n        /* \"#utility.yul\":8101:8102   */\n      dup3\n        /* \"#utility.yul\":8097:8106   */\n      div\n        /* \"#utility.yul\":8092:8106   */\n      swap1\n      pop\n        /* \"#utility.yul\":7927:8112   */\n      swap3\n      swap2\n      pop\n      pop\n      jump\t// out\n        /* \"#utility.yul\":8118:8223   */\n    tag_139:\n        /* \"#utility.yul\":8154:8161   */\n      0x00\n        /* \"#utility.yul\":8194:8216   */\n      0xffffffffffffffffffff\n        /* \"#utility.yul\":8187:8192   */\n      dup3\n        /* \"#utility.yul\":8183:8217   */\n      and\n        /* \"#utility.yul\":8172:8217   */\n      swap1\n      pop\n        /* \"#utility.yul\":8118:8223   */\n      swap2\n      swap1\n      pop\n      jump\t// out\n        /* \"#utility.yul\":8229:8349   */\n    tag_140:\n        /* \"#utility.yul\":8301:8324   */\n      tag_223\n        /* \"#utility.yul\":8318:8323   */\n      dup2\n        /* \"#utility.yul\":8301:8324   */\n      tag_139\n      jump\t// in\n    tag_223:\n        /* \"#utility.yul\":8294:8299   */\n      dup2\n        /* \"#utility.yul\":8291:8325   */\n      eq\n        /* \"#utility.yul\":8281:8343   */\n      tag_224\n      jumpi\n        /* \"#utility.yul\":8339:8340   */\n      0x00\n        /* \"#utility.yul\":8336:8337   */\n      0x00\n        /* \"#utility.yul\":8329:8341   */\n      revert\n        /* \"#utility.yul\":8281:8343   */\n    tag_224:\n        /* \"#utility.yul\":8229:8349   */\n      pop\n      jump\t// out\n        /* \"#utility.yul\":8355:8496   */\n    tag_141:\n        /* \"#utility.yul\":8411:8416   */\n      0x00\n        /* \"#utility.yul\":8442:8448   */\n      dup2\n        /* \"#utility.yul\":8436:8449   */\n      mload\n        /* \"#utility.yul\":8427:8449   */\n      swap1\n      pop\n        /* \"#utility.yul\":8458:8490   */\n      tag_226\n        /* \"#utility.yul\":8484:8489   */\n      dup2\n        /* \"#utility.yul\":8458:8490   */\n      tag_140\n      jump\t// in\n    tag_226:\n        /* \"#utility.yul\":8355:8496   */\n      swap3\n      swap2\n      pop\n      pop\n      jump\t// out\n        /* \"#utility.yul\":8502:8578   */\n    tag_142:\n        /* \"#utility.yul\":8538:8545   */\n      0x00\n        /* \"#utility.yul\":8567:8572   */\n      dup2\n        /* \"#utility.yul\":8556:8572   */\n      swap1\n      pop\n        /* \"#utility.yul\":8502:8578   */\n      swap2\n      swap1\n      pop\n      jump\t// out\n        /* \"#utility.yul\":8584:8704   */\n    tag_143:\n        /* \"#utility.yul\":8656:8679   */\n      tag_229\n        /* \"#utility.yul\":8673:8678   */\n      dup2\n        /* \"#utility.yul\":8656:8679   */\n      tag_142\n      jump\t// in\n    tag_229:\n        /* \"#utility.yul\":8649:8654   */\n      dup2\n        /* \"#utility.yul\":8646:8680   */\n      eq\n        /* \"#utility.yul\":8636:8698   */\n      tag_230\n      jumpi\n        /* \"#utility.yul\":8694:8695   */\n      0x00\n        /* \"#utility.yul\":8691:8692   */\n      0x00\n        /* \"#utility.yul\":8684:8696   */\n      revert\n        /* \"#utility.yul\":8636:8698   */\n    tag_230:\n        /* \"#utility.yul\":8584:8704   */\n      pop\n      jump\t// out\n        /* \"#utility.yul\":8710:8851   */\n    tag_144:\n        /* \"#utility.yul\":8766:8771   */\n      0x00\n        /* \"#utility.yul\":8797:8803   */\n      dup2\n        /* \"#utility.yul\":8791:8804   */\n      mload\n        /* \"#utility.yul\":8782:8804   */\n      swap1\n      pop\n        /* \"#utility.yul\":8813:8845   */\n      tag_232\n        /* \"#utility.yul\":8839:8844   */\n      dup2\n        /* \"#utility.yul\":8813:8845   */\n      tag_143\n      jump\t// in\n    tag_232:\n        /* \"#utility.yul\":8710:8851   */\n      swap3\n      swap2\n      pop\n      pop\n      jump\t// out\n        /* \"#utility.yul\":8857:9000   */\n    tag_145:\n        /* \"#utility.yul\":8914:8919   */\n      0x00\n        /* \"#utility.yul\":8945:8951   */\n      dup2\n        /* \"#utility.yul\":8939:8952   */\n      mload\n        /* \"#utility.yul\":8930:8952   */\n      swap1\n      pop\n        /* \"#utility.yul\":8961:8994   */\n      tag_234\n        /* \"#utility.yul\":8988:8993   */\n      dup2\n        /* \"#utility.yul\":8961:8994   */\n      tag_119\n      jump\t// in\n    tag_234:\n        /* \"#utility.yul\":8857:9000   */\n      swap3\n      swap2\n      pop\n      pop\n      jump\t// out\n        /* \"#utility.yul\":9006:9977   */\n    tag_105:\n        /* \"#utility.yul\":9109:9115   */\n      0x00\n        /* \"#utility.yul\":9117:9123   */\n      0x00\n        /* \"#utility.yul\":9125:9131   */\n      0x00\n        /* \"#utility.yul\":9133:9139   */\n      0x00\n        /* \"#utility.yul\":9141:9147   */\n      0x00\n        /* \"#utility.yul\":9190:9193   */\n      0xa0\n        /* \"#utility.yul\":9178:9187   */\n      dup7\n        /* \"#utility.yul\":9169:9176   */\n      dup9\n        /* \"#utility.yul\":9165:9188   */\n      sub\n        /* \"#utility.yul\":9161:9194   */\n      slt\n        /* \"#utility.yul\":9158:9278   */\n      iszero\n      tag_236\n      jumpi\n        /* \"#utility.yul\":9197:9276   */\n      tag_237\n      tag_116\n      jump\t// in\n    tag_237:\n        /* \"#utility.yul\":9158:9278   */\n    tag_236:\n        /* \"#utility.yul\":9317:9318   */\n      0x00\n        /* \"#utility.yul\":9342:9405   */\n      tag_238\n        /* \"#utility.yul\":9397:9404   */\n      dup9\n        /* \"#utility.yul\":9388:9394   */\n      dup3\n        /* \"#utility.yul\":9377:9386   */\n      dup10\n        /* \"#utility.yul\":9373:9395   */\n      add\n        /* \"#utility.yul\":9342:9405   */\n      tag_141\n      jump\t// in\n    tag_238:\n        /* \"#utility.yul\":9332:9405   */\n      swap6\n      pop\n        /* \"#utility.yul\":9288:9415   */\n      pop\n        /* \"#utility.yul\":9454:9456   */\n      0x20\n        /* \"#utility.yul\":9480:9543   */\n      tag_239\n        /* \"#utility.yul\":9535:9542   */\n      dup9\n        /* \"#utility.yul\":9526:9532   */\n      dup3\n        /* \"#utility.yul\":9515:9524   */\n      dup10\n        /* \"#utility.yul\":9511:9533   */\n      add\n        /* \"#utility.yul\":9480:9543   */\n      tag_144\n      jump\t// in\n    tag_239:\n        /* \"#utility.yul\":9470:9543   */\n      swap5\n      pop\n        /* \"#utility.yul\":9425:9553   */\n      pop\n        /* \"#utility.yul\":9592:9594   */\n      0x40\n        /* \"#utility.yul\":9618:9682   */\n      tag_240\n        /* \"#utility.yul\":9674:9681   */\n      dup9\n        /* \"#utility.yul\":9665:9671   */\n      dup3\n        /* \"#utility.yul\":9654:9663   */\n      dup10\n        /* \"#utility.yul\":9650:9672   */\n      add\n        /* \"#utility.yul\":9618:9682   */\n      tag_145\n      jump\t// in\n    tag_240:\n        /* \"#utility.yul\":9608:9682   */\n      swap4\n      pop\n        /* \"#utility.yul\":9563:9692   */\n      pop\n        /* \"#utility.yul\":9731:9733   */\n      0x60\n        /* \"#utility.yul\":9757:9821   */\n      tag_241\n        /* \"#utility.yul\":9813:9820   */\n      dup9\n        /* \"#utility.yul\":9804:9810   */\n      dup3\n        /* \"#utility.yul\":9793:9802   */\n      dup10\n        /* \"#utility.yul\":9789:9811   */\n      add\n        /* \"#utility.yul\":9757:9821   */\n      tag_145\n      jump\t// in\n    tag_241:\n        /* \"#utility.yul\":9747:9821   */\n      swap3\n      pop\n        /* \"#utility.yul\":9702:9831   */\n      pop\n        /* \"#utility.yul\":9870:9873   */\n      0x80\n        /* \"#utility.yul\":9897:9960   */\n      tag_242\n        /* \"#utility.yul\":9952:9959   */\n      dup9\n        /* \"#utility.yul\":9943:9949   */\n      dup3\n        /* \"#utility.yul\":9932:9941   */\n      dup10\n        /* \"#utility.yul\":9928:9950   */\n      add\n        /* \"#utility.yul\":9897:9960   */\n      tag_141\n      jump\t// in\n    tag_242:\n        /* \"#utility.yul\":9887:9960   */\n      swap2\n      pop\n        /* \"#utility.yul\":9841:9970   */\n      pop\n        /* \"#utility.yul\":9006:9977   */\n      swap3\n      swap6\n      pop\n      swap3\n      swap6\n      swap1\n      swap4\n      pop\n      jump\t// out\n        /* \"#utility.yul\":9983:10539   */\n    tag_107:\n        /* \"#utility.yul\":10022:10029   */\n      0x00\n        /* \"#utility.yul\":10045:10064   */\n      tag_244\n        /* \"#utility.yul\":10062:10063   */\n      dup3\n        /* \"#utility.yul\":10045:10064   */\n      tag_142\n      jump\t// in\n    tag_244:\n        /* \"#utility.yul\":10040:10064   */\n      swap2\n      pop\n        /* \"#utility.yul\":10078:10097   */\n      tag_245\n        /* \"#utility.yul\":10095:10096   */\n      dup4\n        /* \"#utility.yul\":10078:10097   */\n      tag_142\n      jump\t// in\n    tag_245:\n        /* \"#utility.yul\":10073:10097   */\n      swap3\n      pop\n        /* \"#utility.yul\":10132:10133   */\n      dup3\n        /* \"#utility.yul\":10129:10130   */\n      dup3\n        /* \"#utility.yul\":10125:10134   */\n      mul\n        /* \"#utility.yul\":10154:10183   */\n      tag_246\n        /* \"#utility.yul\":10171:10182   */\n      dup2\n        /* \"#utility.yul\":10154:10183   */\n      tag_142\n      jump\t// in\n    tag_246:\n        /* \"#utility.yul\":10143:10183   */\n      swap2\n      pop\n        /* \"#utility.yul\":10241:10307   */\n      0x8000000000000000000000000000000000000000000000000000000000000000\n        /* \"#utility.yul\":10238:10239   */\n      dup5\n        /* \"#utility.yul\":10235:10308   */\n      eq\n        /* \"#utility.yul\":10231:10232   */\n      0x00\n        /* \"#utility.yul\":10228:10229   */\n      dup5\n        /* \"#utility.yul\":10224:10233   */\n      slt\n        /* \"#utility.yul\":10220:10309   */\n      and\n        /* \"#utility.yul\":10217:10332   */\n      iszero\n      tag_247\n      jumpi\n        /* \"#utility.yul\":10312:10330   */\n      tag_248\n      tag_137\n      jump\t// in\n    tag_248:\n        /* \"#utility.yul\":10217:10332   */\n    tag_247:\n        /* \"#utility.yul\":10482:10483   */\n      dup3\n        /* \"#utility.yul\":10473:10480   */\n      dup3\n        /* \"#utility.yul\":10468:10484   */\n      sdiv\n        /* \"#utility.yul\":10465:10466   */\n      dup5\n        /* \"#utility.yul\":10462:10485   */\n      eq\n        /* \"#utility.yul\":10442:10443   */\n      dup4\n        /* \"#utility.yul\":10435:10444   */\n      iszero\n        /* \"#utility.yul\":10415:10499   */\n      or\n        /* \"#utility.yul\":10392:10532   */\n      tag_249\n      jumpi\n        /* \"#utility.yul\":10512:10530   */\n      tag_250\n      tag_137\n      jump\t// in\n    tag_250:\n        /* \"#utility.yul\":10392:10532   */\n    tag_249:\n        /* \"#utility.yul\":10030:10539   */\n      pop\n        /* \"#utility.yul\":9983:10539   */\n      swap3\n      swap2\n      pop\n      pop\n      jump\t// out\n\n    auxdata: 0xa264697066735822122023bc9e5135e023dcf624dd4055fc8e99f32e4c9e040a6bae4f1962bc3031cc7164736f6c634300081c0033\n}\n",
				"bytecode": {
					"linkReferences": {},
					"object": "60a0604052348015600e575f5ffd5b503373ffffffffffffffffffffffffffffffffffffffff1660808173ffffffffffffffffffffffffffffffffffffffff1681525050608051610e206100705f395f81816102990152818161031f0152818161046801526106960152610e205ff3fe608060405260043610610073575f3560e01c8063853828b61161004d578063853828b61461011a578063b60d428814610130578063dba6335f1461013a578063dc0d3dff1461016457610082565b80630562b9f71461008c578063116ebb2d146100b45780633e47d6f3146100de57610082565b36610082576100806101a0565b005b61008a6101a0565b005b348015610097575f5ffd5b506100b260048036038101906100ad91906108a3565b610297565b005b3480156100bf575f5ffd5b506100c8610444565b6040516100d591906108dd565b60405180910390f35b3480156100e9575f5ffd5b5061010460048036038101906100ff9190610950565b610451565b60405161011191906108dd565b60405180910390f35b348015610125575f5ffd5b5061012e610466565b005b6101386101a0565b005b348015610145575f5ffd5b5061014e610694565b60405161015b919061098a565b60405180910390f35b34801561016f575f5ffd5b5061018a600480360381019061018591906108a3565b6106b8565b604051610197919061098a565b60405180910390f35b6802b5e3af16b18800006101b3346106f2565b10156101f4576040517f08c379a00000000000000000000000000000000000000000000000000000000081526004016101eb906109fd565b60405180910390fd5b5f33908060018154018082558091505060019003905f5260205f20015f9091909190916101000a81548173ffffffffffffffffffffffffffffffffffffffff021916908373ffffffffffffffffffffffffffffffffffffffff1602179055503460015f3373ffffffffffffffffffffffffffffffffffffffff1673ffffffffffffffffffffffffffffffffffffffff1681526020019081526020015f2081905550565b7f000000000000000000000000000000000000000000000000000000000000000073ffffffffffffffffffffffffffffffffffffffff163373ffffffffffffffffffffffffffffffffffffffff161461031c576040517f30cd747100000000000000000000000000000000000000000000000000000000815260040160405180910390fd5b807f000000000000000000000000000000000000000000000000000000000000000073ffffffffffffffffffffffffffffffffffffffff1631811015610397576040517f08c379a000000000000000000000000000000000000000000000000000000000815260040161038e90610a8b565b60405180910390fd5b5f3373ffffffffffffffffffffffffffffffffffffffff16836040516103bc90610ad6565b5f6040518083038185875af1925050503d805f81146103f6576040519150601f19603f3d011682016040523d82523d5f602084013e6103fb565b606091505b505090508061043f576040517f08c379a000000000000000000000000000000000000000000000000000000000815260040161043690610b34565b60405180910390fd5b505050565b6802b5e3af16b188000081565b6001602052805f5260405f205f915090505481565b7f000000000000000000000000000000000000000000000000000000000000000073ffffffffffffffffffffffffffffffffffffffff163373ffffffffffffffffffffffffffffffffffffffff16146104eb576040517f30cd747100000000000000000000000000000000000000000000000000000000815260040160405180910390fd5b5f5f5f90505b5f80549050811015610589575f81815481106105105761050f610b52565b5b905f5260205f20015f9054906101000a900473ffffffffffffffffffffffffffffffffffffffff1691505f60015f8473ffffffffffffffffffffffffffffffffffffffff1673ffffffffffffffffffffffffffffffffffffffff1681526020019081526020015f208190555080806001019150506104f1565b505f67ffffffffffffffff8111156105a4576105a3610b7f565b5b6040519080825280602002602001820160405280156105d25781602001602082028036833780820191505090505b505f90805190602001906105e79291906107ca565b505f3373ffffffffffffffffffffffffffffffffffffffff164760405161060d90610ad6565b5f6040518083038185875af1925050503d805f8114610647576040519150601f19603f3d011682016040523d82523d5f602084013e61064c565b606091505b5050905080610690576040517f08c379a000000000000000000000000000000000000000000000000000000000815260040161068790610b34565b60405180910390fd5b5050565b7f000000000000000000000000000000000000000000000000000000000000000081565b5f81815481106106c6575f80fd5b905f5260205f20015f915054906101000a900473ffffffffffffffffffffffffffffffffffffffff1681565b5f5f6106fc610725565b9050670de0b6b3a764000083826107139190610bd9565b61071d9190610c47565b915050919050565b5f5f73694aa1769357215de4fac081bf1f309adc32530690505f8173ffffffffffffffffffffffffffffffffffffffff1663feaf968c6040518163ffffffff1660e01b815260040160a060405180830381865afa158015610788573d5f5f3e3d5ffd5b505050506040513d601f19601f820116820180604052508101906107ac9190610cfd565b5050509150506402540be400816107c39190610d74565b9250505090565b828054828255905f5260205f20908101928215610840579160200282015b8281111561083f578251825f6101000a81548173ffffffffffffffffffffffffffffffffffffffff021916908373ffffffffffffffffffffffffffffffffffffffff160217905550916020019190600101906107e8565b5b50905061084d9190610851565b5090565b5b80821115610868575f815f905550600101610852565b5090565b5f5ffd5b5f819050919050565b61088281610870565b811461088c575f5ffd5b50565b5f8135905061089d81610879565b92915050565b5f602082840312156108b8576108b761086c565b5b5f6108c58482850161088f565b91505092915050565b6108d781610870565b82525050565b5f6020820190506108f05f8301846108ce565b92915050565b5f73ffffffffffffffffffffffffffffffffffffffff82169050919050565b5f61091f826108f6565b9050919050565b61092f81610915565b8114610939575f5ffd5b50565b5f8135905061094a81610926565b92915050565b5f602082840312156109655761096461086c565b5b5f6109728482850161093c565b91505092915050565b61098481610915565b82525050565b5f60208201905061099d5f83018461097b565b92915050565b5f82825260208201905092915050565b7f4e6f7420456e6f756768204574680000000000000000000000000000000000005f82015250565b5f6109e7600e836109a3565b91506109f2826109b3565b602082019050919050565b5f6020820190508181035f830152610a14816109db565b9050919050565b7f43616e6e6f74207769746864726177206d6f7265207468616e20617662696c615f8201527f626c650000000000000000000000000000000000000000000000000000000000602082015250565b5f610a756023836109a3565b9150610a8082610a1b565b604082019050919050565b5f6020820190508181035f830152610aa281610a69565b9050919050565b5f81905092915050565b50565b5f610ac15f83610aa9565b9150610acc82610ab3565b5f82019050919050565b5f610ae082610ab6565b9150819050919050565b7f4661696c656420746f2063616c6c0000000000000000000000000000000000005f82015250565b5f610b1e600e836109a3565b9150610b2982610aea565b602082019050919050565b5f6020820190508181035f830152610b4b81610b12565b9050919050565b7f4e487b71000000000000000000000000000000000000000000000000000000005f52603260045260245ffd5b7f4e487b71000000000000000000000000000000000000000000000000000000005f52604160045260245ffd5b7f4e487b71000000000000000000000000000000000000000000000000000000005f52601160045260245ffd5b5f610be382610870565b9150610bee83610870565b9250828202610bfc81610870565b91508282048414831517610c1357610c12610bac565b5b5092915050565b7f4e487b71000000000000000000000000000000000000000000000000000000005f52601260045260245ffd5b5f610c5182610870565b9150610c5c83610870565b925082610c6c57610c6b610c1a565b5b828204905092915050565b5f69ffffffffffffffffffff82169050919050565b610c9581610c77565b8114610c9f575f5ffd5b50565b5f81519050610cb081610c8c565b92915050565b5f819050919050565b610cc881610cb6565b8114610cd2575f5ffd5b50565b5f81519050610ce381610cbf565b92915050565b5f81519050610cf781610879565b92915050565b5f5f5f5f5f60a08688031215610d1657610d1561086c565b5b5f610d2388828901610ca2565b9550506020610d3488828901610cd5565b9450506040610d4588828901610ce9565b9350506060610d5688828901610ce9565b9250506080610d6788828901610ca2565b9150509295509295909350565b5f610d7e82610cb6565b9150610d8983610cb6565b9250828202610d9781610cb6565b91507f800000000000000000000000000000000000000000000000000000000000000084145f84121615610dce57610dcd610bac565b5b8282058414831517610de357610de2610bac565b5b509291505056fea264697066735822122023bc9e5135e023dcf624dd4055fc8e99f32e4c9e040a6bae4f1962bc3031cc7164736f6c634300081c0033",
					"opcodes": "PUSH1 0xA0 PUSH1 0x40 MSTORE CALLVALUE DUP1 ISZERO PUSH1 0xE JUMPI PUSH0 PUSH0 REVERT JUMPDEST POP CALLER PUSH20 0xFFFFFFFFFFFFFFFFFFFFFFFFFFFFFFFFFFFFFFFF AND PUSH1 0x80 DUP2 PUSH20 0xFFFFFFFFFFFFFFFFFFFFFFFFFFFFFFFFFFFFFFFF AND DUP2 MSTORE POP POP PUSH1 0x80 MLOAD PUSH2 0xE20 PUSH2 0x70 PUSH0 CODECOPY PUSH0 DUP2 DUP2 PUSH2 0x299 ADD MSTORE DUP2 DUP2 PUSH2 0x31F ADD MSTORE DUP2 DUP2 PUSH2 0x468 ADD MSTORE PUSH2 0x696 ADD MSTORE PUSH2 0xE20 PUSH0 RETURN INVALID PUSH1 0x80 PUSH1 0x40 MSTORE PUSH1 0x4 CALLDATASIZE LT PUSH2 0x73 JUMPI PUSH0 CALLDATALOAD PUSH1 0xE0 SHR DUP1 PUSH4 0x853828B6 GT PUSH2 0x4D JUMPI DUP1 PUSH4 0x853828B6 EQ PUSH2 0x11A JUMPI DUP1 PUSH4 0xB60D4288 EQ PUSH2 0x130 JUMPI DUP1 PUSH4 0xDBA6335F EQ PUSH2 0x13A JUMPI DUP1 PUSH4 0xDC0D3DFF EQ PUSH2 0x164 JUMPI PUSH2 0x82 JUMP JUMPDEST DUP1 PUSH4 0x562B9F7 EQ PUSH2 0x8C JUMPI DUP1 PUSH4 0x116EBB2D EQ PUSH2 0xB4 JUMPI DUP1 PUSH4 0x3E47D6F3 EQ PUSH2 0xDE JUMPI PUSH2 0x82 JUMP JUMPDEST CALLDATASIZE PUSH2 0x82 JUMPI PUSH2 0x80 PUSH2 0x1A0 JUMP JUMPDEST STOP JUMPDEST PUSH2 0x8A PUSH2 0x1A0 JUMP JUMPDEST STOP JUMPDEST CALLVALUE DUP1 ISZERO PUSH2 0x97 JUMPI PUSH0 PUSH0 REVERT JUMPDEST POP PUSH2 0xB2 PUSH1 0x4 DUP1 CALLDATASIZE SUB DUP2 ADD SWAP1 PUSH2 0xAD SWAP2 SWAP1 PUSH2 0x8A3 JUMP JUMPDEST PUSH2 0x297 JUMP JUMPDEST STOP JUMPDEST CALLVALUE DUP1 ISZERO PUSH2 0xBF JUMPI PUSH0 PUSH0 REVERT JUMPDEST POP PUSH2 0xC8 PUSH2 0x444 JUMP JUMPDEST PUSH1 0x40 MLOAD PUSH2 0xD5 SWAP2 SWAP1 PUSH2 0x8DD JUMP JUMPDEST PUSH1 0x40 MLOAD DUP1 SWAP2 SUB SWAP1 RETURN JUMPDEST CALLVALUE DUP1 ISZERO PUSH2 0xE9 JUMPI PUSH0 PUSH0 REVERT JUMPDEST POP PUSH2 0x104 PUSH1 0x4 DUP1 CALLDATASIZE SUB DUP2 ADD SWAP1 PUSH2 0xFF SWAP2 SWAP1 PUSH2 0x950 JUMP JUMPDEST PUSH2 0x451 JUMP JUMPDEST PUSH1 0x40 MLOAD PUSH2 0x111 SWAP2 SWAP1 PUSH2 0x8DD JUMP JUMPDEST PUSH1 0x40 MLOAD DUP1 SWAP2 SUB SWAP1 RETURN JUMPDEST CALLVALUE DUP1 ISZERO PUSH2 0x125 JUMPI PUSH0 PUSH0 REVERT JUMPDEST POP PUSH2 0x12E PUSH2 0x466 JUMP JUMPDEST STOP JUMPDEST PUSH2 0x138 PUSH2 0x1A0 JUMP JUMPDEST STOP JUMPDEST CALLVALUE DUP1 ISZERO PUSH2 0x145 JUMPI PUSH0 PUSH0 REVERT JUMPDEST POP PUSH2 0x14E PUSH2 0x694 JUMP JUMPDEST PUSH1 0x40 MLOAD PUSH2 0x15B SWAP2 SWAP1 PUSH2 0x98A JUMP JUMPDEST PUSH1 0x40 MLOAD DUP1 SWAP2 SUB SWAP1 RETURN JUMPDEST CALLVALUE DUP1 ISZERO PUSH2 0x16F JUMPI PUSH0 PUSH0 REVERT JUMPDEST POP PUSH2 0x18A PUSH1 0x4 DUP1 CALLDATASIZE SUB DUP2 ADD SWAP1 PUSH2 0x185 SWAP2 SWAP1 PUSH2 0x8A3 JUMP JUMPDEST PUSH2 0x6B8 JUMP JUMPDEST PUSH1 0x40 MLOAD PUSH2 0x197 SWAP2 SWAP1 PUSH2 0x98A JUMP JUMPDEST PUSH1 0x40 MLOAD DUP1 SWAP2 SUB SWAP1 RETURN JUMPDEST PUSH9 0x2B5E3AF16B1880000 PUSH2 0x1B3 CALLVALUE PUSH2 0x6F2 JUMP JUMPDEST LT ISZERO PUSH2 0x1F4 JUMPI PUSH1 0x40 MLOAD PUSH32 0x8C379A000000000000000000000000000000000000000000000000000000000 DUP2 MSTORE PUSH1 0x4 ADD PUSH2 0x1EB SWAP1 PUSH2 0x9FD JUMP JUMPDEST PUSH1 0x40 MLOAD DUP1 SWAP2 SUB SWAP1 REVERT JUMPDEST PUSH0 CALLER SWAP1 DUP1 PUSH1 0x1 DUP2 SLOAD ADD DUP1 DUP3 SSTORE DUP1 SWAP2 POP POP PUSH1 0x1 SWAP1 SUB SWAP1 PUSH0 MSTORE PUSH1 0x20 PUSH0 KECCAK256 ADD PUSH0 SWAP1 SWAP2 SWAP1 SWAP2 SWAP1 SWAP2 PUSH2 0x100 EXP DUP2 SLOAD DUP2 PUSH20 0xFFFFFFFFFFFFFFFFFFFFFFFFFFFFFFFFFFFFFFFF MUL NOT AND SWAP1 DUP4 PUSH20 0xFFFFFFFFFFFFFFFFFFFFFFFFFFFFFFFFFFFFFFFF AND MUL OR SWAP1 SSTORE POP CALLVALUE PUSH1 0x1 PUSH0 CALLER PUSH20 0xFFFFFFFFFFFFFFFFFFFFFFFFFFFFFFFFFFFFFFFF AND PUSH20 0xFFFFFFFFFFFFFFFFFFFFFFFFFFFFFFFFFFFFFFFF AND DUP2 MSTORE PUSH1 0x20 ADD SWAP1 DUP2 MSTORE PUSH1 0x20 ADD PUSH0 KECCAK256 DUP2 SWAP1 SSTORE POP JUMP JUMPDEST PUSH32 0x0 PUSH20 0xFFFFFFFFFFFFFFFFFFFFFFFFFFFFFFFFFFFFFFFF AND CALLER PUSH20 0xFFFFFFFFFFFFFFFFFFFFFFFFFFFFFFFFFFFFFFFF AND EQ PUSH2 0x31C JUMPI PUSH1 0x40 MLOAD PUSH32 0x30CD747100000000000000000000000000000000000000000000000000000000 DUP2 MSTORE PUSH1 0x4 ADD PUSH1 0x40 MLOAD DUP1 SWAP2 SUB SWAP1 REVERT JUMPDEST DUP1 PUSH32 0x0 PUSH20 0xFFFFFFFFFFFFFFFFFFFFFFFFFFFFFFFFFFFFFFFF AND BALANCE DUP2 LT ISZERO PUSH2 0x397 JUMPI PUSH1 0x40 MLOAD PUSH32 0x8C379A000000000000000000000000000000000000000000000000000000000 DUP2 MSTORE PUSH1 0x4 ADD PUSH2 0x38E SWAP1 PUSH2 0xA8B JUMP JUMPDEST PUSH1 0x40 MLOAD DUP1 SWAP2 SUB SWAP1 REVERT JUMPDEST PUSH0 CALLER PUSH20 0xFFFFFFFFFFFFFFFFFFFFFFFFFFFFFFFFFFFFFFFF AND DUP4 PUSH1 0x40 MLOAD PUSH2 0x3BC SWAP1 PUSH2 0xAD6 JUMP JUMPDEST PUSH0 PUSH1 0x40 MLOAD DUP1 DUP4 SUB DUP2 DUP6 DUP8 GAS CALL SWAP3 POP POP POP RETURNDATASIZE DUP1 PUSH0 DUP2 EQ PUSH2 0x3F6 JUMPI PUSH1 0x40 MLOAD SWAP2 POP PUSH1 0x1F NOT PUSH1 0x3F RETURNDATASIZE ADD AND DUP3 ADD PUSH1 0x40 MSTORE RETURNDATASIZE DUP3 MSTORE RETURNDATASIZE PUSH0 PUSH1 0x20 DUP5 ADD RETURNDATACOPY PUSH2 0x3FB JUMP JUMPDEST PUSH1 0x60 SWAP2 POP JUMPDEST POP POP SWAP1 POP DUP1 PUSH2 0x43F JUMPI PUSH1 0x40 MLOAD PUSH32 0x8C379A000000000000000000000000000000000000000000000000000000000 DUP2 MSTORE PUSH1 0x4 ADD PUSH2 0x436 SWAP1 PUSH2 0xB34 JUMP JUMPDEST PUSH1 0x40 MLOAD DUP1 SWAP2 SUB SWAP1 REVERT JUMPDEST POP POP POP JUMP JUMPDEST PUSH9 0x2B5E3AF16B1880000 DUP2 JUMP JUMPDEST PUSH1 0x1 PUSH1 0x20 MSTORE DUP1 PUSH0 MSTORE PUSH1 0x40 PUSH0 KECCAK256 PUSH0 SWAP2 POP SWAP1 POP SLOAD DUP2 JUMP JUMPDEST PUSH32 0x0 PUSH20 0xFFFFFFFFFFFFFFFFFFFFFFFFFFFFFFFFFFFFFFFF AND CALLER PUSH20 0xFFFFFFFFFFFFFFFFFFFFFFFFFFFFFFFFFFFFFFFF AND EQ PUSH2 0x4EB JUMPI PUSH1 0x40 MLOAD PUSH32 0x30CD747100000000000000000000000000000000000000000000000000000000 DUP2 MSTORE PUSH1 0x4 ADD PUSH1 0x40 MLOAD DUP1 SWAP2 SUB SWAP1 REVERT JUMPDEST PUSH0 PUSH0 PUSH0 SWAP1 POP JUMPDEST PUSH0 DUP1 SLOAD SWAP1 POP DUP2 LT ISZERO PUSH2 0x589 JUMPI PUSH0 DUP2 DUP2 SLOAD DUP2 LT PUSH2 0x510 JUMPI PUSH2 0x50F PUSH2 0xB52 JUMP JUMPDEST JUMPDEST SWAP1 PUSH0 MSTORE PUSH1 0x20 PUSH0 KECCAK256 ADD PUSH0 SWAP1 SLOAD SWAP1 PUSH2 0x100 EXP SWAP1 DIV PUSH20 0xFFFFFFFFFFFFFFFFFFFFFFFFFFFFFFFFFFFFFFFF AND SWAP2 POP PUSH0 PUSH1 0x1 PUSH0 DUP5 PUSH20 0xFFFFFFFFFFFFFFFFFFFFFFFFFFFFFFFFFFFFFFFF AND PUSH20 0xFFFFFFFFFFFFFFFFFFFFFFFFFFFFFFFFFFFFFFFF AND DUP2 MSTORE PUSH1 0x20 ADD SWAP1 DUP2 MSTORE PUSH1 0x20 ADD PUSH0 KECCAK256 DUP2 SWAP1 SSTORE POP DUP1 DUP1 PUSH1 0x1 ADD SWAP2 POP POP PUSH2 0x4F1 JUMP JUMPDEST POP PUSH0 PUSH8 0xFFFFFFFFFFFFFFFF DUP2 GT ISZERO PUSH2 0x5A4 JUMPI PUSH2 0x5A3 PUSH2 0xB7F JUMP JUMPDEST JUMPDEST PUSH1 0x40 MLOAD SWAP1 DUP1 DUP3 MSTORE DUP1 PUSH1 0x20 MUL PUSH1 0x20 ADD DUP3 ADD PUSH1 0x40 MSTORE DUP1 ISZERO PUSH2 0x5D2 JUMPI DUP2 PUSH1 0x20 ADD PUSH1 0x20 DUP3 MUL DUP1 CALLDATASIZE DUP4 CALLDATACOPY DUP1 DUP3 ADD SWAP2 POP POP SWAP1 POP JUMPDEST POP PUSH0 SWAP1 DUP1 MLOAD SWAP1 PUSH1 0x20 ADD SWAP1 PUSH2 0x5E7 SWAP3 SWAP2 SWAP1 PUSH2 0x7CA JUMP JUMPDEST POP PUSH0 CALLER PUSH20 0xFFFFFFFFFFFFFFFFFFFFFFFFFFFFFFFFFFFFFFFF AND SELFBALANCE PUSH1 0x40 MLOAD PUSH2 0x60D SWAP1 PUSH2 0xAD6 JUMP JUMPDEST PUSH0 PUSH1 0x40 MLOAD DUP1 DUP4 SUB DUP2 DUP6 DUP8 GAS CALL SWAP3 POP POP POP RETURNDATASIZE DUP1 PUSH0 DUP2 EQ PUSH2 0x647 JUMPI PUSH1 0x40 MLOAD SWAP2 POP PUSH1 0x1F NOT PUSH1 0x3F RETURNDATASIZE ADD AND DUP3 ADD PUSH1 0x40 MSTORE RETURNDATASIZE DUP3 MSTORE RETURNDATASIZE PUSH0 PUSH1 0x20 DUP5 ADD RETURNDATACOPY PUSH2 0x64C JUMP JUMPDEST PUSH1 0x60 SWAP2 POP JUMPDEST POP POP SWAP1 POP DUP1 PUSH2 0x690 JUMPI PUSH1 0x40 MLOAD PUSH32 0x8C379A000000000000000000000000000000000000000000000000000000000 DUP2 MSTORE PUSH1 0x4 ADD PUSH2 0x687 SWAP1 PUSH2 0xB34 JUMP JUMPDEST PUSH1 0x40 MLOAD DUP1 SWAP2 SUB SWAP1 REVERT JUMPDEST POP POP JUMP JUMPDEST PUSH32 0x0 DUP2 JUMP JUMPDEST PUSH0 DUP2 DUP2 SLOAD DUP2 LT PUSH2 0x6C6 JUMPI PUSH0 DUP1 REVERT JUMPDEST SWAP1 PUSH0 MSTORE PUSH1 0x20 PUSH0 KECCAK256 ADD PUSH0 SWAP2 POP SLOAD SWAP1 PUSH2 0x100 EXP SWAP1 DIV PUSH20 0xFFFFFFFFFFFFFFFFFFFFFFFFFFFFFFFFFFFFFFFF AND DUP2 JUMP JUMPDEST PUSH0 PUSH0 PUSH2 0x6FC PUSH2 0x725 JUMP JUMPDEST SWAP1 POP PUSH8 0xDE0B6B3A7640000 DUP4 DUP3 PUSH2 0x713 SWAP2 SWAP1 PUSH2 0xBD9 JUMP JUMPDEST PUSH2 0x71D SWAP2 SWAP1 PUSH2 0xC47 JUMP JUMPDEST SWAP2 POP POP SWAP2 SWAP1 POP JUMP JUMPDEST PUSH0 PUSH0 PUSH20 0x694AA1769357215DE4FAC081BF1F309ADC325306 SWAP1 POP PUSH0 DUP2 PUSH20 0xFFFFFFFFFFFFFFFFFFFFFFFFFFFFFFFFFFFFFFFF AND PUSH4 0xFEAF968C PUSH1 0x40 MLOAD DUP2 PUSH4 0xFFFFFFFF AND PUSH1 0xE0 SHL DUP2 MSTORE PUSH1 0x4 ADD PUSH1 0xA0 PUSH1 0x40 MLOAD DUP1 DUP4 SUB DUP2 DUP7 GAS STATICCALL ISZERO DUP1 ISZERO PUSH2 0x788 JUMPI RETURNDATASIZE PUSH0 PUSH0 RETURNDATACOPY RETURNDATASIZE PUSH0 REVERT JUMPDEST POP POP POP POP PUSH1 0x40 MLOAD RETURNDATASIZE PUSH1 0x1F NOT PUSH1 0x1F DUP3 ADD AND DUP3 ADD DUP1 PUSH1 0x40 MSTORE POP DUP2 ADD SWAP1 PUSH2 0x7AC SWAP2 SWAP1 PUSH2 0xCFD JUMP JUMPDEST POP POP POP SWAP2 POP POP PUSH5 0x2540BE400 DUP2 PUSH2 0x7C3 SWAP2 SWAP1 PUSH2 0xD74 JUMP JUMPDEST SWAP3 POP POP POP SWAP1 JUMP JUMPDEST DUP3 DUP1 SLOAD DUP3 DUP3 SSTORE SWAP1 PUSH0 MSTORE PUSH1 0x20 PUSH0 KECCAK256 SWAP1 DUP2 ADD SWAP3 DUP3 ISZERO PUSH2 0x840 JUMPI SWAP2 PUSH1 0x20 MUL DUP3 ADD JUMPDEST DUP3 DUP2 GT ISZERO PUSH2 0x83F JUMPI DUP3 MLOAD DUP3 PUSH0 PUSH2 0x100 EXP DUP2 SLOAD DUP2 PUSH20 0xFFFFFFFFFFFFFFFFFFFFFFFFFFFFFFFFFFFFFFFF MUL NOT AND SWAP1 DUP4 PUSH20 0xFFFFFFFFFFFFFFFFFFFFFFFFFFFFFFFFFFFFFFFF AND MUL OR SWAP1 SSTORE POP SWAP2 PUSH1 0x20 ADD SWAP2 SWAP1 PUSH1 0x1 ADD SWAP1 PUSH2 0x7E8 JUMP JUMPDEST JUMPDEST POP SWAP1 POP PUSH2 0x84D SWAP2 SWAP1 PUSH2 0x851 JUMP JUMPDEST POP SWAP1 JUMP JUMPDEST JUMPDEST DUP1 DUP3 GT ISZERO PUSH2 0x868 JUMPI PUSH0 DUP2 PUSH0 SWAP1 SSTORE POP PUSH1 0x1 ADD PUSH2 0x852 JUMP JUMPDEST POP SWAP1 JUMP JUMPDEST PUSH0 PUSH0 REVERT JUMPDEST PUSH0 DUP2 SWAP1 POP SWAP2 SWAP1 POP JUMP JUMPDEST PUSH2 0x882 DUP2 PUSH2 0x870 JUMP JUMPDEST DUP2 EQ PUSH2 0x88C JUMPI PUSH0 PUSH0 REVERT JUMPDEST POP JUMP JUMPDEST PUSH0 DUP2 CALLDATALOAD SWAP1 POP PUSH2 0x89D DUP2 PUSH2 0x879 JUMP JUMPDEST SWAP3 SWAP2 POP POP JUMP JUMPDEST PUSH0 PUSH1 0x20 DUP3 DUP5 SUB SLT ISZERO PUSH2 0x8B8 JUMPI PUSH2 0x8B7 PUSH2 0x86C JUMP JUMPDEST JUMPDEST PUSH0 PUSH2 0x8C5 DUP5 DUP3 DUP6 ADD PUSH2 0x88F JUMP JUMPDEST SWAP2 POP POP SWAP3 SWAP2 POP POP JUMP JUMPDEST PUSH2 0x8D7 DUP2 PUSH2 0x870 JUMP JUMPDEST DUP3 MSTORE POP POP JUMP JUMPDEST PUSH0 PUSH1 0x20 DUP3 ADD SWAP1 POP PUSH2 0x8F0 PUSH0 DUP4 ADD DUP5 PUSH2 0x8CE JUMP JUMPDEST SWAP3 SWAP2 POP POP JUMP JUMPDEST PUSH0 PUSH20 0xFFFFFFFFFFFFFFFFFFFFFFFFFFFFFFFFFFFFFFFF DUP3 AND SWAP1 POP SWAP2 SWAP1 POP JUMP JUMPDEST PUSH0 PUSH2 0x91F DUP3 PUSH2 0x8F6 JUMP JUMPDEST SWAP1 POP SWAP2 SWAP1 POP JUMP JUMPDEST PUSH2 0x92F DUP2 PUSH2 0x915 JUMP JUMPDEST DUP2 EQ PUSH2 0x939 JUMPI PUSH0 PUSH0 REVERT JUMPDEST POP JUMP JUMPDEST PUSH0 DUP2 CALLDATALOAD SWAP1 POP PUSH2 0x94A DUP2 PUSH2 0x926 JUMP JUMPDEST SWAP3 SWAP2 POP POP JUMP JUMPDEST PUSH0 PUSH1 0x20 DUP3 DUP5 SUB SLT ISZERO PUSH2 0x965 JUMPI PUSH2 0x964 PUSH2 0x86C JUMP JUMPDEST JUMPDEST PUSH0 PUSH2 0x972 DUP5 DUP3 DUP6 ADD PUSH2 0x93C JUMP JUMPDEST SWAP2 POP POP SWAP3 SWAP2 POP POP JUMP JUMPDEST PUSH2 0x984 DUP2 PUSH2 0x915 JUMP JUMPDEST DUP3 MSTORE POP POP JUMP JUMPDEST PUSH0 PUSH1 0x20 DUP3 ADD SWAP1 POP PUSH2 0x99D PUSH0 DUP4 ADD DUP5 PUSH2 0x97B JUMP JUMPDEST SWAP3 SWAP2 POP POP JUMP JUMPDEST PUSH0 DUP3 DUP3 MSTORE PUSH1 0x20 DUP3 ADD SWAP1 POP SWAP3 SWAP2 POP POP JUMP JUMPDEST PUSH32 0x4E6F7420456E6F75676820457468000000000000000000000000000000000000 PUSH0 DUP3 ADD MSTORE POP JUMP JUMPDEST PUSH0 PUSH2 0x9E7 PUSH1 0xE DUP4 PUSH2 0x9A3 JUMP JUMPDEST SWAP2 POP PUSH2 0x9F2 DUP3 PUSH2 0x9B3 JUMP JUMPDEST PUSH1 0x20 DUP3 ADD SWAP1 POP SWAP2 SWAP1 POP JUMP JUMPDEST PUSH0 PUSH1 0x20 DUP3 ADD SWAP1 POP DUP2 DUP2 SUB PUSH0 DUP4 ADD MSTORE PUSH2 0xA14 DUP2 PUSH2 0x9DB JUMP JUMPDEST SWAP1 POP SWAP2 SWAP1 POP JUMP JUMPDEST PUSH32 0x43616E6E6F74207769746864726177206D6F7265207468616E20617662696C61 PUSH0 DUP3 ADD MSTORE PUSH32 0x626C650000000000000000000000000000000000000000000000000000000000 PUSH1 0x20 DUP3 ADD MSTORE POP JUMP JUMPDEST PUSH0 PUSH2 0xA75 PUSH1 0x23 DUP4 PUSH2 0x9A3 JUMP JUMPDEST SWAP2 POP PUSH2 0xA80 DUP3 PUSH2 0xA1B JUMP JUMPDEST PUSH1 0x40 DUP3 ADD SWAP1 POP SWAP2 SWAP1 POP JUMP JUMPDEST PUSH0 PUSH1 0x20 DUP3 ADD SWAP1 POP DUP2 DUP2 SUB PUSH0 DUP4 ADD MSTORE PUSH2 0xAA2 DUP2 PUSH2 0xA69 JUMP JUMPDEST SWAP1 POP SWAP2 SWAP1 POP JUMP JUMPDEST PUSH0 DUP2 SWAP1 POP SWAP3 SWAP2 POP POP JUMP JUMPDEST POP JUMP JUMPDEST PUSH0 PUSH2 0xAC1 PUSH0 DUP4 PUSH2 0xAA9 JUMP JUMPDEST SWAP2 POP PUSH2 0xACC DUP3 PUSH2 0xAB3 JUMP JUMPDEST PUSH0 DUP3 ADD SWAP1 POP SWAP2 SWAP1 POP JUMP JUMPDEST PUSH0 PUSH2 0xAE0 DUP3 PUSH2 0xAB6 JUMP JUMPDEST SWAP2 POP DUP2 SWAP1 POP SWAP2 SWAP1 POP JUMP JUMPDEST PUSH32 0x4661696C656420746F2063616C6C000000000000000000000000000000000000 PUSH0 DUP3 ADD MSTORE POP JUMP JUMPDEST PUSH0 PUSH2 0xB1E PUSH1 0xE DUP4 PUSH2 0x9A3 JUMP JUMPDEST SWAP2 POP PUSH2 0xB29 DUP3 PUSH2 0xAEA JUMP JUMPDEST PUSH1 0x20 DUP3 ADD SWAP1 POP SWAP2 SWAP1 POP JUMP JUMPDEST PUSH0 PUSH1 0x20 DUP3 ADD SWAP1 POP DUP2 DUP2 SUB PUSH0 DUP4 ADD MSTORE PUSH2 0xB4B DUP2 PUSH2 0xB12 JUMP JUMPDEST SWAP1 POP SWAP2 SWAP1 POP JUMP JUMPDEST PUSH32 0x4E487B7100000000000000000000000000000000000000000000000000000000 PUSH0 MSTORE PUSH1 0x32 PUSH1 0x4 MSTORE PUSH1 0x24 PUSH0 REVERT JUMPDEST PUSH32 0x4E487B7100000000000000000000000000000000000000000000000000000000 PUSH0 MSTORE PUSH1 0x41 PUSH1 0x4 MSTORE PUSH1 0x24 PUSH0 REVERT JUMPDEST PUSH32 0x4E487B7100000000000000000000000000000000000000000000000000000000 PUSH0 MSTORE PUSH1 0x11 PUSH1 0x4 MSTORE PUSH1 0x24 PUSH0 REVERT JUMPDEST PUSH0 PUSH2 0xBE3 DUP3 PUSH2 0x870 JUMP JUMPDEST SWAP2 POP PUSH2 0xBEE DUP4 PUSH2 0x870 JUMP JUMPDEST SWAP3 POP DUP3 DUP3 MUL PUSH2 0xBFC DUP2 PUSH2 0x870 JUMP JUMPDEST SWAP2 POP DUP3 DUP3 DIV DUP5 EQ DUP4 ISZERO OR PUSH2 0xC13 JUMPI PUSH2 0xC12 PUSH2 0xBAC JUMP JUMPDEST JUMPDEST POP SWAP3 SWAP2 POP POP JUMP JUMPDEST PUSH32 0x4E487B7100000000000000000000000000000000000000000000000000000000 PUSH0 MSTORE PUSH1 0x12 PUSH1 0x4 MSTORE PUSH1 0x24 PUSH0 REVERT JUMPDEST PUSH0 PUSH2 0xC51 DUP3 PUSH2 0x870 JUMP JUMPDEST SWAP2 POP PUSH2 0xC5C DUP4 PUSH2 0x870 JUMP JUMPDEST SWAP3 POP DUP3 PUSH2 0xC6C JUMPI PUSH2 0xC6B PUSH2 0xC1A JUMP JUMPDEST JUMPDEST DUP3 DUP3 DIV SWAP1 POP SWAP3 SWAP2 POP POP JUMP JUMPDEST PUSH0 PUSH10 0xFFFFFFFFFFFFFFFFFFFF DUP3 AND SWAP1 POP SWAP2 SWAP1 POP JUMP JUMPDEST PUSH2 0xC95 DUP2 PUSH2 0xC77 JUMP JUMPDEST DUP2 EQ PUSH2 0xC9F JUMPI PUSH0 PUSH0 REVERT JUMPDEST POP JUMP JUMPDEST PUSH0 DUP2 MLOAD SWAP1 POP PUSH2 0xCB0 DUP2 PUSH2 0xC8C JUMP JUMPDEST SWAP3 SWAP2 POP POP JUMP JUMPDEST PUSH0 DUP2 SWAP1 POP SWAP2 SWAP1 POP JUMP JUMPDEST PUSH2 0xCC8 DUP2 PUSH2 0xCB6 JUMP JUMPDEST DUP2 EQ PUSH2 0xCD2 JUMPI PUSH0 PUSH0 REVERT JUMPDEST POP JUMP JUMPDEST PUSH0 DUP2 MLOAD SWAP1 POP PUSH2 0xCE3 DUP2 PUSH2 0xCBF JUMP JUMPDEST SWAP3 SWAP2 POP POP JUMP JUMPDEST PUSH0 DUP2 MLOAD SWAP1 POP PUSH2 0xCF7 DUP2 PUSH2 0x879 JUMP JUMPDEST SWAP3 SWAP2 POP POP JUMP JUMPDEST PUSH0 PUSH0 PUSH0 PUSH0 PUSH0 PUSH1 0xA0 DUP7 DUP9 SUB SLT ISZERO PUSH2 0xD16 JUMPI PUSH2 0xD15 PUSH2 0x86C JUMP JUMPDEST JUMPDEST PUSH0 PUSH2 0xD23 DUP9 DUP3 DUP10 ADD PUSH2 0xCA2 JUMP JUMPDEST SWAP6 POP POP PUSH1 0x20 PUSH2 0xD34 DUP9 DUP3 DUP10 ADD PUSH2 0xCD5 JUMP JUMPDEST SWAP5 POP POP PUSH1 0x40 PUSH2 0xD45 DUP9 DUP3 DUP10 ADD PUSH2 0xCE9 JUMP JUMPDEST SWAP4 POP POP PUSH1 0x60 PUSH2 0xD56 DUP9 DUP3 DUP10 ADD PUSH2 0xCE9 JUMP JUMPDEST SWAP3 POP POP PUSH1 0x80 PUSH2 0xD67 DUP9 DUP3 DUP10 ADD PUSH2 0xCA2 JUMP JUMPDEST SWAP2 POP POP SWAP3 SWAP6 POP SWAP3 SWAP6 SWAP1 SWAP4 POP JUMP JUMPDEST PUSH0 PUSH2 0xD7E DUP3 PUSH2 0xCB6 JUMP JUMPDEST SWAP2 POP PUSH2 0xD89 DUP4 PUSH2 0xCB6 JUMP JUMPDEST SWAP3 POP DUP3 DUP3 MUL PUSH2 0xD97 DUP2 PUSH2 0xCB6 JUMP JUMPDEST SWAP2 POP PUSH32 0x8000000000000000000000000000000000000000000000000000000000000000 DUP5 EQ PUSH0 DUP5 SLT AND ISZERO PUSH2 0xDCE JUMPI PUSH2 0xDCD PUSH2 0xBAC JUMP JUMPDEST JUMPDEST DUP3 DUP3 SDIV DUP5 EQ DUP4 ISZERO OR PUSH2 0xDE3 JUMPI PUSH2 0xDE2 PUSH2 0xBAC JUMP JUMPDEST JUMPDEST POP SWAP3 SWAP2 POP POP JUMP INVALID LOG2 PUSH5 0x6970667358 0x22 SLT KECCAK256 0x23 0xBC SWAP15 MLOAD CALLDATALOAD 0xE0 0x23 0xDC 0xF6 0x24 0xDD BLOCKHASH SSTORE 0xFC DUP15 SWAP10 RETURN 0x2E 0x4C SWAP15 DIV EXP PUSH12 0xAE4F1962BC3031CC7164736F PUSH13 0x634300081C0033000000000000 "
				},
				"gasEstimates": {
					"creation": {
						"codeDepositCost": "723200",
						"executionCost": "infinite",
						"totalCost": "infinite"
					},
					"external": {
						"": "infinite",
						"MINUMUM_USD()": "348",
						"addressToAmountFunded(address)": "2847",
						"fund()": "infinite",
						"funders(uint256)": "5009",
						"i_owner()": "infinite",
						"withdrawAll()": "infinite",
						"withdrawAmount(uint256)": "infinite"
					}
				},
				"methodIdentifiers": {
					"MINUMUM_USD()": "116ebb2d",
					"addressToAmountFunded(address)": "3e47d6f3",
					"fund()": "b60d4288",
					"funders(uint256)": "dc0d3dff",
					"i_owner()": "dba6335f",
					"withdrawAll()": "853828b6",
					"withdrawAmount(uint256)": "0562b9f7"
				}
			},
			"storageLayout": {
				"storage": [
					{
						"astId": 99,
						"contract": "contracts/FundMe.sol:FundMe",
						"label": "funders",
						"offset": 0,
						"slot": "0",
						"type": "t_array(t_address)dyn_storage"
					},
					{
						"astId": 103,
						"contract": "contracts/FundMe.sol:FundMe",
						"label": "addressToAmountFunded",
						"offset": 0,
						"slot": "1",
						"type": "t_mapping(t_address,t_uint256)"
					}
				],
				"types": {
					"t_address": {
						"encoding": "inplace",
						"label": "address",
						"numberOfBytes": "20"
					},
					"t_array(t_address)dyn_storage": {
						"base": "t_address",
						"encoding": "dynamic_array",
						"label": "address[]",
						"numberOfBytes": "32"
					},
					"t_mapping(t_address,t_uint256)": {
						"encoding": "mapping",
						"key": "t_address",
						"label": "mapping(address => uint256)",
						"numberOfBytes": "32",
						"value": "t_uint256"
					},
					"t_uint256": {
						"encoding": "inplace",
						"label": "uint256",
						"numberOfBytes": "32"
					}
				}
			},
			"userdoc": {
				"kind": "user",
				"methods": {},
				"version": 1
			}
		}
	}
}