{
	"data": {
		"bytecode": {
			"linkReferences": {},
			"object": "6080604052348015600e575f80fd5b5060e18061001b5f395ff3fe6080604052348015600e575f80fd5b50600436106026575f3560e01c80638688754414602a575b5f80fd5b60306046565b604051603d93929190607c565b60405180910390f35b5f805f909192565b5f819050919050565b605e81604e565b82525050565b5f8115159050919050565b6076816064565b82525050565b5f606082019050608d5f8301866057565b60986020830185606f565b60a360408301846057565b94935050505056fea26469706673582212205ed4a135323002dd33cd97592fdd65fd1bcd392c2f52b7301b4772c904dfe6a364736f6c634300081a0033",
			"opcodes": "PUSH1 0x80 PUSH1 0x40 MSTORE CALLVALUE DUP1 ISZERO PUSH1 0xE JUMPI PUSH0 DUP1 REVERT JUMPDEST POP PUSH1 0xE1 DUP1 PUSH2 0x1B PUSH0 CODECOPY PUSH0 RETURN INVALID PUSH1 0x80 PUSH1 0x40 MSTORE CALLVALUE DUP1 ISZERO PUSH1 0xE JUMPI PUSH0 DUP1 REVERT JUMPDEST POP PUSH1 0x4 CALLDATASIZE LT PUSH1 0x26 JUMPI PUSH0 CALLDATALOAD PUSH1 0xE0 SHR DUP1 PUSH4 0x86887544 EQ PUSH1 0x2A JUMPI JUMPDEST PUSH0 DUP1 REVERT JUMPDEST PUSH1 0x30 PUSH1 0x46 JUMP JUMPDEST PUSH1 0x40 MLOAD PUSH1 0x3D SWAP4 SWAP3 SWAP2 SWAP1 PUSH1 0x7C JUMP JUMPDEST PUSH1 0x40 MLOAD DUP1 SWAP2 SUB SWAP1 RETURN JUMPDEST PUSH0 DUP1 PUSH0 SWAP1 SWAP2 SWAP3 JUMP JUMPDEST PUSH0 DUP2 SWAP1 POP SWAP2 SWAP1 POP JUMP JUMPDEST PUSH1 0x5E DUP2 PUSH1 0x4E JUMP JUMPDEST DUP3 MSTORE POP POP JUMP JUMPDEST PUSH0 DUP2 ISZERO ISZERO SWAP1 POP SWAP2 SWAP1 POP JUMP JUMPDEST PUSH1 0x76 DUP2 PUSH1 0x64 JUMP JUMPDEST DUP3 MSTORE POP POP JUMP JUMPDEST PUSH0 PUSH1 0x60 DUP3 ADD SWAP1 POP PUSH1 0x8D PUSH0 DUP4 ADD DUP7 PUSH1 0x57 JUMP JUMPDEST PUSH1 0x98 PUSH1 0x20 DUP4 ADD DUP6 PUSH1 0x6F JUMP JUMPDEST PUSH1 0xA3 PUSH1 0x40 DUP4 ADD DUP5 PUSH1 0x57 JUMP JUMPDEST SWAP5 SWAP4 POP POP POP POP JUMP INVALID LOG2 PUSH5 0x6970667358 0x22 SLT KECCAK256 MCOPY 0xD4 LOG1 CALLDATALOAD ORIGIN ADDRESS MUL 0xDD CALLER 0xCD SWAP8 MSIZE 0x2F 0xDD PUSH6 0xFD1BCD392C2F MSTORE 0xB7 ADDRESS SHL SELFBALANCE PUSH19 0xC904DFE6A364736F6C634300081A0033000000 "
		},
		"gasEstimates": {
			"creation": {
				"codeDepositCost": "45000",
				"executionCost": "97",
				"totalCost": "45097"
			},
			"external": {
				"returnMany()": "infinite"
			}
		},
		"methodIdentifiers": {
			"returnMany()": "86887544"
		}
	},
	"abi": [
		{
			"inputs": [],
			"name": "returnMany",
			"outputs": [
				{
					"internalType": "uint256",
					"name": "",
					"type": "uint256"
				},
				{
					"internalType": "bool",
					"name": "",
					"type": "bool"
				},
				{
					"internalType": "uint256",
					"name": "",
					"type": "uint256"
				}
			],
			"stateMutability": "pure",
			"type": "function"
		}
	]
}