{
	"data": {
		"bytecode": {
			"linkReferences": {},
			"object": "60806040526040518060c00160405280600760ff168152602001600160ff168152602001600560ff168152602001600360ff168152602001600660ff168152602001600460ff168152505f90600660569291906066565b503480156061575f80fd5b5060ca565b828054828255905f5260205f2090810192821560a2579160200282015b8281111560a1578251829060ff169055916020019190600101906083565b5b50905060ad919060b1565b5090565b5b8082111560c6575f815f90555060010160b2565b5090565b6103b2806100d75f395ff3fe608060405234801561000f575f80fd5b5060043610610034575f3560e01c806380c9419e14610038578063b539cd5514610068575b5f80fd5b610052600480360381019061004d91906101f1565b610086565b60405161005f919061022b565b60405180910390f35b6100706100a5565b60405161007d919061022b565b60405180910390f35b5f8181548110610094575f80fd5b905f5260205f20015f915090505481565b5f805f80549050116100ec576040517f08c379a00000000000000000000000000000000000000000000000000000000081526004016100e39061029e565b60405180910390fd5b5f80600190505b5f805490508110156101b2575f60018261010d91906102e9565b8154811061011e5761011d61031c565b5b905f5260205f2001545f828154811061013a5761013961031c565b5b905f5260205f20015411156101a5575f60018261015791906102e9565b815481106101685761016761031c565b5b905f5260205f2001545f82815481106101845761018361031c565b5b905f5260205f20015461019791906102e9565b826101a29190610349565b91505b80806001019150506100f3565b508091505090565b5f80fd5b5f819050919050565b6101d0816101be565b81146101da575f80fd5b50565b5f813590506101eb816101c7565b92915050565b5f60208284031215610206576102056101ba565b5b5f610213848285016101dd565b91505092915050565b610225816101be565b82525050565b5f60208201905061023e5f83018461021c565b92915050565b5f82825260208201905092915050565b7f4172726179206c656e6774682063616e277420626520300000000000000000005f82015250565b5f610288601783610244565b915061029382610254565b602082019050919050565b5f6020820190508181035f8301526102b58161027c565b9050919050565b7f4e487b71000000000000000000000000000000000000000000000000000000005f52601160045260245ffd5b5f6102f3826101be565b91506102fe836101be565b9250828203905081811115610316576103156102bc565b5b92915050565b7f4e487b71000000000000000000000000000000000000000000000000000000005f52603260045260245ffd5b5f610353826101be565b915061035e836101be565b9250828201905080821115610376576103756102bc565b5b9291505056fea264697066735822122055901024fe48ec69a2fd977af74f12fafe79223e0eb40860f811d0e8004a18c964736f6c634300081a0033",
			"opcodes": "PUSH1 0x80 PUSH1 0x40 MSTORE PUSH1 0x40 MLOAD DUP1 PUSH1 0xC0 ADD PUSH1 0x40 MSTORE DUP1 PUSH1 0x7 PUSH1 0xFF AND DUP2 MSTORE PUSH1 0x20 ADD PUSH1 0x1 PUSH1 0xFF AND DUP2 MSTORE PUSH1 0x20 ADD PUSH1 0x5 PUSH1 0xFF AND DUP2 MSTORE PUSH1 0x20 ADD PUSH1 0x3 PUSH1 0xFF AND DUP2 MSTORE PUSH1 0x20 ADD PUSH1 0x6 PUSH1 0xFF AND DUP2 MSTORE PUSH1 0x20 ADD PUSH1 0x4 PUSH1 0xFF AND DUP2 MSTORE POP PUSH0 SWAP1 PUSH1 0x6 PUSH1 0x56 SWAP3 SWAP2 SWAP1 PUSH1 0x66 JUMP JUMPDEST POP CALLVALUE DUP1 ISZERO PUSH1 0x61 JUMPI PUSH0 DUP1 REVERT JUMPDEST POP PUSH1 0xCA JUMP JUMPDEST DUP3 DUP1 SLOAD DUP3 DUP3 SSTORE SWAP1 PUSH0 MSTORE PUSH1 0x20 PUSH0 KECCAK256 SWAP1 DUP2 ADD SWAP3 DUP3 ISZERO PUSH1 0xA2 JUMPI SWAP2 PUSH1 0x20 MUL DUP3 ADD JUMPDEST DUP3 DUP2 GT ISZERO PUSH1 0xA1 JUMPI DUP3 MLOAD DUP3 SWAP1 PUSH1 0xFF AND SWAP1 SSTORE SWAP2 PUSH1 0x20 ADD SWAP2 SWAP1 PUSH1 0x1 ADD SWAP1 PUSH1 0x83 JUMP JUMPDEST JUMPDEST POP SWAP1 POP PUSH1 0xAD SWAP2 SWAP1 PUSH1 0xB1 JUMP JUMPDEST POP SWAP1 JUMP JUMPDEST JUMPDEST DUP1 DUP3 GT ISZERO PUSH1 0xC6 JUMPI PUSH0 DUP2 PUSH0 SWAP1 SSTORE POP PUSH1 0x1 ADD PUSH1 0xB2 JUMP JUMPDEST POP SWAP1 JUMP JUMPDEST PUSH2 0x3B2 DUP1 PUSH2 0xD7 PUSH0 CODECOPY PUSH0 RETURN INVALID PUSH1 0x80 PUSH1 0x40 MSTORE CALLVALUE DUP1 ISZERO PUSH2 0xF JUMPI PUSH0 DUP1 REVERT JUMPDEST POP PUSH1 0x4 CALLDATASIZE LT PUSH2 0x34 JUMPI PUSH0 CALLDATALOAD PUSH1 0xE0 SHR DUP1 PUSH4 0x80C9419E EQ PUSH2 0x38 JUMPI DUP1 PUSH4 0xB539CD55 EQ PUSH2 0x68 JUMPI JUMPDEST PUSH0 DUP1 REVERT JUMPDEST PUSH2 0x52 PUSH1 0x4 DUP1 CALLDATASIZE SUB DUP2 ADD SWAP1 PUSH2 0x4D SWAP2 SWAP1 PUSH2 0x1F1 JUMP JUMPDEST PUSH2 0x86 JUMP JUMPDEST PUSH1 0x40 MLOAD PUSH2 0x5F SWAP2 SWAP1 PUSH2 0x22B JUMP JUMPDEST PUSH1 0x40 MLOAD DUP1 SWAP2 SUB SWAP1 RETURN JUMPDEST PUSH2 0x70 PUSH2 0xA5 JUMP JUMPDEST PUSH1 0x40 MLOAD PUSH2 0x7D SWAP2 SWAP1 PUSH2 0x22B JUMP JUMPDEST PUSH1 0x40 MLOAD DUP1 SWAP2 SUB SWAP1 RETURN JUMPDEST PUSH0 DUP2 DUP2 SLOAD DUP2 LT PUSH2 0x94 JUMPI PUSH0 DUP1 REVERT JUMPDEST SWAP1 PUSH0 MSTORE PUSH1 0x20 PUSH0 KECCAK256 ADD PUSH0 SWAP2 POP SWAP1 POP SLOAD DUP2 JUMP JUMPDEST PUSH0 DUP1 PUSH0 DUP1 SLOAD SWAP1 POP GT PUSH2 0xEC JUMPI PUSH1 0x40 MLOAD PUSH32 0x8C379A000000000000000000000000000000000000000000000000000000000 DUP2 MSTORE PUSH1 0x4 ADD PUSH2 0xE3 SWAP1 PUSH2 0x29E JUMP JUMPDEST PUSH1 0x40 MLOAD DUP1 SWAP2 SUB SWAP1 REVERT JUMPDEST PUSH0 DUP1 PUSH1 0x1 SWAP1 POP JUMPDEST PUSH0 DUP1 SLOAD SWAP1 POP DUP2 LT ISZERO PUSH2 0x1B2 JUMPI PUSH0 PUSH1 0x1 DUP3 PUSH2 0x10D SWAP2 SWAP1 PUSH2 0x2E9 JUMP JUMPDEST DUP2 SLOAD DUP2 LT PUSH2 0x11E JUMPI PUSH2 0x11D PUSH2 0x31C JUMP JUMPDEST JUMPDEST SWAP1 PUSH0 MSTORE PUSH1 0x20 PUSH0 KECCAK256 ADD SLOAD PUSH0 DUP3 DUP2 SLOAD DUP2 LT PUSH2 0x13A JUMPI PUSH2 0x139 PUSH2 0x31C JUMP JUMPDEST JUMPDEST SWAP1 PUSH0 MSTORE PUSH1 0x20 PUSH0 KECCAK256 ADD SLOAD GT ISZERO PUSH2 0x1A5 JUMPI PUSH0 PUSH1 0x1 DUP3 PUSH2 0x157 SWAP2 SWAP1 PUSH2 0x2E9 JUMP JUMPDEST DUP2 SLOAD DUP2 LT PUSH2 0x168 JUMPI PUSH2 0x167 PUSH2 0x31C JUMP JUMPDEST JUMPDEST SWAP1 PUSH0 MSTORE PUSH1 0x20 PUSH0 KECCAK256 ADD SLOAD PUSH0 DUP3 DUP2 SLOAD DUP2 LT PUSH2 0x184 JUMPI PUSH2 0x183 PUSH2 0x31C JUMP JUMPDEST JUMPDEST SWAP1 PUSH0 MSTORE PUSH1 0x20 PUSH0 KECCAK256 ADD SLOAD PUSH2 0x197 SWAP2 SWAP1 PUSH2 0x2E9 JUMP JUMPDEST DUP3 PUSH2 0x1A2 SWAP2 SWAP1 PUSH2 0x349 JUMP JUMPDEST SWAP2 POP JUMPDEST DUP1 DUP1 PUSH1 0x1 ADD SWAP2 POP POP PUSH2 0xF3 JUMP JUMPDEST POP DUP1 SWAP2 POP POP SWAP1 JUMP JUMPDEST PUSH0 DUP1 REVERT JUMPDEST PUSH0 DUP2 SWAP1 POP SWAP2 SWAP1 POP JUMP JUMPDEST PUSH2 0x1D0 DUP2 PUSH2 0x1BE JUMP JUMPDEST DUP2 EQ PUSH2 0x1DA JUMPI PUSH0 DUP1 REVERT JUMPDEST POP JUMP JUMPDEST PUSH0 DUP2 CALLDATALOAD SWAP1 POP PUSH2 0x1EB DUP2 PUSH2 0x1C7 JUMP JUMPDEST SWAP3 SWAP2 POP POP JUMP JUMPDEST PUSH0 PUSH1 0x20 DUP3 DUP5 SUB SLT ISZERO PUSH2 0x206 JUMPI PUSH2 0x205 PUSH2 0x1BA JUMP JUMPDEST JUMPDEST PUSH0 PUSH2 0x213 DUP5 DUP3 DUP6 ADD PUSH2 0x1DD JUMP JUMPDEST SWAP2 POP POP SWAP3 SWAP2 POP POP JUMP JUMPDEST PUSH2 0x225 DUP2 PUSH2 0x1BE JUMP JUMPDEST DUP3 MSTORE POP POP JUMP JUMPDEST PUSH0 PUSH1 0x20 DUP3 ADD SWAP1 POP PUSH2 0x23E PUSH0 DUP4 ADD DUP5 PUSH2 0x21C JUMP JUMPDEST SWAP3 SWAP2 POP POP JUMP JUMPDEST PUSH0 DUP3 DUP3 MSTORE PUSH1 0x20 DUP3 ADD SWAP1 POP SWAP3 SWAP2 POP POP JUMP JUMPDEST PUSH32 0x4172726179206C656E6774682063616E27742062652030000000000000000000 PUSH0 DUP3 ADD MSTORE POP JUMP JUMPDEST PUSH0 PUSH2 0x288 PUSH1 0x17 DUP4 PUSH2 0x244 JUMP JUMPDEST SWAP2 POP PUSH2 0x293 DUP3 PUSH2 0x254 JUMP JUMPDEST PUSH1 0x20 DUP3 ADD SWAP1 POP SWAP2 SWAP1 POP JUMP JUMPDEST PUSH0 PUSH1 0x20 DUP3 ADD SWAP1 POP DUP2 DUP2 SUB PUSH0 DUP4 ADD MSTORE PUSH2 0x2B5 DUP2 PUSH2 0x27C JUMP JUMPDEST SWAP1 POP SWAP2 SWAP1 POP JUMP JUMPDEST PUSH32 0x4E487B7100000000000000000000000000000000000000000000000000000000 PUSH0 MSTORE PUSH1 0x11 PUSH1 0x4 MSTORE PUSH1 0x24 PUSH0 REVERT JUMPDEST PUSH0 PUSH2 0x2F3 DUP3 PUSH2 0x1BE JUMP JUMPDEST SWAP2 POP PUSH2 0x2FE DUP4 PUSH2 0x1BE JUMP JUMPDEST SWAP3 POP DUP3 DUP3 SUB SWAP1 POP DUP2 DUP2 GT ISZERO PUSH2 0x316 JUMPI PUSH2 0x315 PUSH2 0x2BC JUMP JUMPDEST JUMPDEST SWAP3 SWAP2 POP POP JUMP JUMPDEST PUSH32 0x4E487B7100000000000000000000000000000000000000000000000000000000 PUSH0 MSTORE PUSH1 0x32 PUSH1 0x4 MSTORE PUSH1 0x24 PUSH0 REVERT JUMPDEST PUSH0 PUSH2 0x353 DUP3 PUSH2 0x1BE JUMP JUMPDEST SWAP2 POP PUSH2 0x35E DUP4 PUSH2 0x1BE JUMP JUMPDEST SWAP3 POP DUP3 DUP3 ADD SWAP1 POP DUP1 DUP3 GT ISZERO PUSH2 0x376 JUMPI PUSH2 0x375 PUSH2 0x2BC JUMP JUMPDEST JUMPDEST SWAP3 SWAP2 POP POP JUMP INVALID LOG2 PUSH5 0x6970667358 0x22 SLT KECCAK256 SSTORE SWAP1 LT 0x24 INVALID BASEFEE 0xEC PUSH10 0xA2FD977AF74F12FAFE79 0x22 RETURNDATACOPY 0xE 0xB4 ADDMOD PUSH1 0xF8 GT 0xD0 0xE8 STOP BLOBBASEFEE XOR 0xC9 PUSH5 0x736F6C6343 STOP ADDMOD BYTE STOP CALLER "
		},
		"gasEstimates": {
			"creation": {
				"codeDepositCost": "189200",
				"executionCost": "infinite",
				"totalCost": "infinite"
			},
			"external": {
				"list(uint256)": "infinite",
				"maxProfit()": "infinite"
			}
		},
		"methodIdentifiers": {
			"list(uint256)": "80c9419e",
			"maxProfit()": "b539cd55"
		}
	},
	"abi": [
		{
			"inputs": [
				{
					"internalType": "uint256",
					"name": "",
					"type": "uint256"
				}
			],
			"name": "list",
			"outputs": [
				{
					"internalType": "uint256",
					"name": "",
					"type": "uint256"
				}
			],
			"stateMutability": "view",
			"type": "function"
		},
		{
			"inputs": [],
			"name": "maxProfit",
			"outputs": [
				{
					"internalType": "uint256",
					"name": "",
					"type": "uint256"
				}
			],
			"stateMutability": "view",
			"type": "function"
		}
	]
}