{
	"data": {
		"bytecode": {
			"linkReferences": {},
			"object": "6080604052348015600e575f80fd5b506105888061001c5f395ff3fe608060405260043610610021575f3560e01c806324ccab8f1461009a5761005f565b3661005f577fdd970dd9b5bfe707922155b058a407655cb18288b807e2216442bca8ad83d6b55a604051610055919061018d565b60405180910390a1005b7f9e5f2569d96ca30531dc17a2617efe8c734b70ca3f37ccd917ba48a1e028559e3334604051610090929190610242565b60405180910390a1005b6100b460048036038101906100af91906103f3565b6100ca565b6040516100c1919061044d565b60405180910390f35b5f7f9e5f2569d96ca30531dc17a2617efe8c734b70ca3f37ccd917ba48a1e028559e3334856040516100fe939291906104b6565b60405180910390a1600182610113919061051f565b905092915050565b5f82825260208201905092915050565b7f72656365697665000000000000000000000000000000000000000000000000005f82015250565b5f61015f60078361011b565b915061016a8261012b565b602082019050919050565b5f819050919050565b61018781610175565b82525050565b5f6040820190508181035f8301526101a481610153565b90506101b3602083018461017e565b92915050565b5f73ffffffffffffffffffffffffffffffffffffffff82169050919050565b5f6101e2826101b9565b9050919050565b6101f2816101d8565b82525050565b7f46616c6c6261636b2063616c6c656400000000000000000000000000000000005f82015250565b5f61022c600f8361011b565b9150610237826101f8565b602082019050919050565b5f6060820190506102555f8301856101e9565b610262602083018461017e565b818103604083015261027381610220565b90509392505050565b5f604051905090565b5f80fd5b5f80fd5b5f80fd5b5f80fd5b5f601f19601f8301169050919050565b7f4e487b71000000000000000000000000000000000000000000000000000000005f52604160045260245ffd5b6102db82610295565b810181811067ffffffffffffffff821117156102fa576102f96102a5565b5b80604052505050565b5f61030c61027c565b905061031882826102d2565b919050565b5f67ffffffffffffffff821115610337576103366102a5565b5b61034082610295565b9050602081019050919050565b828183375f83830152505050565b5f61036d6103688461031d565b610303565b90508281526020810184848401111561038957610388610291565b5b61039484828561034d565b509392505050565b5f82601f8301126103b0576103af61028d565b5b81356103c084826020860161035b565b91505092915050565b6103d281610175565b81146103dc575f80fd5b50565b5f813590506103ed816103c9565b92915050565b5f806040838503121561040957610408610285565b5b5f83013567ffffffffffffffff81111561042657610425610289565b5b6104328582860161039c565b9250506020610443858286016103df565b9150509250929050565b5f6020820190506104605f83018461017e565b92915050565b5f81519050919050565b8281835e5f83830152505050565b5f61048882610466565b610492818561011b565b93506104a2818560208601610470565b6104ab81610295565b840191505092915050565b5f6060820190506104c95f8301866101e9565b6104d6602083018561017e565b81810360408301526104e8818461047e565b9050949350505050565b7f4e487b71000000000000000000000000000000000000000000000000000000005f52601160045260245ffd5b5f61052982610175565b915061053483610175565b925082820190508082111561054c5761054b6104f2565b5b9291505056fea2646970667358221220bd1cda57ae46161ffd07451c72b01d0f53f1dba14b878a5c132d86d7e28e89ed64736f6c634300081a0033",
			"opcodes": "PUSH1 0x80 PUSH1 0x40 MSTORE CALLVALUE DUP1 ISZERO PUSH1 0xE JUMPI PUSH0 DUP1 REVERT JUMPDEST POP PUSH2 0x588 DUP1 PUSH2 0x1C PUSH0 CODECOPY PUSH0 RETURN INVALID PUSH1 0x80 PUSH1 0x40 MSTORE PUSH1 0x4 CALLDATASIZE LT PUSH2 0x21 JUMPI PUSH0 CALLDATALOAD PUSH1 0xE0 SHR DUP1 PUSH4 0x24CCAB8F EQ PUSH2 0x9A JUMPI PUSH2 0x5F JUMP JUMPDEST CALLDATASIZE PUSH2 0x5F JUMPI PUSH32 0xDD970DD9B5BFE707922155B058A407655CB18288B807E2216442BCA8AD83D6B5 GAS PUSH1 0x40 MLOAD PUSH2 0x55 SWAP2 SWAP1 PUSH2 0x18D JUMP JUMPDEST PUSH1 0x40 MLOAD DUP1 SWAP2 SUB SWAP1 LOG1 STOP JUMPDEST PUSH32 0x9E5F2569D96CA30531DC17A2617EFE8C734B70CA3F37CCD917BA48A1E028559E CALLER CALLVALUE PUSH1 0x40 MLOAD PUSH2 0x90 SWAP3 SWAP2 SWAP1 PUSH2 0x242 JUMP JUMPDEST PUSH1 0x40 MLOAD DUP1 SWAP2 SUB SWAP1 LOG1 STOP JUMPDEST PUSH2 0xB4 PUSH1 0x4 DUP1 CALLDATASIZE SUB DUP2 ADD SWAP1 PUSH2 0xAF SWAP2 SWAP1 PUSH2 0x3F3 JUMP JUMPDEST PUSH2 0xCA JUMP JUMPDEST PUSH1 0x40 MLOAD PUSH2 0xC1 SWAP2 SWAP1 PUSH2 0x44D JUMP JUMPDEST PUSH1 0x40 MLOAD DUP1 SWAP2 SUB SWAP1 RETURN JUMPDEST PUSH0 PUSH32 0x9E5F2569D96CA30531DC17A2617EFE8C734B70CA3F37CCD917BA48A1E028559E CALLER CALLVALUE DUP6 PUSH1 0x40 MLOAD PUSH2 0xFE SWAP4 SWAP3 SWAP2 SWAP1 PUSH2 0x4B6 JUMP JUMPDEST PUSH1 0x40 MLOAD DUP1 SWAP2 SUB SWAP1 LOG1 PUSH1 0x1 DUP3 PUSH2 0x113 SWAP2 SWAP1 PUSH2 0x51F JUMP JUMPDEST SWAP1 POP SWAP3 SWAP2 POP POP JUMP JUMPDEST PUSH0 DUP3 DUP3 MSTORE PUSH1 0x20 DUP3 ADD SWAP1 POP SWAP3 SWAP2 POP POP JUMP JUMPDEST PUSH32 0x7265636569766500000000000000000000000000000000000000000000000000 PUSH0 DUP3 ADD MSTORE POP JUMP JUMPDEST PUSH0 PUSH2 0x15F PUSH1 0x7 DUP4 PUSH2 0x11B JUMP JUMPDEST SWAP2 POP PUSH2 0x16A DUP3 PUSH2 0x12B JUMP JUMPDEST PUSH1 0x20 DUP3 ADD SWAP1 POP SWAP2 SWAP1 POP JUMP JUMPDEST PUSH0 DUP2 SWAP1 POP SWAP2 SWAP1 POP JUMP JUMPDEST PUSH2 0x187 DUP2 PUSH2 0x175 JUMP JUMPDEST DUP3 MSTORE POP POP JUMP JUMPDEST PUSH0 PUSH1 0x40 DUP3 ADD SWAP1 POP DUP2 DUP2 SUB PUSH0 DUP4 ADD MSTORE PUSH2 0x1A4 DUP2 PUSH2 0x153 JUMP JUMPDEST SWAP1 POP PUSH2 0x1B3 PUSH1 0x20 DUP4 ADD DUP5 PUSH2 0x17E JUMP JUMPDEST SWAP3 SWAP2 POP POP JUMP JUMPDEST PUSH0 PUSH20 0xFFFFFFFFFFFFFFFFFFFFFFFFFFFFFFFFFFFFFFFF DUP3 AND SWAP1 POP SWAP2 SWAP1 POP JUMP JUMPDEST PUSH0 PUSH2 0x1E2 DUP3 PUSH2 0x1B9 JUMP JUMPDEST SWAP1 POP SWAP2 SWAP1 POP JUMP JUMPDEST PUSH2 0x1F2 DUP2 PUSH2 0x1D8 JUMP JUMPDEST DUP3 MSTORE POP POP JUMP JUMPDEST PUSH32 0x46616C6C6261636B2063616C6C65640000000000000000000000000000000000 PUSH0 DUP3 ADD MSTORE POP JUMP JUMPDEST PUSH0 PUSH2 0x22C PUSH1 0xF DUP4 PUSH2 0x11B JUMP JUMPDEST SWAP2 POP PUSH2 0x237 DUP3 PUSH2 0x1F8 JUMP JUMPDEST PUSH1 0x20 DUP3 ADD SWAP1 POP SWAP2 SWAP1 POP JUMP JUMPDEST PUSH0 PUSH1 0x60 DUP3 ADD SWAP1 POP PUSH2 0x255 PUSH0 DUP4 ADD DUP6 PUSH2 0x1E9 JUMP JUMPDEST PUSH2 0x262 PUSH1 0x20 DUP4 ADD DUP5 PUSH2 0x17E JUMP JUMPDEST DUP2 DUP2 SUB PUSH1 0x40 DUP4 ADD MSTORE PUSH2 0x273 DUP2 PUSH2 0x220 JUMP JUMPDEST SWAP1 POP SWAP4 SWAP3 POP POP POP JUMP JUMPDEST PUSH0 PUSH1 0x40 MLOAD SWAP1 POP SWAP1 JUMP JUMPDEST PUSH0 DUP1 REVERT JUMPDEST PUSH0 DUP1 REVERT JUMPDEST PUSH0 DUP1 REVERT JUMPDEST PUSH0 DUP1 REVERT JUMPDEST PUSH0 PUSH1 0x1F NOT PUSH1 0x1F DUP4 ADD AND SWAP1 POP SWAP2 SWAP1 POP JUMP JUMPDEST PUSH32 0x4E487B7100000000000000000000000000000000000000000000000000000000 PUSH0 MSTORE PUSH1 0x41 PUSH1 0x4 MSTORE PUSH1 0x24 PUSH0 REVERT JUMPDEST PUSH2 0x2DB DUP3 PUSH2 0x295 JUMP JUMPDEST DUP2 ADD DUP2 DUP2 LT PUSH8 0xFFFFFFFFFFFFFFFF DUP3 GT OR ISZERO PUSH2 0x2FA JUMPI PUSH2 0x2F9 PUSH2 0x2A5 JUMP JUMPDEST JUMPDEST DUP1 PUSH1 0x40 MSTORE POP POP POP JUMP JUMPDEST PUSH0 PUSH2 0x30C PUSH2 0x27C JUMP JUMPDEST SWAP1 POP PUSH2 0x318 DUP3 DUP3 PUSH2 0x2D2 JUMP JUMPDEST SWAP2 SWAP1 POP JUMP JUMPDEST PUSH0 PUSH8 0xFFFFFFFFFFFFFFFF DUP3 GT ISZERO PUSH2 0x337 JUMPI PUSH2 0x336 PUSH2 0x2A5 JUMP JUMPDEST JUMPDEST PUSH2 0x340 DUP3 PUSH2 0x295 JUMP JUMPDEST SWAP1 POP PUSH1 0x20 DUP2 ADD SWAP1 POP SWAP2 SWAP1 POP JUMP JUMPDEST DUP3 DUP2 DUP4 CALLDATACOPY PUSH0 DUP4 DUP4 ADD MSTORE POP POP POP JUMP JUMPDEST PUSH0 PUSH2 0x36D PUSH2 0x368 DUP5 PUSH2 0x31D JUMP JUMPDEST PUSH2 0x303 JUMP JUMPDEST SWAP1 POP DUP3 DUP2 MSTORE PUSH1 0x20 DUP2 ADD DUP5 DUP5 DUP5 ADD GT ISZERO PUSH2 0x389 JUMPI PUSH2 0x388 PUSH2 0x291 JUMP JUMPDEST JUMPDEST PUSH2 0x394 DUP5 DUP3 DUP6 PUSH2 0x34D JUMP JUMPDEST POP SWAP4 SWAP3 POP POP POP JUMP JUMPDEST PUSH0 DUP3 PUSH1 0x1F DUP4 ADD SLT PUSH2 0x3B0 JUMPI PUSH2 0x3AF PUSH2 0x28D JUMP JUMPDEST JUMPDEST DUP2 CALLDATALOAD PUSH2 0x3C0 DUP5 DUP3 PUSH1 0x20 DUP7 ADD PUSH2 0x35B JUMP JUMPDEST SWAP2 POP POP SWAP3 SWAP2 POP POP JUMP JUMPDEST PUSH2 0x3D2 DUP2 PUSH2 0x175 JUMP JUMPDEST DUP2 EQ PUSH2 0x3DC JUMPI PUSH0 DUP1 REVERT JUMPDEST POP JUMP JUMPDEST PUSH0 DUP2 CALLDATALOAD SWAP1 POP PUSH2 0x3ED DUP2 PUSH2 0x3C9 JUMP JUMPDEST SWAP3 SWAP2 POP POP JUMP JUMPDEST PUSH0 DUP1 PUSH1 0x40 DUP4 DUP6 SUB SLT ISZERO PUSH2 0x409 JUMPI PUSH2 0x408 PUSH2 0x285 JUMP JUMPDEST JUMPDEST PUSH0 DUP4 ADD CALLDATALOAD PUSH8 0xFFFFFFFFFFFFFFFF DUP2 GT ISZERO PUSH2 0x426 JUMPI PUSH2 0x425 PUSH2 0x289 JUMP JUMPDEST JUMPDEST PUSH2 0x432 DUP6 DUP3 DUP7 ADD PUSH2 0x39C JUMP JUMPDEST SWAP3 POP POP PUSH1 0x20 PUSH2 0x443 DUP6 DUP3 DUP7 ADD PUSH2 0x3DF JUMP JUMPDEST SWAP2 POP POP SWAP3 POP SWAP3 SWAP1 POP JUMP JUMPDEST PUSH0 PUSH1 0x20 DUP3 ADD SWAP1 POP PUSH2 0x460 PUSH0 DUP4 ADD DUP5 PUSH2 0x17E JUMP JUMPDEST SWAP3 SWAP2 POP POP JUMP JUMPDEST PUSH0 DUP2 MLOAD SWAP1 POP SWAP2 SWAP1 POP JUMP JUMPDEST DUP3 DUP2 DUP4 MCOPY PUSH0 DUP4 DUP4 ADD MSTORE POP POP POP JUMP JUMPDEST PUSH0 PUSH2 0x488 DUP3 PUSH2 0x466 JUMP JUMPDEST PUSH2 0x492 DUP2 DUP6 PUSH2 0x11B JUMP JUMPDEST SWAP4 POP PUSH2 0x4A2 DUP2 DUP6 PUSH1 0x20 DUP7 ADD PUSH2 0x470 JUMP JUMPDEST PUSH2 0x4AB DUP2 PUSH2 0x295 JUMP JUMPDEST DUP5 ADD SWAP2 POP POP SWAP3 SWAP2 POP POP JUMP JUMPDEST PUSH0 PUSH1 0x60 DUP3 ADD SWAP1 POP PUSH2 0x4C9 PUSH0 DUP4 ADD DUP7 PUSH2 0x1E9 JUMP JUMPDEST PUSH2 0x4D6 PUSH1 0x20 DUP4 ADD DUP6 PUSH2 0x17E JUMP JUMPDEST DUP2 DUP2 SUB PUSH1 0x40 DUP4 ADD MSTORE PUSH2 0x4E8 DUP2 DUP5 PUSH2 0x47E JUMP JUMPDEST SWAP1 POP SWAP5 SWAP4 POP POP POP POP JUMP JUMPDEST PUSH32 0x4E487B7100000000000000000000000000000000000000000000000000000000 PUSH0 MSTORE PUSH1 0x11 PUSH1 0x4 MSTORE PUSH1 0x24 PUSH0 REVERT JUMPDEST PUSH0 PUSH2 0x529 DUP3 PUSH2 0x175 JUMP JUMPDEST SWAP2 POP PUSH2 0x534 DUP4 PUSH2 0x175 JUMP JUMPDEST SWAP3 POP DUP3 DUP3 ADD SWAP1 POP DUP1 DUP3 GT ISZERO PUSH2 0x54C JUMPI PUSH2 0x54B PUSH2 0x4F2 JUMP JUMPDEST JUMPDEST SWAP3 SWAP2 POP POP JUMP INVALID LOG2 PUSH5 0x6970667358 0x22 SLT KECCAK256 0xBD SHR 0xDA JUMPI 0xAE CHAINID AND 0x1F REVERT SMOD GASLIMIT SHR PUSH19 0xB01D0F53F1DBA14B878A5C132D86D7E28E89ED PUSH5 0x736F6C6343 STOP ADDMOD BYTE STOP CALLER "
		},
		"gasEstimates": {
			"creation": {
				"codeDepositCost": "283200",
				"executionCost": "322",
				"totalCost": "283522"
			},
			"external": {
				"": "2643",
				"foo(string,uint256)": "infinite"
			}
		},
		"methodIdentifiers": {
			"foo(string,uint256)": "24ccab8f"
		}
	},
	"abi": [
		{
			"anonymous": false,
			"inputs": [
				{
					"indexed": false,
					"internalType": "string",
					"name": "_message",
					"type": "string"
				},
				{
					"indexed": false,
					"internalType": "uint256",
					"name": "_gas",
					"type": "uint256"
				}
			],
			"name": "Log",
			"type": "event"
		},
		{
			"anonymous": false,
			"inputs": [
				{
					"indexed": false,
					"internalType": "address",
					"name": "caller",
					"type": "address"
				},
				{
					"indexed": false,
					"internalType": "uint256",
					"name": "amount",
					"type": "uint256"
				},
				{
					"indexed": false,
					"internalType": "string",
					"name": "message",
					"type": "string"
				}
			],
			"name": "Recived",
			"type": "event"
		},
		{
			"stateMutability": "payable",
			"type": "fallback"
		},
		{
			"inputs": [
				{
					"internalType": "string",
					"name": "_message",
					"type": "string"
				},
				{
					"internalType": "uint256",
					"name": "_x",
					"type": "uint256"
				}
			],
			"name": "foo",
			"outputs": [
				{
					"internalType": "uint256",
					"name": "",
					"type": "uint256"
				}
			],
			"stateMutability": "payable",
			"type": "function"
		},
		{
			"stateMutability": "payable",
			"type": "receive"
		}
	]
}